:100000000C94E9160C9413170C9413170C941317F3
:100010000C9413170C9413170C9413170C941317B8
:100020000C9413170C9413170C9413170C941317A8
:100030000C9413170C94A28B0C9413170C94131795
:100040000C9413170C94A37A0C9436C10C941317C8
:100050000C94EA670C9413170C9413170C94131751
:100060000C9413170C9413170C9413170C94131768
:100070000C9413170C9413170C9413170C94131758
:100080000C9413170C9413170C94131705A84CCD4C
:10009000B2D44EB93836A9020C50B9918688083CC2
:1000A000A6AAAA2ABE000000803F4E414E494E49F2
:1000B0005459494E46CDCCCC3D0AD7233C17B7D135
:1000C0003877CC2B329595E6241FB14F0A000020DB
:1000D000410000C84200401C4620BCBE4CCA1B0E5A
:1000E0005AAEC59D74434F4D4D554E4943415449F9
:1000F0004F4E0044525952554E004552524F5253A2
:1001000000494E464F004543484F00656E71756586
:100110007565696E672022004B494C4C45442E2082
:100120000053544F505045442E20005072696E7455
:1001300065722073746F70706564206475652074D7
:100140006F206572726F72732E2046697820746812
:1001500065206572726F7220616E64207573652010
:100160004D39393920746F20726573746172742E41
:10017000202854656D7065726174757265206973AD
:100180002072657365742E20536574206974206134
:10019000667465722072657374617274696E672922
:1001A0000A004E6F20436865636B73756D20776935
:1001B0007468206C696E65206E756D6265722C20A6
:1001C0004C617374204C696E653A20004E6F204379
:1001D0006865636B73756D2077697468206C696EF0
:1001E00065206E756D6265722C204C617374204CB5
:1001F000696E653A2000636865636B73756D206D89
:1002000069736D617463682C204C617374204C6950
:100210006E653A20004C696E65204E756D626572A0
:10022000206973206E6F74204C617374204C696E6A
:1002300065204E756D6265722B312C204C61737494
:10024000204C696E653A20004D313130004D33311C
:100250000053442072656164206572726F720A00F7
:10026000446F6E65207072696E74696E672066698E
:100270006C650A0020496E76616C6964206578744B
:10028000727564657220000000000000000000002C
:1002900000000000006B4300006B4300007A434203
:1002A000696C696E656172204C6576656C696E6714
:1002B00020477269643A0A00202844525952554E28
:1002C0002900473239204175746F20426564204C03
:1002D0006576656C696E67003F20284C2C522C4671
:1002E0002C4229206F7574206F6620626F756E64D2
:1002F000732E0A003F2856296572626F7365206C61
:100300006576656C20697320696D706C61757369C1
:10031000626C652028302D34292E0A004261642049
:100320005A2076616C75650A004E6F2062696C69AF
:100330006E65617220677269640A0050726F74653D
:10034000637465642050696E0A005374616E646161
:10035000726420446576696174696F6E3A2000208A
:1003600052616E67653A2000204D61783A20002086
:100370004D696E3A20004D65616E3A200046696E07
:100380006973686564210A002072616E67653A20AE
:1003900000206D61783A2000206D696E3A200020BF
:1003A0007369676D613A2000206D65616E3A2000C7
:1003B0003A207A3A2000206F662000205A00205907
:1003C00000205800476F696E6720746F3A00436CD5
:1003D0006F636B776973650A00436F756E7465723E
:1003E0002D0020446972656374696F6E3A200020A5
:1003F0002020616E676C653A2000537461727469E5
:100400006E67207261646975733A2000506F73697A
:1004100074696F6E696E67207468652070726F62B0
:10042000652E2E2E0A003F4E756D626572206F6636
:10043000206C65677320696E206D6F76656D656EE3
:1004400074206E6F7420706C61757369626C6520C6
:1004500028302D3135292E0A003F2028582C5929C3
:10046000206F7574206F6620626F756E64732E0A3C
:10047000003F53616D706C652073697A65206E6F03
:100480007420706C61757369626C652028342D3539
:1004900030292E0A004D3438205A2D50726F626573
:1004A000205265706561746162696C697479205469
:1004B0006573740A003F2856296572626F73652060
:1004C0006C6576656C20697320696D706C617573FD
:1004D00069626C652028302D34292E0A0020573A95
:1004E000004520436F6F6C696E672E2E2E004520ED
:1004F00048656174696E672E2E2E0020573A0042BF
:10050000656420636F6F6C696E672E2E2E004265E6
:10051000642068656174696E672E2E2E00205A3A39
:100520000020593A0020436F756E7420583A00201D
:10053000453A00205A3A0020593A00583A003A0009
:100540004361703A00205A00205900580020204D85
:1005500061783A2000205A00205900580020204D90
:10056000696E3A20004F6E20004F666600536F663A
:100570007420656E6473746F70733A200023646531
:1005800066696E652044454641554C545F4B642076
:100590000023646566696E652044454641554C54A8
:1005A0005F4B69200023646566696E65204445469B
:1005B00041554C545F4B70200050494420417574A4
:1005C0006F74756E652066696E6973686564212055
:1005D00050757420746865206C617374204B702CA6
:1005E000204B6920616E64204B6420636F6E7374CE
:1005F000616E74732066726F6D2062656C6F772018
:10060000696E746F20436F6E666967757261746995
:100610006F6E2E680A00504944204175746F7475DE
:100620006E65206661696C6564212074696D656F13
:1006300075740A00453120544845524D414C2052B2
:10064000554E4157415900546865726D616C205296
:10065000756E617761790045312048656174696E16
:1006600067206661696C65640048656174696E67DE
:10067000206661696C656400504944204175746F5F
:1006800074756E65206661696C6564212054656DC2
:10069000706572617475726520746F6F2068696728
:1006A000680A00204B643A2000204B693A20002061
:1006B0004B703A20000A20436C61737369632050C9
:1006C0004944200A002054753A2000204B753A20F6
:1006D00000206D61783A2000206D696E3A2000207C
:1006E000643A200020626961733A20005049442036
:1006F0004175746F74756E652073746172740A004D
:10070000504944204175746F74756E652066616947
:100710006C6564212054656D7065726174757265D5
:1007200020746F6F20686967680A0050494420414F
:1007300075746F74756E65206661696C65642120DF
:10074000426164206578747275646572206E756D9F
:100750006265720A004F66660A0046616465204859
:1007600065696768742000426564204C6576656C35
:10077000696E6720004661696C656420746F20654E
:100780006E61626C6520426564204C6576656C69BB
:100790006E670A00536C6565702E2E2E00486F6DD3
:1007A000652058592066697273740A00486F6D6538
:1007B00020585920666972737400205A3A2000202C
:1007C000593A200042656420583A20004D6573680C
:1007D00020706F696E742063616E6E6F7420626545
:1007E000207265736F6C7665640A00436C69636B95
:1007F00020746F20726573756D652E2E2E004E6FFE
:10080000206D6F76652E00456E642066696C6520EC
:100810006C6973740A00426567696E2066696C656D
:10082000206C6973740A00286E6F2066696C6529F4
:100830000043757272656E742066696C653A2000BB
:100840005344207072696E74696E672062797465B2
:1008500020004E6F74205344207072696E74696E6C
:10086000670A0044656C6574696F6E206661696C27
:1008700065642C2046696C653A200046696C6520E9
:1008800064656C657465643A002569730025696D5B
:1008900020256973002569682025696D2025697305
:1008A00000256964202569682025696D2025697304
:1008B0000025697920256964202569682025696DEE
:1008C00020256973005072696E742074696D653AF1
:1008D00020006F66660006010101FA00F300E500E2
:1008E00044454255473A004B494C4C45442E200064
:1008F0004D3131332053006F6B00456E6465722DAE
:1009000033204F66662E002C20002C2000544845D2
:10091000524D414C5F50524F54454354494F4E0045
:100920004155544F5245504F52545F53445F5354B6
:100930004154555300454D455247454E43595F502C
:10094000415253455200434153455F4C4947485437
:100950005F4252494748544E45535300544F47470E
:100960004C455F4C494748545300534F46545741F8
:1009700052455F504F574552004255494C445F50D5
:10098000455243454E54004C4556454C494E475FF1
:1009900044415441005A5F50524F42450041555422
:1009A0004F4C4556454C005052494E545F4A4F42B9
:1009B0000050524F4752455353004155544F5245F2
:1009C000504F52545F54454D5000564F4C554D4575
:1009D0005452494300454550524F4D0053455249EA
:1009E000414C5F584F4E5F584F4646004649524D66
:1009F000574152455F4E414D453A4D61726C696EAB
:100A0000206275676669782D312E312E782028474F
:100A100069746875622920534F555243455F434FAF
:100A200044455F55524C3A68747470733A2F2F677F
:100A300069746875622E636F6D2F4D61726C696E9B
:100A40004669726D776172652F4D61726C696E20B7
:100A500050524F544F434F4C5F56455253494F4E9F
:100A60003A312E30204D414348494E455F5459504C
:100A7000453A456E6465722D3320455854525544AD
:100A800045525F434F554E543A3120555549443AEB
:100A900063656465326132662D343161322D3437DD
:100AA00034382D396231322D633535633632663351
:100AB000363766660A002F2F20004D31343520531B
:100AC0003C696E6465783E206F7574206F66207295
:100AD000616E67652028302D31290A0020540020DE
:100AE0005200416363656C65726174696F6E3A2090
:100AF00050005741524E494E4721204C6F77205AA3
:100B0000204A65726B206D6179206C656164207488
:100B10006F20756E77616E746564207061757365A2
:100B2000732E0A004F666673657473206170706C73
:100B3000696564004572723A20546F6F2066617275
:100B40002100546F6F206661722066726F6D207293
:100B500065666572656E636520706F696E740A0004
:100B600020466C6F773A200000010F150E12FFFF30
:100B7000FFFF16170E13FFFFFFFF03021A14FFFFFC
:100B8000FFFFFFFFFF0C04FFFFFF01000EFFFFFF51
:100B90000C190DFF1850726F6265205A204F66665F
:100BA0007365743A2000496E76616C6964206578DB
:100BB0007472756465720A0020643A0020693A0014
:100BC00020703A0043290A0061626C656420286D38
:100BD000696E2074656D702000436F6C64206578C9
:100BE0007472756465732061726520004E6F2063B6
:100BF000617365206C696768740A004D65736820CD
:100C0000706F696E742063616E6E6F742062652010
:100C10007265736F6C7665640A004D3432312069F9
:100C20006E636F727265637420706172616D65745A
:100C300065722075736167650A00454550524F4DD6
:100C4000204F4B0A003F5A206F7574206F66207248
:100C5000616E676520282D3520746F2031290A00C8
:100C60003A200050726F6265205A204F66667365A5
:100C700074004163746976652045787472756465A3
:100C8000723A2000496E76616C69642065787472EE
:100C9000756465720A00526573656E643A20006F70
:100CA0006B0020746F6F206C6F6E672065787472B4
:100CB0007573696F6E2070726576656E7465640A0F
:100CC0000020636F6C6420657874727573696F6E51
:100CD0002070726576656E7465640A00627573795A
:100CE0003A2070617573656420666F7220696E705A
:100CF00075740A00627573793A2070617573656462
:100D000020666F7220757365720A00627573793A96
:100D10002070726F63657373696E670A004B494C8C
:100D20004C45442E20004B494C4C20636175736543
:100D30006420627920746F6F206D75636820696E1E
:100D40006163746976652074696D65202D20637513
:100D50007272656E7420636F6D6D616E643A20000F
:100D6000506C6561736520726573657400505249FB
:100D70004E5445522048414C544544005072696ECF
:100D80007465722068616C7465642E206B696C6C8C
:100D900028292063616C6C6564210A000000000052
:100DA00000000000000000000000A0410000A04181
:100DB00000000041000000005761726E696E673AE2
:100DC00020486F6D696E672042756D7020446976AA
:100DD00069736F72203C20310A000202040000A0F7
:100DE000400000A0400000004000006B4300006B8A
:100DF0004300007A43FFFFFF7C3C3E5E2B3D3F2FCC
:100E00005B5D3B2C2A225C004572726F7220777208
:100E10006974696E6720746F20454550524F4D21AB
:100E20000A00454550524F4D206461746173697AE0
:100E300065206572726F722E0A00290A002062799D
:100E40007465733B20637263200053657474696E2C
:100E500067732053746F726564202800290A00208C
:100E600062797465733B2063726320002073746F32
:100E70007265642073657474696E6773207265743B
:100E8000726965766564202800202863616C63754B
:100E90006C6174656429210A0020213D20004545CC
:100EA00050524F4D20435243206D69736D617463FE
:100EB00068202D202873746F7265642920002053E8
:100EC000697A653A2000496E6465783A2000204DC1
:100ED00061726C696E3D563536290A0028454550C9
:100EE000524F4D3D00454550524F4D20766572732F
:100EF000696F6E206D69736D61746368200048616D
:100F00007264636F6465642044656661756C742007
:100F100053657474696E6773204C6F616465640A0D
:100F200000F4010000F401000064000000881300D8
:100F3000000000FA430000FA43000070410000C8BE
:100F4000410000A0420000A0420000C8430000BAD7
:100F5000423A0A0020286D6D290020204D38353195
:100F6000205A005A2D50726F6265204F6666736575
:100F7000740020440020490020204D33303120509F
:100F8000005049442073657474696E67733A0A00AF
:100F900020460020420020480020204D31343520DA
:100FA00053004D6174657269616C20686561747588
:100FB0007020706172616D65746572733A0A002009
:100FC0005A00204A0020204732392057204900206B
:100FD0005A0020204D3432302053004175746F2068
:100FE000426564204C6576656C696E673A0A00203C
:100FF0005A0020590020204D323036205800486FCA
:101000006D65206F66667365743A0A00204500209E
:101010005A0020590020580020540020530020205E
:101020004D32303520510020453C6D61785F655F61
:101030006A65726B3E0020583C6D61785F785F6A2C
:1010400065726B3E20593C6D61785F795F6A6572AD
:101050006B3E205A3C6D61785F7A5F6A65726B3EC9
:1010600000416476616E6365643A20513C6D696E3F
:101070005F7365676D656E745F74696D655F7573C9
:101080003E20533C6D696E5F666565647261746590
:101090003E20543C6D696E5F74726176656C5F666C
:1010A000656564726174653E002054002052002022
:1010B000204D323034205000416363656C657261AD
:1010C00074696F6E2028756E6974732F7332293AB4
:1010D00020503C7072696E745F616363656C3E2082
:1010E000523C726574726163745F616363656C3EE8
:1010F00020543C74726176656C5F616363656C3E1D
:101100000A00204500205A0020590020204D32308E
:10111000312058004D6178696D756D2041636365BC
:101120006C65726174696F6E2028756E6974732FB7
:101130007332293A0A00204500205A002059002025
:10114000204D3230332058004D6178696D756D2027
:101150006665656472617465732028756E69747361
:101160002F73293A0A00204500205A0020590020F8
:10117000204D3932205800537465707320706572A9
:1011800020756E69743A0A0020204D3230302044B8
:10119000300A0020204D3230302044002044697352
:1011A00061626C65640A0046696C616D656E7420ED
:1011B00073657474696E67733A0020204D31343959
:1011C0002043203B20556E69747320696E2043656F
:1011D0006C736975730A002020473231202020206B
:1011E0003B00486F6D696E67206661696C656400DD
:1011F000545249474745524544006F70656E003A66
:1012000020007A5F6D696E00795F6D696E00785FAE
:101210006D696E005265706F7274696E6720656EDD
:101220006473746F70207374617475730A00207432
:101230006F6F206C6F6E6720657874727573696F5D
:101240006E2070726576656E7465640A0020636F47
:101250006C6420657874727573696F6E2070726546
:1012600076656E7465640A0024F4D43050C38E2011
:10127000C2A24017828B7011127A910D816CD90A2B
:10128000A861E108C7586607615143061E4B5D051A
:10129000C145A7041A411104093D9803713931036E
:1012A0004036DB0265339102D4305402802E1D0299
:1012B000632CEE01752AC501B028A0011027810119
:1012C0008F2564012B244B01E0223401AC211F0146
:1012D0008D200D01801FFC00841EED00971DDF0096
:1012E000B81CD200E61BC600201BBC00641AB2006A
:1012F000B219A8000A19A0006A189900D117910024
:1013000040178B00B516840031167E00B3157900A6
:101310003A157300C7146F0058146A00EE13660084
:101320008813630025135E00C7125B006C12570020
:1013300015125400C111510070114F0021114B00C2
:10134000D61049008D10470046104400021042009C
:10135000C00F4000800F3E00420F3C00060F3B00D4
:10136000CB0E3800930E37005C0E3500270E34008C
:10137000F30D3200C10D3100900D3000600D2E00D4
:10138000320D2D00050D2C00D90C2B00AE0C2900C0
:10139000850C29005C0C2700350C27000E0C26005C
:1013A000E80B2400C40B2400A00B23007D0B2300BA
:1013B0005A0B2100390B2100180B2000F80A1F00DE
:1013C000D90A1E00BB0A1E009D0A1D00800A1D00CE
:1013D000630A1C00470A1B002C0A1B00110A1A0092
:1013E000F7091A00DD091900C4091900AB09190031
:1013F000920917007B091800630917004C091600B1
:1014000036091600200916000A091500F50815000E
:10141000E0081400CC081400B8081400A408140054
:10142000900813007D0812006B0813005808120082
:101430004608120034081100230811001208110098
:1014400001081100F0071000E0071000D00710009D
:10145000C0071000B0070F00A107100091070E0091
:1014600083070F0074070F0065070E0057070E0073
:1014700049070E003B070D002E070E0020070D0048
:1014800013070D0006070D00F9060C00ED060D0010
:10149000E0060C00D4060C00C8060C00BC060C00CC
:1014A000B0060C00A4060B0099060C008D060B007C
:1014B00082060B0077060B006C060B0061060A0023
:1014C00057060B004C060A0042060A0038060A00BE
:1014D0002E060A0024060A001A060A001006090051
:1014E00007060A00FD050900F4050900EB050900DF
:1014F000E2050900D9050900D0050900C705090062
:10150000BE050900B5050800AD050800A5050900E0
:101510009C050800940508008C0508008405080057
:101520007C050800740508006C05070065050800C7
:101530005D050700560508004E0507004705070032
:101540004005080038050700310507002A05070097
:10155000230507001C050600160507000F050700F8
:101560000805060002050700FB040600F504070055
:10157000EE040600E8040600E2040700DB040600AF
:10158000D5040600CF040600C9040600C304060003
:10159000BD040600B7040600B1040500AC04060053
:1015A000A6040600A00405009B040600950405009F
:1015B000900406008A0405008504050080040600E6
:1015C0007A04050075040500700405006B0405002D
:1015D00066040500610405005C040500570405006D
:1015E000520405004D0405004804050043040500AD
:1015F0003E0404003A0405003504050030040400EC
:101600002C04050027040400230405001E04040024
:101610001A04040016040500110404000D0404005B
:10162000090405000404040000040400FC03040091
:10163000F8030400F4030400F0030400EC030400C6
:10164000E8030400E4030400E0030400DC030400F6
:10165000D8030400D4030400D0030400CC03040026
:10166000C8030300C503030024F404D9201BC40CE1
:101670005C0E9804C4095F0265077101F405F90066
:10168000FB04B30048048700C103690058035500F8
:1016900003034500BE023A008402310053022A00CF
:1016A0002902250004022000E4011C00C8011900E1
:1016B000AF0117009801140084011300710110009C
:1016C0006101100051010E0043010D0036010B00B5
:1016D0002B010B0020010B00150109000C01090072
:1016E00003010800FB000800F3000800EB000700FE
:1016F000E4000600DE000600D8000600D200060066
:10170000CC000500C7000500C2000500BD000400B4
:10171000B9000400B5000400B1000400AD000400ED
:10172000A9000400A5000300A20003009F0004001C
:101730009B00030098000300950002009300030043
:10174000900003008D0002008B000300880002005F
:101750008600020084000300810002007F00020076
:101760007D0002007B00020079000200770001008A
:101770007600020074000200720001007100020095
:101780006F0002006D0001006C0002006A000100A1
:1017900069000200670001006600010065000100A9
:1017A00064000200620001006100010060000100AD
:1017B0005F0002005D0001005C0001005B000100B1
:1017C0005A000100590001005800010057000100B3
:1017D00056000100550001005400010053000000B4
:1017E00053000100520001005100010050000100AF
:1017F0004F0001004E0000004E0001004D000100AE
:101800004C0001004B0000004B0001004A000100A9
:1018100049000100480000004800010047000100A5
:1018200046000000460001004500000045000100A0
:10183000440001004300000043000100420000009A
:101840004200010041000000410001004000010091
:101850003F0000003F0001003E0000003E0001008C
:101860003D0000003D0001003C0000003C00000085
:101870003C0001003B0000003B0001003A0000007A
:101880003A00010039000000390001003800000072
:101890003800000038000100370000003700010068
:1018A0003600000036000000360001003500000060
:1018B0003500000035000100340000003400000055
:1018C0003400010033000000330000003300010049
:1018D0003200000032000000320001003100000040
:1018E0003100000031000100300000003000000035
:1018F000300001002F0000002F0000002F0000002A
:101900002F0001002E0000002E0000002E0001001C
:101910002D0000002D0000002D0000002D00010012
:101920002C0000002C0000002C0000002C00010006
:101930002B0000002B0000002B0000002B000100FA
:101940002A0000002A0000002A0000002A000100EE
:1019500029000000290000002900000029000000E3
:1019600029000100280000002800000028000000D5
:1019700028000000280001002700000027000000C8
:1019800027000000270000002700010026000000BB
:1019900026000000260000002600000026000100AE
:1019A00025000000250000002500000025000000A3
:1019B0002500000025000100240000002400000094
:1019C0002400000024000000240001002300000087
:1019D000230000002300000023000000230000007B
:1019E000230000002300010022000000220000006C
:1019F000220000002200000022000000220001005E
:101A00002100000021000000210000002100000052
:101A10002100000021000000210001002000000042
:101A20002000000020000000200000002000000036
:101A30002000000020000000200001001F00000026
:101A40001F0000001F0000001F0000001F0000001A
:101A50001F0000001F0001001E0000001E0000000B
:101A60001E0000001E000000043700001E290000B8
:101A7000511B00005810000010090000CC040000A9
:101A800078020000410100006265640A002C2073A6
:101A9000797374656D2073746F707065642120486C
:101AA00065617465725F49443A200042656420684C
:101AB000656174696E67206661696C65640048657C
:101AC0006174696E67206661696C656400453120E8
:101AD00048656174696E67206661696C6564004879
:101AE000656174696E67206661696C656400700188
:101AF0002C0190012701B0012201C0011D01F0015C
:101B000018011002130130020E0160020901900257
:101B10000401C002FF000003FA004003F500800347
:101B2000F000D003EB002004E6007004E100E004C4
:101B3000DC004005D700C005D2004006CD00D0062D
:101B4000C8008007C3003008BE00F008B900C00913
:101B5000B400B00AAF00B00BAA00D00CA500000E74
:101B6000A000500F9B00C01096005012910000146E
:101B70008C00C0158700B0178200B0197D00D01B03
:101B80007800001E730040206E0090226900F0244F
:101B9000640040275F0090295A00E02B5500102E6A
:101BA000500020304B0010324600E03341009035A9
:101BB0003C001037370070383200A0392D00B03AA1
:101BC0002800A03B2300603C1E00103D1900903D02
:101BD0001400103E0F00703E0A00C03E0500003F9A
:101BE0000000403FFBFF803FF6FFC03FF1FF453163
:101BF00020544845524D414C2052554E4157415971
:101C00000042454420544845524D414C2052554EC7
:101C10004157415900546865726D616C2052756E70
:101C200061776179004531204572723A204D415803
:101C300054454D50004572723A204D415854454D1F
:101C40005020424544004D415854454D5020747237
:101C500069676765726564004531204572723A2094
:101C60004D494E54454D50004572723A204D494EF3
:101C700054454D5020424544004D494E54454D5029
:101C800020747269676765726564004D3834205846
:101C90002059205A204500202F002042403A0020A1
:101CA000403A0025753A2530327500253032753AB4
:101CB000253032750025756420253032753A25307F
:101CC000327500202020202020005A0059002020BA
:101CD0002020005800092000000000000000000043
:101CE00000000000003FFFF00000000000000000C6
:101CF000000000000038007000000000000000003C
:101D0000000000000030FC30000000000000000077
:101D1000000000000020FC10000000000000000097
:101D2000000000000020781000000000000000000B
:101D30000000000000203010000000000000000043
:101D400000000000002C00D0F80180000C1FE00013
:101D500000082080002E31D048008000123FF000A3
:101D600000041040002F7BD043C38CD0023FF00012
:101D700000041040002F7BD071249267CC3FF0000C
:101D800000082080002E31D041249E40021FE00038
:101D900000104100002C00D049249040121FE000A8
:101DA0000020820000203010FBB3CEE00C3FF0009A
:101DB000002082000020781000000000003FF000AA
:101DC000001041000020FC1000000000003FF00067
:101DD000000820800030FC3000000000000FC00030
:101DE00000000000003800700000000000078000C4
:101DF00000FFFFC0003FFFF00000000000030000F4
:101E000000FFFFC000000000000000000000000014
:101E100000000000003FFFF0000000000000000094
:101E2000000000000038007000000000000000000A
:101E300000000000003387300000000000000000B8
:101E40000000000000278790000000000000000054
:101E500000000000002F87D00000000000000000FC
:101E600000000000002F87D00000000000000000EC
:101E700000000000002F03D0F80180000C1FE000DC
:101E8000000820800020301048008000123FF00041
:101E9000000410400020781043C38CD0023FF000B3
:101EA000000410400020781071249267CC3FF000AD
:101EB000000820800020301041249E40021FE000D6
:101EC00000104100002F03D049249040121FE00071
:101ED00000208200002F87D0FBB3CEE00C3FF00043
:101EE00000208200002F87D000000000003FF0009B
:101EF000001041000027879000000000003FF00024
:101F0000000820800033873000000000000FC00070
:101F10000000000000380070000000000007800092
:101F200000FFFFC0003FFFF00000000000030000C2
:101F300000FFFFC000000000456E6465722D332075
:101F400052656164792E005072696E74696E672EF5
:101F50002E2E005072696E74207061757365640076
:101F60005072696E742061626F7274656400496EAC
:101F700069742E2053442063617264004D32310035
:101F80004E6F2053442063617264004368616E6742
:101F9000652053442063617264004D3231005072F9
:101FA000696E742066726F6D2053440053746F70B5
:101FB000207072696E7400526573756D6520707261
:101FC000696E740041626F7574205072696E746539
:101FD00072005061757365207072696E7400436F92
:101FE0006E74726F6C00507265706172650054752A
:101FF0006E6500496E666F2073637265656E000ED4
:10200000000E000E000E000E000E000E000E007FEF
:10201000C03F801F000E00040004000E001F003FA0
:10202000807FC00E000E000E000E000E000E000E8F
:10203000000E0003F8000FFE001E0F0038070038E6
:102040000380700380700FE07007C0700380700120
:10205000007000003800003807001E0F000FFE005F
:1020600003F80000FE0003FF800783C00E01C00ECE
:1020700000E01C00E07F00E03E00E01C00E0080003
:10208000E00000E00001C00E01C00F078007FF0064
:1020900001FC00FFFFFF7F80FFC0FFC0FFC07F800B
:1020A0007F80FFC0FFC0FFC03F001E000C005072C9
:1020B0006F6265205A204F66667365740050726FB8
:1020C0006265205A204F666673657400466C6F77B0
:1020D00000466C6F770046616E2073706565640022
:1020E00046616E20737065656400426564004265F8
:1020F00064004E6F7A7A6C65004E6F7A7A6C650078
:102100005370656564005370656564004D61696E68
:10211000005072656865617420504C4120456E64C2
:10212000005072656865617420504C4120426564BE
:10213000005072656865617420504C4100507265B2
:102140007061726500507265686561742041425328
:1021500020456E6400507265686561742041425389
:102160002042656400507265686561742041425385
:1021700000507265706172650050726568656174C7
:1021800020414253005072656865617420504C4193
:1021900000436F6F6C646F776E0044697361626CAB
:1021A00065207374657070657273004D3834004833
:1021B0006F6D65205A00473238205A00486F6D65B0
:1021C000205900473238205900486F6D652058006B
:1021D0004732382058004175746F20686F6D650074
:1021E000473238004D6F76652061786973004D6124
:1021F000696E004D6F76652058004D6F76652059E9
:10220000004D6F7665205A0045787472756465726A
:10221000004D6F766520302E316D6D004D6F766507
:1022200020316D6D004D6F76652031306D6D004D44
:102230006F7665206178697300457874727564659E
:1022400072004D6F7665205A004D6F7665205900FB
:102250004D6F76652058004578747275646572001C
:102260004D6F7665205A004D6F76652059004D6F91
:10227000766520580050726570617265004C6F6120
:10228000642073657474696E677300526573746F4C
:102290007265206661696C736166650053746F7264
:1022A000652073657474696E67730046696C616D4F
:1022B000656E74004D6F74696F6E0054656D706566
:1022C000726174757265004D61696E004D33303313
:1022D0002055312045256920532569005049442067
:1022E0004175746F74756E65005049442041757472
:1022F0006F74756E65005049442D44005049442D5B
:1023000044005049442D49005049442D490050494A
:10231000442D50005049442D500020082046616350
:10232000740020082046616374002008204D617805
:10233000002008204D6178002008204D696E0020A3
:1023400008204D696E004F6666004F6E2000417593
:10235000746F74656D700046616E2073706565649E
:102360000046616E207370656564004265640042DA
:102370006564004E6F7A7A6C65004E6F7A7A6C6590
:1023800000436F6E74726F6C0050726F6265205AFA
:10239000204F666673657400436F6E74726F6C00D5
:1023A00046696C2E204469612E0046696C2E2044DB
:1023B00069612E004F6666004F6E20004520696EF1
:1023C000206D6D3300436F6E74726F6C0043616EED
:1023D0006E6F7420656E74657220737562646972C5
:1023E0003A2000022E2E0001526566726573680065
:1023F0004D61696E004D61782054656D703A2031F1
:102400003235004D696E2054656D703A20350054A8
:102410004265643A4550434F53203130304B004DB4
:1024200061782054656D703A20323735004D696E01
:102430002054656D703A20350054303A20455043A1
:102440004F53203130304B005053553A2047656E82
:10245000657269630050726F746F636F6C3A2031FC
:102460002E3000426175643A20313135323030000F
:102470004D656C7A692028437265616C69747929AD
:102480000042696C696E656172204C6576656C69A5
:102490006E67004578747275646572733A20310016
:1024A000687474703A2F2F6D61726C696E66772E46
:1024B0006F726700456E6465722D330032303138BB
:1024C0002D30372D3331006275676669782D312ED6
:1024D000312E78004D61726C696E00546865726DC2
:1024E0006973746F727300426F61726420496E6623
:1024F0006F005072696E74657220496E666F004D90
:1025000061696E0000002100240027002A000000FD
:102510002200250028002B000000200023002600B8
:10252000290002020202020202020404040404045A
:102530000404030303030303030301010101010175
:10254000010101020408102040800102040810204B
:1025500040800102040810204080804020100804C0
:102560000201000000010200090A0000000004034B
:10257000080700000000000000000000000000004C
:1025800000002020506C616E6E6572427566666553
:102590007242797465733A20002046726565204D59
:1025A000656D6F72793A2000436F6D70696C656478
:1025B0003A2041707220313120323032300A00200E
:1025C0007C20417574686F723A2028746869736959
:1025D000736B65697468622C20456E6465722D3377
:1025E000290A00323031382D30372D333100204C5C
:1025F00061737420557064617465643A200062757B
:10260000676669782D312E312E780A004D61726C23
:10261000696E0020536F667477617265205265732E
:1026200065740A00205761746368646F672052659F
:102630007365740A002042726F776E206F75742084
:1026400052657365740A002045787465726E616C1A
:102650002052657365740A00506F77657255700A71
:102660000073746172740A006175746F25692E6756
:10267000006572726F722077726974696E67207478
:102680006F2066696C650A00456E6473746F7073C1
:1026900020256320256320256320256300205A3AE6
:1026A0000020593A0020583A00656E6473746F70C8
:1026B00073206869743A2000446F6E6520736176F8
:1026C000696E672066696C652E0A004D3239004DCF
:1026D0003234004D323320257300556E6B6E6F77A8
:1026E0006E20636F6D6D616E643A20220050726FD0
:1026F00062696E67206661696C65640A0050726F7A
:1027000062696E67206661696C656400205A3A20D0
:102710000020593A200042656420583A2000534472
:102720002063617264206F6B0A006F70656E526F78
:102730006F74206661696C65640A00766F6C756DF4
:10274000652E696E6974206661696C65640A005360
:102750004420696E6974206661696C0A00486F6D77
:1027600065202573257325732066697273740020B4
:1027700066697273740A005A0059005800486F6DF8
:1027800065200057726974696E6720746F206669EE
:102790006C653A20006F70656E206661696C6564D7
:1027A0002C2046696C653A20006F70656E2066616A
:1027B000696C65642C2046696C653A200046696C3A
:1027C000652073656C65637465640A002053697ADB
:1027D000653A200046696C65206F70656E65643AE5
:1027E00020002066696C653A2000646F696E67009E
:1027F0006672657368004E6F772000454E44205323
:102800005542524F5554494E450A002220706F736D
:10281000002220706172656E743A22005355425254
:102820004F5554494E452043414C4C2074617267CA
:1028300065743A22004B494C4C45442E200074727A
:1028400079696E6720746F2063616C6C20737562A8
:102850002D67636F64652066696C657320776974A2
:102860006820746F6F206D616E79206C6576656C81
:10287000732E204D4158206C6576656C2069733A43
:10288000004572726F723A006F70656E2066616902
:102890006C65642C2046696C653A200043616E6E5D
:1028A0006F74206F70656E207375626469722000AA
:1028B0006563686F3A0000060900FE070192032174
:1028C000207FFF07FF07FF00000006000001070749
:1028D00006020080808080800080030202060105DD
:1028E000A0A00507070600005050F850F85050050A
:1028F00007070600002078A07028F02005070706CB
:102900000000C0C8102040981805070706000060A6
:1029100090A040A89068020303060104C040800311
:10292000070706010020408080804020030707063B
:102930000100804020202040800505050600012080
:10294000A870A8200505050600012020F820200217
:1029500003030602FFC04080050101060003F802E0
:102960000202060200C0C00505050600010810208D
:1029700040800507070600007088888888887003F3
:10298000070706010040C040404040E00507070639
:102990000000708808708080F8050707060000F8BE
:1029A0001020100808F005070706000010305090AE
:1029B000F81010050707060000F880F00808887076
:1029C000050707060000708080F0888870050707FB
:1029D000060000F808102020202005070706000048
:1029E00070888870888870050707060000708888DE
:1029F00078080870020505060200C0C000C0C002C9
:102A000006060602FFC0C000C0408004070706009B
:102A10000010204080402010050303060002F8004B
:102A2000F8040707060100804020102040800507B9
:102A30000706000070880810200020050707060020
:102A40000070880868A8A87005070706000070884D
:102A500088F8888888050707060000F08888F088CD
:102A600088F0050707060000708880808088700560
:102A70000707060000F08888888888F005070706A1
:102A80000000F88080F08080F8050707060000F855
:102A90008080F0808080050707060000708880B87D
:102AA000888870050707060000888888F888888865
:102AB000010707060200808080808080800507076C
:102AC000060000381010101090600507070600007F
:102AD0008890A0C0A090880507070600008080802D
:102AE000808080F805070706000088D8A8888888B5
:102AF000880507070600008888C8A8988888050701
:102B00000706000070888888888870050707060017
:102B100000F08888F0808080050707060000708834
:102B20008888A89068050707060000F08888F0A04C
:102B30009088050707060000788080700808F00577
:102B40000707060000F820202020202005070706A0
:102B50000000888888888888700507070600008834
:102B6000888888885020050707060000888888889C
:102B700088A85005070706000088885020508888DC
:102B800005070706000088888850202020050707D1
:102B9000060000F80810204080F80307070601002F
:102BA000E08080808080E0050505060001804020EF
:102BB0001008030707060100E02020202020E00580
:102BC0000303060004205088050101060000F802F6
:102BD000020206020580400505050600007008781F
:102BE00088780507070600008080B0C88888F0054F
:102BF0000505060000708080887005070706000044
:102C0000080868988888780505050600007088F827
:102C100080700507070600003048E040404040054E
:102C200006060600FF70888878087005070706000A
:102C3000008080B0C88888880107070602008000ED
:102C400080808080800308080601FF20002020206B
:102C500020A040040707060000808090A0C0A0903C
:102C6000030707060100C04040404040E00505055D
:102C7000060000D0A8A8A8A8050505060000B0C851
:102C80008888880505050600007088888870050614
:102C9000060600FFF08888F080800506060600FF23
:102CA000788888780808050505060000B0C8808087
:102CB0008005050506000070807008F0040707060F
:102CC00000004040E0404040300505050600008817
:102CD00088889868050505060000888888502005C2
:102CE00005050600008888A8A8500505050600000F
:102CF00088502050880506060600FF8888887808D6
:102D000070050505060000F8102040F803070706C7
:102D1000010020404080404020010707060200805B
:102D2000808080808080030707060100804040206B
:102D30004040800502020600026890000000060084
:102D40000000060900FE000000000001090008FE66
:102D5000000005080806000040F0C8888898781030
:102D6000050808060000C0F88888888888F80505E6
:102D7000050600012030F830200508080600002074
:102D800070F820202020E00509090600FF2070A827
:102D9000A8B8888870200509090600FFE080C0B047
:102DA000A8283028280509090600FFF8A88888887F
:102DB0008888A8F8050A0A0600FE2050505050885E
:102DC000A8A8887003030306000340A0400026E182
:102DD0005CDF11241FBECFEFD0E4DEBFCDBF12E019
:102DE000A0E0B1E0E0EFF5EE01E00BBF02C007901C
:102DF0000D92A036B107D9F723E1A0E6B2E001C0F9
:102E00001D92AE3BB207E1F716E1C8EED6E104C071
:102E10002197FE010E945CF2C73ED107C9F70E94CC
:102E20000DE20C94EBF20C940000CF92DF92EF9243
:102E3000FF926091ED037091EE03072E000C880B5A
:102E4000990B0E944FEB6B017C012DEB37E346E8B9
:102E500055EB0E9467F187FD0BC02DEB37E346E889
:102E600055E3C701B6010E9448EB18160CF043C0A9
:102E7000A701960160E070E080E89FE30E9428F0DF
:102E800060939D0370939E0380939F039093A00390
:102E90006091EF037091F003072E000C880B990BE3
:102EA0000E944FEB6B017C012DEB37E346E855EBBD
:102EB0000E9467F187FD0AC02DEB37E346E855E332
:102EC000C701B6010E9448EB1816CCF4A701960181
:102ED00060E070E080E89FE30E9428F06093A10327
:102EE0007093A2038093A3039093A403FF90EF90A9
:102EF000DF90CF90089560E070E0CB01C1CF60E03B
:102F000070E0CB01EBCF8091CB029091CC02A091ED
:102F1000CD02B091CE028093620190936301A093A1
:102F20006401B09365018091C9029091CA029093A7
:102F30002901809328010895809162019091630195
:102F4000A0916401B09165018093CB029093CC0273
:102F5000A093CD02B093CE028091280190912901D7
:102F60009093CA028093C90284E690E0909329016D
:102F70008093280108950F931F93CF93DF9394E0DC
:102F8000899FE00111248E010454134FFE01EC5F70
:102F9000F44FDE01A953BC4F2D913D914D915C91B1
:102FA00060817181828193810E94A0EFF80160832A
:102FB000718382839383FE01E957FD4F859195913B
:102FC000A591B491FE01E154F64F80839183A283D1
:102FD000B383FE01ED56FD4F85919591A591B49176
:102FE000C65DDE4F88839983AA83BB83DF91CF912F
:102FF0001F910F9108959091140BE92FF0E0E05F7D
:10300000F44F80839F5F943040F49093140B809131
:10301000960C8F5F8093960C08951092140BF7CF47
:10302000089590E080E0089580E1ECECFCE0A3EDF1
:10303000B3E001900D928A95E1F7089580917703AE
:10304000909178032FEF3FEF981751F0E92FF0E0C0
:10305000E950FD4F208130E09F5F9F779093780388
:10306000C90108950F931F93CF93DF93EC010E9442
:103070008CBF0E811F812885398501151105210519
:10308000310579F52C85222339F1EA8521502C87E9
:1030900021E02E0F2A873D85231301C01A86F0E018
:1030A0003196EE0FFF1FEE0FFF1FEC0FFD1F028585
:1030B0001385248535850A831B832C833D83600F0C
:1030C000711F811D911D6E837F83888799878C81F5
:1030D0009D81892B09F0149ADF91CF911F910F9157
:1030E0000895601B710B820B930B97FDF5CF14981D
:1030F0001E821F8218861986EFCFCF92DF92EF9241
:103100000F931F93CF93DF93CDB7DEB760970FB6C2
:10311000F894DEBF0FBECDBFE090E60AECECFCE019
:1031200080859185A285B3854481558166817781AB
:10313000008111812281338109831A832B833C838F
:103140004D835E836F83788789879A87AB87BC8737
:103150001D861E861F86188AAE01475F5F4FBE011F
:103160006B5F7F4FCE0101960E94869CCE010D962B
:103170006C0102E611E028ED3CE0AE01475F5F4FD5
:10318000BE016B5F7F4F0C970E94BE8D60960FB69D
:10319000F894DEBF0FBECDBFDF91CF911F910F918D
:1031A000EF90DF90CF90089580916002909161023E
:1031B000009731F04AE050E070E060E00C945BE88A
:1031C00060E070E0CB0108950E94D41897FD0CC018
:1031D0000E94D4186F3F71058105910509F034F400
:1031E0000E94D418862F089580E008958FEF0895E7
:1031F0008091600290916102892B41F00E94E41855
:1032000091E0811101C090E0892F089591E0FCCFF9
:103210008091600290916102009731F04AE050E0A5
:1032200070E060E00C9489E960E070E0CB01089503
:103230008F929F92AF92BF92CF92DF92EF92FF92C6
:103240000F93CF93DF931F92CDB7DEB76C017B0155
:1032500049018091E7035B01A40EB51E8823A1F00C
:10326000F60180819181480F591F518340830F904F
:10327000DF91CF910F91FF90EF90DF90CF90BF90B3
:10328000AF909F908F900895F601808191810E9468
:1032900016EF89839091E803992311F0002311F030
:1032A000F7018083BE016F5F7F4FC4010E9470BC35
:1032B000F60180819181019691838083FFEFEF1A5F
:1032C000FF0AEA14FB0401F7D2CFFC0120E03EE242
:1032D000DB014D91BD01403249F0283011F43083BB
:1032E0003196DB0111974C91408331962F5F2B3043
:1032F00079F71082089561E0FC0180810C9482BE10
:103300008EBD0DB407FEFDCF08958FEF8EBD0DB4B9
:1033100007FEFDCF8EB508958F929F92AF92BF9218
:10332000EF92FF920F931F93CF937C01C62F490119
:103330005A01FC019281892F806A86958CBD90FD8F
:1033400003C081E0963009F480E08DBD60E0F701B4
:1033500080810E9482BE8CE291E00E94E2BF8C2FAD
:1033600080640E94801908E110E0D501C401002E9C
:1033700004C0B695A795979587950A94D2F70E94B1
:10338000801908501109083FFFEF1F0771F785E901
:10339000CC2321F087E8C83009F08FEF0E94801914
:1033A000CC3011F40E948519C0E00E948519F70104
:1033B000838387FF04C0CF3F11F0CF5FF6CFCF915B
:1033C0001F910F91FF90EF90BF90AF909F908F90C3
:1033D00008950F931F93CF93DF93EC0189018C81A4
:1033E000833039F089E0440F551F661F771F8A9597
:1033F000D1F79A01AB0168E1CE010E948C198823B4
:1034000019F086E089833AC08EEF8EBDF801C801BD
:103410009E5F0DB407FEFDCF20812EBD0DB407FECB
:10342000FDCF21812EBD3296E817F90791F70DB433
:1034300007FEFDCF8FEF0E9480198FEF0E94801949
:103440000E9485198B838F71853099F488E592E00D
:103450000E94E2BF182F87E11123A1F220E030E0A3
:10346000A9016DE0CE010E948C19882361F086E1EC
:10347000C9CF83E18983CE010E947B19CE010E94CE
:103480007B1910E007C00E9485198111F0CFCE0191
:103490000E947B19812FDF91CF911F910F91089589
:1034A000CF938091F10EC1E08823A1F04091E90E05
:1034B0005091EA0E6091EB0E7091EC0E29EE3CE01B
:1034C0008091F20E9091F30E0E94E919C82F81119C
:1034D00004C0C0E08C2FCF9108954091ED0E509123
:1034E000EE0E6091EF0E7091F00E411551056105E1
:1034F000710591F029EE3CE08091F20E9091F30E6F
:103500000E94E919882329F31092ED0E1092EE0E15
:103510001092EF0E1092F00E1092F10EDBCFEF92A0
:10352000FF920F931F93CF93DF93EC0179018C816E
:10353000833039F089E0440F551F661F771F8A9545
:10354000D1F79A01AB0161E1CE010E948C19882369
:1035500039F084E08983CE010E947B1980E03BC072
:103560000E948CBF8B010E9485198B838F3F81F451
:103570000E948CBF601B710B6D327140A0F381E122
:103580008983CE010E947B198FEF0E948019E6CFBC
:103590008E3F11F08FE0F4CF8FEF8EBDF701D70192
:1035A000A150BE4F0DB407FEFDCF9EB591938EBDC9
:1035B000AE17BF07B9F70DB407FEFDCF8EB58C93DC
:1035C0000E9485190E948519CE010E947B198FEFF8
:1035D0000E94801981E0DF91CF911F910F91FF90A0
:1035E000EF900895CF92DF92EF92FF92CF936B010D
:1035F0007C01C42F8091E90E9091EA0EA091EB0E10
:10360000B091EC0E8C159D05AE05BF0501F10E9431
:10361000501A811108C0C0E08C2FCF91FF90EF901D
:10362000DF90CF90089529EE3CE0B701A60180918C
:10363000F20E9091F30E0E948F1A882361F3C092CC
:10364000E90ED092EA0EE092EB0EF092EC0ECC2353
:1036500021F081E08093F10EDFCFC1E0DDCF4F920A
:103660005F926F927F928F929F92AF92BF92CF9212
:10367000DF92EF92FF920F931F93CF93DF93EC01B2
:10368000423051056105710590F480E0DF91CF91E2
:103690001F910F91FF90EF90DF90CF90BF90AF9070
:1036A0009F908F907F906F905F904F900895898545
:1036B0009A85AB85BC850196A11DB11D8417950720
:1036C000A607B70710F38F898031C9F5852E962E8E
:1036D000A72EBB248B899C89AD89BE89880E991E33
:1036E000AA1EBB1E280139016A017B0141E0C50108
:1036F000B4010E94F21A882341F29F89903181F52A
:10370000DD24EE24FF24F601EE0FFF1FE751F34FF7
:10371000118300839A89923008F4B8CF4D815E817D
:103720006F817885840E951EA61EB71E8092ED0EC1
:103730009092EE0EA092EF0EB092F00EA7CF8032D4
:1037400009F0A3CF8B899C89AD89BE894A015B01B1
:10375000E7E0B694A79497948794EA95D1F7BECF03
:10376000E894C7F8DD24EE24FF24F601EE0FFF1FD6
:10377000EE0FFF1FE751F34F408251826282738246
:10378000C9CFCF92DF92EF92FF920F931F93CF9307
:10379000DF93FC0181859285A385B4850196A11DE7
:1037A000B11D84179507A607B70750F480E0DF9195
:1037B000CF911F910F91FF90EF90DF90CF900895E0
:1037C00087898031A9F5BB27A72F962F852FC3881E
:1037D000D488E588F6888C0D9D1DAE1DBF1DE901BE
:1037E0006A017B018F014091E90E5091EA0E6091D0
:1037F000EB0E7091EC0E84179507A607B70749F5F5
:10380000F8018789803169F5B701A6015527662738
:103810007727440F551F4751534FFA0180819181FB
:10382000B0E0A0E088839983AA83BB8381E0BFCF07
:10383000803209F0BBCFC388D488E588F688DB01E5
:10384000CA01C7E0B695A79597958795CA95D1F710
:10385000C2CF40E0BC01CD010E94F21A8111D0CF4D
:10386000A5CFB701A6014F77552766277727440FC5
:10387000551F440F551F4751534FFA0180819181C5
:10388000A281B381BF70CECF4F925F926F927F9231
:10389000AF92BF92CF92DF92EF92FF920F931F935E
:1038A000CF93DF9300D000D0CDB7DEB78C01498332
:1038B0005A836B837C835901C12CD12C7601412C16
:1038C00082E0582E612C712C49815A816B817C8158
:1038D0009E012F5F3F4FC8010E94C11B882319F131
:1038E000F8018585A301920104C0220F331F441FF4
:1038F000551F8A95D2F7DA01C901C80ED91EEA1EF2
:10390000FB1E49815A816B817C8187898031F1F46A
:1039100081E0483F5F4F61057105B0F2F501C0825B
:10392000D182E282F3820F900F900F900F90DF917F
:10393000CF911F910F91FF90EF90DF90CF90BF90AC
:10394000AF907F906F905F904F90089581E0483FD7
:103950005F4F6F4F7F4008F4B7CFE0CF0F931F93B7
:10396000CF93DF93FC012381222331F080E0DF91AC
:10397000CF911F910F9108958B01EC01FB01878975
:10398000803139F582E08B831D8A1E8A1F8A188E4A
:10399000808D918DB0E0A0E025E0880F991FAA1FCF
:1039A000BB1F2A95D1F7898B9A8BAB8BBC8B1A8F57
:1039B000098F81E08983188619861A861B861C82E6
:1039C0001D821E821F82188A1C861D861E861F86E7
:1039D000CECF803259F683E08B83428D538D648D38
:1039E000758D4D8B5E8B6F8B788F9E012F5E3F4F59
:1039F000C8010E94441C8111DACFB8CF8F929F92E8
:103A0000AF92BF92CF92DF92EF92FF920F931F93EC
:103A1000CF93DF93EC018B8181110EC080E0DF91A9
:103A2000CF911F910F91FF90EF90DF90CF90BF90BB
:103A3000AF909F908F90089509891A892B893C89AE
:103A4000041715072607370748F34A015B01823040
:103A500031F488869986AA86BB8681E0E0CF8114FE
:103A60009104A104B10449F4188619861A861B86AC
:103A70001C821D821E821F82F0CF088519852A852F
:103A80003B85E98DFA8D858590E00996B901A801FD
:103A90004150510961097109082E04C07695679556
:103AA000579547950A94D2F775016401E1E0CE1A63
:103AB000D108E108F10804C0F694E794D794C794BC
:103AC0008A95D2F7C416D506E606F70620F0012B34
:103AD000022B032B11F58D899E89AF89B88D8C83BC
:103AE0009D83AE83BF838E010C5F1F4FC114D10431
:103AF000E104F10409F4ADCF4C815D816E817F81D9
:103B00009801898D9A8D0E94C11B91E0C91AD10834
:103B1000E108F1088111EACF81CFC41AD50AE60A7B
:103B2000F70AE1CF40E050E0BA010C94FE1C3F924E
:103B30004F925F926F927F928F929F92AF92BF92BD
:103B4000CF92DF92EF92FF920F931F93CF93DF9369
:103B5000CDB7DEB72C970FB6F894DEBF0FBECDBF42
:103B60005C01DC0159968D909C90F40181859285D1
:103B7000A385B4859C01AD012F5F3F4F4F4F5F4F31
:103B800029873A874B875C87D50114964D905D90C5
:103B90006D907C901797411451046104710409F4ED
:103BA00059C0BFEF4B1A5B0A6B0A7B0A312C7301B9
:103BB00062011D821E821F821886F4018185928512
:103BC000A385B4852D813E814F81588528173907FB
:103BD0004A075B0708F056C089859A85AB85BC8586
:103BE0008C159D05AE05BF0550F482E0C82ED12C82
:103BF000E12CF12C92E0492E512C612C712C9E016C
:103C00002F5F3F4FB701A601C4010E94C11B88234B
:103C1000C9F189819A81AB81BC81892B8A2B8B2B3D
:103C200001F1260137019FEF491A590A690A790AF9
:103C30002D813E814F8158852F5F3F4F4F4F5F4F02
:103C40002D833E834F8358873FEFC31AD30AE30A7D
:103C5000F30AB3CF40805180628073803324339461
:103C6000A6CFC414D504E604F70411F70FEF1FEF35
:103C70002FEF3FE0B701A601C4010E942F1B782E51
:103C800081111AC0712C872D2C960FB6F894DEBFC7
:103C90000FBECDBFDF91CF911F910F91FF90EF909D
:103CA000DF90CF90BF90AF909F908F907F906F905C
:103CB0005F904F903F900895F50144815581668152
:103CC0007781411551056105710539F0970186012C
:103CD000C4010E942F1B8823A9F2D5011496CD920E
:103CE000DD92ED92FC921797332051F0D701C60177
:103CF0000196A11DB11DF40180839183A283B3833A
:103D0000F50185899689A789B08D892B8A2B8B2B04
:103D100009F0B9CFC58AD68AE78AF08E818180689A
:103D20008183B1CFCF93DF93EC01462F41706C8537
:103D30007D858E859F850E94F21A882351F088899F
:103D400020E2829FC00111248751934FDF91CF91D0
:103D5000089590E080E0FACFCF93DF93EC018B8160
:103D6000882349F1898187FF22C061E0CE010E944A
:103D7000921EFC01892BF9F08081853EE1F08B8158
:103D8000823040F489899A89AB89BC89848F958F68
:103D9000A68FB78F8D899E89938F828F8D899E89FB
:103DA000AF89B88DB58BA48B89818F778983DF919B
:103DB000CF910C94501A81E0888380E0DF91CF91FD
:103DC00008952F923F924F925F926F927F928F92BF
:103DD0009F92AF92BF92CF92DF92EF92FF920F939A
:103DE0001F93CF93DF9300D000D0CDB7DEB78C0107
:103DF0004B011A01DC0113968C911397813009F065
:103E0000CAC011968C9181FFC6C082FDB0C061010D
:103E1000D80118964D915D916D917C911B97C114BD
:103E2000D10409F41AC159968D919C915A97FC01BD
:103E300074802FEF270D2A013B0139E076946794B7
:103E4000579447943A95D1F7722E74207A01F1E095
:103E5000FF22711020C0E114F104E9F414964D9191
:103E60005D916D917C911797411551056105710523
:103E700009F097C055968D919D910D90BC91A02D04
:103E80000097A105B10509F0A5C0C8010E94971DC2
:103E9000882309F480C080E092E08E199F095601C2
:103EA0008C159D0508F45C01D80159964D915C91E3
:103EB0005A9714968D919D910D90BC91A02D0297CB
:103EC000A109B109FA01258504C0880F991FAA1F0D
:103ED000BB1F2A95D2F74685578560897189840F63
:103EE000951FA61FB71F9C01AD01270D311D411D58
:103EF000511D29013A01A11432E0B30609F078C03E
:103F00008091E90E9091EA0EA091EB0EB091EC0E2B
:103F1000481659066A067B0669F41092F10E8FEF77
:103F20009FEFDC018093E90E9093EA0EA093EB0ED5
:103F3000B093EC0E9401B301A2018091F20E909126
:103F4000F30E0E94E919882331F1F80180859185EB
:103F5000A285B3858A0D9B1DA11DB11D8087918708
:103F6000A287B3878A0C9B1CCA18DB0851CFF801C3
:103F7000418952896389748980859185A285B38539
:103F8000481759076A077B0709F441CFC8010E9407
:103F9000FE1C81113CCF81E0D8018C938FEF9FEF05
:103FA00072C09E012F5F3F4F0E94C11B882399F36F
:103FB00089819A81AB81BC81F801218D328DF90113
:103FC0002789203169F4883FFFEF9F07A105B105DC
:103FD00008F05BCFF80184839583A683B7835BCF1A
:103FE000883F2FEF9207A2072FE0B20798F34DCF3B
:103FF000E114F10451F5D80118964D915D916D9140
:104000007C911B9751968D919D910D90BC91A02D07
:10401000481759076A077B07C0F00E94501A882387
:1040200009F4B9CF81E08093F10E4092E90E5092ED
:10403000EA0E6092EB0E7092EC0EA501B401C7017E
:104040008751934F0E947AF280CF41E0C301B201C1
:104050000E94F21A8111F1CF9ECFF80181899289D5
:10406000A389B48984179507A607B70738F4818117
:10407000418B528B638B748B80688183F8018181C3
:1040800083FD18C0C1010F900F900F900F90DF912A
:10409000CF911F910F91FF90EF90DF90CF90BF9045
:1040A000AF909F908F907F906F905F904F903F90D8
:1040B0002F900895C8010E94AC1E8111E3CF6BCFF1
:1040C000CF93DF931F92CDB7DEB7698341E050E015
:1040D000BE016F5F7F4F04960E94E11E0F90DF913B
:1040E000CF910895CF93DF93EC010E94AC1E1B8209
:1040F000DF91CF910895FC01238121110C9472204E
:104100000895CF93DF93EB01FC012381211104C0BB
:1041100080E0DF91CF9108952250223028F48FE281
:104120008883198281E0F5CF60E00E94921E00979B
:1041300079F3DC0160E080E09EE22D91203299F07D
:10414000883031F49E01260F311DF90190836F5F95
:104150009E01260F311DAD0141505109FA014081E8
:10416000F90140836F5F8F5F8B3039F7FE01E60FF7
:10417000F11D1082D7CF0F931F93CF93DF938B0145
:10418000EA01DB016D917C9104960E948120D801A7
:10419000ED91FC91119788819081992349F08D3898
:1041A000A0F43196ED93FC9388818F5F8883EFCFE5
:1041B0008D3858F48FE28083F801808191810196D7
:1041C0009183808388818F5F8883DF91CF911F9156
:1041D0000F9108952F923F924F925F926F927F922C
:1041E0008F929F92AF92BF92CF92DF92EF92FF9207
:1041F0000F931F93CF93DF9300D000D0CDB7DEB7DE
:104200009C838B834B017A01DC0113968C91811185
:1042100019C08FEF9FEF0F900F900F900F90DF91CD
:10422000CF911F910F91FF90EF90DF90CF90BF90B3
:10423000AF909F908F907F906F905F904F903F9046
:104240002F900895EB81FC81818180FFE2CF01896D
:104250001289238934894085518562857385C70118
:10426000B0E0A0E028013901441A550A660A770A2D
:10427000481659066A067B0618F47801E41AF50A0E
:1042800067018B819C8104969A838983612C32E03B
:10429000732EC114D10409F4B7C0AB81BC81189648
:1042A0004D915D916D917C911B975A01B1E0BB22BC
:1042B000EB81FC81818D928D1A012B0129E05694AE
:1042C0004794379427942A95D1F72381223091F58A
:1042D000DC015A966D917D918D919C915D97620D57
:1042E000731D841D951D83010A191B09C016D10673
:1042F00008F486010115B2E01B0771F42091E90E64
:104300003091EA0E4091EB0E5091EC0E621773075C
:104310008407950709F059C040E00E94F21A8823EB
:1043200009F477CFB5016751734FA801C4010E940A
:104330007AF257C0FC01148111501221A114B1046A
:1043400081F411110EC0452B462B472B79F5EB81DB
:10435000FC8185899689A789B08D84839583A683FE
:10436000B783AB81BC815996ED91FC915A97149615
:104370006D917D918D919C91179762507109810982
:104380009109258504C0660F771F881F991F2A95FC
:10439000D2F72685378540895189620F731F841FA4
:1043A000951F610F711D811D911D9DCFAB81BC813A
:1043B00014964D915D916D917C91179729813A8169
:1043C0000E94C11B8111CDCF24CF9401AB01BC0150
:1043D0008091F20E9091F30E0E948F1A882309F4B7
:1043E00018CF800E911EEB81FC8180859185A2857E
:1043F000B385800F911FA11DB11D80879187A28772
:10440000B387C01AD10A45CFC70105CFDF92EF921B
:10441000FF920F931F93CF93DF938C01EB017A01EF
:104420008DE0D82E40E250E0BE01C8010E94EA2093
:104430008032910571F021E0892B09F420E0822F70
:104440008195DF91CF911F910F91FF90EF90DF90B9
:10445000089528812223F1F1253E11F02E3231F406
:10446000E114F104F9F2F7011082DCCFE114F10458
:1044700039F13B853F733F3019F54A8D5B8D452BF4
:10448000F9F42F713FEF320F3530D0F42150330B58
:10449000D29EC001D39E900D1124D701A80FB91F41
:1044A000FE0120E0AD01253078F431813D932F5F8E
:1044B00032962D30C1F7288126FF02C0FA011586F9
:1044C0002B8523FDAFCFBDCF2B3010F43481EECF41
:1044D0003681ECCF80E0B5CF4F925F926F927F92A2
:1044E000AF92BF92CF92DF92EF92FF920F931F9302
:1044F000CF93DF931F92CDB7DEB78C017B015A01BA
:10450000C22EDB0159968D919C91F801928F818F7B
:10451000CB010E94921D712CF70180859185A285A7
:10452000B385418952896389748984179507A607E1
:10453000B70708F052C055E0B695A79597958795AF
:104540005A95D1F7F82FFF70DF2ED70113968C9173
:10455000823010F480E0DBC041E050E0BE016F5FCC
:104560007F4FC7010E94EA200197A1F7F7018085DC
:104570009185A285B3854F96A11DB11D8087918736
:10458000A287B387F0E2DF9EB00111246751734F19
:1045900061157105F9F2DB018C91882341F0853EAC
:1045A00009F04CC0772029F077247394B5CF7110AF
:1045B0000EC08091E90E9091EA0EA091EB0EB091A1
:1045C000EC0EF80184879587A687B787D08ADB0130
:1045D0008C918111E9CF772473948C2D827482346D
:1045E00009F0B8CF772009F4A2C0F801D08861E0C3
:1045F000C8010E94921E009709F4ACCF20E2DC01B2
:104600001D922A95E9F72BE0F501DC0101900D924E
:104610002A95E1F721E238E2FC01318B208B40E062
:1046200058E057874687338B228B318F208F578BEB
:10463000468B0E94501A811109C08CCF4BE050E08C
:10464000C5010E946DF2892B09F066CFF0E2DF9E72
:10465000D00111249D012751334FF90183858171C8
:1046600021F08C2D827109F0FCC0F801818D928DB2
:104670004091E90E5091EA0E6091EB0E7091EC0EB4
:104680004487558766877787D08AFD01E751F34FC6
:1046900044885588712C612C320155244424D8015A
:1046A00055964D925D926D927C925897428D538DA6
:1046B00070E060E0442955296629772955964D9385
:1046C0005D936D937C935897D9011B962C9128711B
:1046D00009F0B9C0848D958DA68DB78DF801818BB9
:1046E000928BA38BB48B81E083838C2D8F70F80128
:1046F0008183148215821682178210861186128693
:10470000138681E0C4FE03C0C8010E946ABA0F90FC
:10471000DF91CF911F910F91FF90EF90DF90CF909D
:10472000BF90AF907F906F905F904F900895D701AA
:1047300013968C911397823009F40CCF51968D917A
:104740009D910D90BC91A02D803E9F4FAF41B10532
:1047500008F000CFC7010E94971D882309F4FACE04
:104760000E94501A882309F4F5CED7015996ED918D
:10477000FC915A9714964D905D906D907C90179790
:10478000B2E04B1A510861087108858504C0440CD9
:10479000551C661C771C8A95D2F786859785A0895B
:1047A000B189480E591E6A1E7B1E81E08093F10E6E
:1047B0004092E90E5092EA0E6092EB0E7092EC0E6F
:1047C000E9EEFCE080E092E0DF019C011D922150C7
:1047D0003040E1F7DD24D394D7015996ED91FC9157
:1047E0008481D81698F429EE3CE0B301A2014D0D66
:1047F000511D611D711D8091F20E9091F30E0E946A
:10480000E919882309F4A6CED394E6CF258580E064
:1048100092E0A0E0B0E004C0880F991FAA1FBB1F60
:104820002A95D2F7F7014189528963897489840FE7
:10483000951FA61FB71F818B928BA38BB48B89EE1C
:104840009CE0D12CDBCE203161F498012F5E3F4FEC
:104850000E94441C882329F084E0D80113968C938D
:1048600044CFD80113961C9275CE2F923F924F924F
:104870005F926F927F928F929F92AF92BF92CF92F0
:10488000DF92EF92FF920F931F93CF93DF93CDB7F9
:10489000DEB7C354D1090FB6F894DEBF0FBECDBF4B
:1048A0004C015B016A01222E19821C821C8E1F8E14
:1048B0006115710521F510E0CE014C960E947B2018
:1048C000CE0101960E947B20812FCD5BDF4F0FB67A
:1048D000F894DEBF0FBECDBFDF91CF911F910F9136
:1048E000FF90EF90DF90CF90BF90AF909F908F9010
:1048F0007F906F905F904F903F902F900895FC01B4
:1049000083818111D8CFFA0180818F32A9F18B0187
:10491000CE0101967C013C0180E2382E2E019CE103
:10492000490E511C2396EFAE23972496FFAE249791
:1049300022963FAE229721963FAE21973FAE3EAEE4
:104940003DAE3CAE3BAE3AAE39AE38AE3FAA960174
:1049500090E047E0D9018D91882309F448C08F3257
:1049600009F445C0282F8E3209F54A3009F4A3CF47
:1049700098E04AE09D01EECFFB01838182508B01DC
:10498000823060F0618D728DCE014C960E94AE1C1B
:104990008E01045E1F4F882309F48DCFC6016C0180
:1049A0000196F60120812F32D1F3B2CFE8EFFDE07E
:1049B0003491332321F031968313FACF7CCF4917FA
:1049C00008F479CF813208F476CF8F3709F473CFAA
:1049D0003FE9380F3A3110F420EE280FE7E3F0E01A
:1049E000EC0FFD1FE90FF11D20839F5FC3CF8FA93F
:1049F000803209F460CF6901F90180812F5F3F4F58
:104A00008F32C9F3882301F121E0AE01495C5F4F89
:104A1000B801C7010E946C22882309F44CCF0A1503
:104A20001B0519F0C8010E947220942D852D6E146B
:104A30007F0431F023969FAD239724968FAD249762
:104A40008701E92EF82E74CF222DAE01495C5F4F0D
:104A5000B801C4010E946C22182F2ECF4F925F9292
:104A60006F927F928F929F92AF92BF92CF92DF927E
:104A7000EF92FF92CF934B015C0169017A0120E034
:104A800030E040E352E40E94A0EF2B013C012FE60E
:104A900032E143E85AEB0E9467F187FD50C022E4FF
:104AA00030E04BE653E4C301B2010E9448EB181614
:104AB0000CF445C020E030E040E251E4C701B6010B
:104AC0000E94A0EF2B013C012FE632E143E85AEBB4
:104AD0000E9467F187FD33C022E430E04BE653E4E7
:104AE000C301B2010E9448EB18164CF127EE3BEFD0
:104AF0004FE151E4C501B4010E9467F187FD1FC079
:104B000022E430E04FE353E4C501B4010E9448EBD6
:104B10001816ACF027EE3BEF4FE151E4C701B601A8
:104B20000E9467F187FD0BC0C1E022E430E040E65F
:104B300053E4C701B6010E9448EB18160CF4C0E01C
:104B40008C2FCF91FF90EF90DF90CF90BF90AF90E0
:104B50009F908F907F906F905F904F90089529E283
:104B600032E0FC013183208304960C947B205E9A12
:104B70008091BB0C8E7F8093BB0C5E9A8091BB0CA6
:104B80008D7F8093BB0C159A8091BB0C8B7F80939B
:104B9000BB0C5E9A0895CF93DF9380E00E94E59B63
:104BA000CEEADCE0688379838A839B8381E00E947C
:104BB000E59B6C837D838E839F8382E00E94E59BCF
:104BC000688779878A879B87DF91CF9108954F9275
:104BD0005F926F927F928F929F92AF92BF92CF928D
:104BE000DF92EF92FF920F931F93CF93DF93EC012D
:104BF0006091E3037091E403072E000C880B990B7E
:104C00000E944FEB9B01AC01688179818A819B8175
:104C10000E949FEF6B017C016091E5037091E603B8
:104C2000072E000C880B990B0E944FEB9B01AC01E7
:104C30006C817D818E819F810E949FEF4B015C0181
:104C4000A701960160910A0170910B0180910C01FE
:104C500090910D010E9448EB882309F450C0C09246
:104C60000A01D0920B01E0920C01F0920D0120910B
:104C70009D0330919E0340919F035091A003C70173
:104C8000B6010E94AEEB2B013C010E94D0F06B01FB
:104C90007C0120E030E0A9010E9448EB87FD70C054
:104CA00020E030E040E450E4C701B6010E9467F123
:104CB00018162CF4C12CD12CC0E4EC2EFE2CA7012C
:104CC0009601C301B2010E949FEF60939903709314
:104CD0009A0380939B0390939C03C701B6010E94A3
:104CE0009AF060939803062E000C770B6F5F7F4F4E
:104CF0006430710514F064E070E060939703D09124
:104D0000050110919803A50194016091060170912D
:104D1000070180910801909109010E9448EB8111DF
:104D200033C0D11381C02091790330917A0340912F
:104D30007B0350917C036091990370919A03809159
:104D40009B0390919C030E94AEEB20917D033091D8
:104D50007E0340917F03509180030E94A0EFDF917A
:104D6000CF911F910F91FF90EF90DF90CF90BF9068
:104D7000AF909F908F907F906F905F904F9008952D
:104D8000C12CD12C76019BCF809206019092070115
:104D9000A0920801B09209012091A1033091A203D1
:104DA0004091A3035091A403C501B4010E94AEEB4E
:104DB0004B015C010E94D0F06B017C0120E030E0EF
:104DC000A9010E9448EB87FDEFC020E030E040E4FD
:104DD00050E4C701B6010E9467F118162CF4C12CEB
:104DE000D12CB0E4EB2EFE2CA7019601C501B40135
:104DF0000E949FEF609393037093940380939503B5
:104E000090939603C701B6010E949AF060939203B3
:104E1000062E000C770B6F5F7F4F6430710514F026
:104E200064E070E060939103C0919203D11305C0D8
:104E3000809104018C1709F46CC010930501C09394
:104E400004010C2E000CDD0B25E01203C00111241F
:104E5000FC01EC0FFD1FEE0FFF1FEE0FFF1FEF50C9
:104E6000FC4F208131814281538120938D03309307
:104E70008E0340938F035093900300919103002E73
:104E8000000C110BFC01E00FF11FEE0FFF1FEE0FE6
:104E9000FF1FEF50FC4F60817181828193810E94DE
:104EA0009FEF6093890370938A0380938B039093A1
:104EB0008C032091970335E02303F0011124CE0FDA
:104EC000DF1FCC0FDD1FCC0FDD1FCF50DC4F288143
:104ED00039814A815B812093850330938603409317
:104EE000870350938803E00FF11FEE0FFF1FEE0FB3
:104EF000FF1FEF50FC4F60817181828193810E947E
:104F00009FEF609381037093820380938303909358
:104F100084038090930390909403A0909503B090A5
:104F200096032091890330918A0340918B0350911D
:104F30008C03C501B4010E94AEEB20918D0330912A
:104F40008E0340918F03509190030E94A0EF6B015C
:104F50007C01C0927D03D0927E03E0927F03F092A9
:104F6000800320918103309182034091830350910B
:104F70008403C501B4010E94AEEB209185033091FA
:104F8000860340918703509188030E94A0EFA701F8
:104F900096010E949FEF6093790370937A03809348
:104FA0007B0390937C03BFCEC12CD12C76011CCF08
:104FB0002F923F924F925F926F927F928F929F9229
:104FC000AF92BF92CF92DF92EF92FF920F931F9317
:104FD000CF93DF93CDB7DEB72A970FB6F894DEBF35
:104FE0000FBECDBF2B013C012D833E834F835887DD
:104FF00047015801DA86C986809162019091630168
:10500000A0916401B091650189839A83AB83BC83CD
:10501000D6011C9111960C91119712963C90129703
:1050200013962C9020E030E0A901612F702F832D82
:10503000922D0E9448EB81110AC0E0EBFDE08591C2
:105040009591A591B491182F092F3A2E2B2EA501D9
:1050500094016091D40C7091D50C8091D60C9091F4
:10506000D70C0E9448EB87FF16C0812F902FA32DED
:10507000B22D8093620190936301A0936401B09379
:1050800065018092D40C9092D50CA092D60CB0926F
:10509000D70C0E947D18E985FA85C080D180E28016
:1050A000F38020E030E0A901C701B6010E9448EB7F
:1050B000811108C0C0905E01D0905F01E090600156
:1050C000F0906101C0926201D0926301E0926401AC
:1050D000F09265014092CC0C5092CD0C6092CE0CB7
:1050E0007092CF0C8D819E81AF81B8858093D00C5A
:1050F0009093D10CA093D20CB093D30C0E947D1846
:10510000A50194016091D40C7091D50C8091D60CBE
:105110009091D70C0E9467F11816B4F4812F902F4C
:10512000A32DB22D8093620190936301A09364013B
:10513000B09365018092D40C9092D50CA092D60CBD
:10514000B092D70C0E947D180E94FB9A89819A81A7
:10515000AB81BC818093620190936301A093640151
:10516000B09365012A960FB6F894DEBF0FBECDBF8F
:10517000DF91CF911F910F91FF90EF90DF90CF9033
:10518000BF90AF909F908F907F906F905F904F9067
:105190003F902F900895CF92DF92EF92FF920F935E
:1051A0001F936A01E090D40CF090D50C0091D60CBE
:1051B0001091D70CFB012081318142815381FC0188
:1051C00060817181828193810E94D8271F910F9104
:1051D000FF90EF90DF90CF900895CF92DF92EF9203
:1051E000FF920F931F936B01FC01E080F18002811D
:1051F0001381ECECFCE0248135814681578160818C
:105200007181828193810E94D8271F910F91FF9015
:10521000EF90DF90CF900895BF92CF92DF92EF9200
:10522000FF920F931F93CF93DF93CDB7DEB72897ED
:105230000FB6F894DEBF0FBECDBF9091030B981749
:1052400009F47BC0B82E882309F454C080E090E0B4
:10525000A0EAB0E48D839E83AF83B887C090C80C6A
:10526000D090C90CE090CA0CF090CB0C20E030E05C
:10527000A901C701B6010E9448EB87FF0CC0A70136
:10528000960160E070E080EA90E40E949FEF6D83F9
:105290007E838F83988720E030E04AE753E46D8176
:1052A0007E818F8198850E9467F1181644F480E012
:1052B00090E0AAE7B3E48D839E83AF83B8872D8106
:1052C0003E814F8158856091D40C7091D50C8091AE
:1052D000D60C9091D70C0E9448EB87FF0BC0198227
:1052E0001A821B821C82BE016F5F7F4FCE01059622
:1052F0000E94ED286091CC0C7091CD0C8091CE0C69
:105300009091CF0C2091D00C3091D10C4091D20CC7
:105310005091D30C19821A821B821C82E090D40C0B
:10532000F090D50C0091D60C1091D70CFE0131965F
:105330006F010E94D827B092030B80E028960FB629
:10534000F894DEBF0FBECDBFDF91CF911F910F91BB
:10535000FF90EF90DF90CF90BF9008950F931F9331
:10536000CF93DF93CDB7DEB72C970FB6F894DEBF9F
:105370000FBECDBFECECFCE080859185A285B385A6
:105380004481558166817781008111812281338139
:1053900009831A832B833C834D835E836F837887D5
:1053A00089879A87AB87BC87AE01475F5F4FBE0195
:1053B0006B5F7F4FCE0101960E94869C28ED3CE0FA
:1053C000AE01475F5F4FBE016B5F7F4FCE0101961D
:1053D0000E940B9B2C960FB6F894DEBF0FBECDBF7C
:1053E000DF91CF911F910F910895CF9380916F001E
:1053F000C82FC27081FF05C080916F008D7F8093A0
:105400006F008091900F80938F0F80938E0F809309
:105410008D0F84E680938C0F0E94679D88EE93E049
:105420009093A2098093A109CC2329F080916F0069
:10543000826080936F0081E080938F090E94FB9AC5
:105440000E94CB258EEA9CE00E94509C8CE0EEEA04
:10545000FCE0ACECBCE001900D928A95E1F7CF91B5
:105460000C94AE293F924F925F926F927F928F92EF
:105470009F92AF92BF92CF92DF92EF92FF920F93E3
:105480001F93CF93DF93CDB7DEB764970FB6F89431
:10549000DEBF0FBECDBF2A013B01C02E312ED22E62
:1054A000F32E082F10E0F801EB50F24FE491AA24FC
:1054B000A3941E160CF4A12CBB24B39420E030E07E
:1054C000A901C301B2010E9467F118160CF0B12CBA
:1054D000000F111F000F111FC8018453934F4C017F
:1054E000FC0110821182128213820E94AE29F40103
:1054F0004082518262827382E090E60A20E030E0CE
:10550000A9016C2D732D8D2D9F2D0E9448EB8111CB
:105510000BC0F801E855F24F85919591A591B49192
:10552000C82E392EDA2EFB2E8C2D932DAD2DBF2DAE
:10553000898B9A8BAB8BBC8B8091D40C9091D50CC2
:10554000A091D60CB091D70C4091D00C5091D10CB9
:105550006091D20C7091D30C0091CC0C1091CD0CB9
:105560002091CE0C3091CF0C09831A832B833C837E
:105570004D835E836F83788789879A87AB87BC87E3
:105580001D861E861F86188AAE01475F5F4FBE01CB
:105590006B5F7F4FCE0101960E94869CCE010D96D7
:1055A0006C018E010F5E1F4F28ED3CE0AE01475F9E
:1055B0005F4FBE016B5F7F4F0C970E94BE8D0E94B4
:1055C000FB9AAB100E949EA464960FB6F894DEBFBF
:1055D0000FBECDBFDF91CF911F910F91FF90EF9044
:1055E000DF90CF90BF90AF909F908F907F906F9003
:1055F0005F904F903F9008951F93CF93DF93CDB767
:10560000DEB72C970FB6F894DEBF0FBECDBF882350
:1056100031F02091ED033091EE03232B81F1909135
:10562000E40C981761F1182F0E94FB9A8CE0EBE6CE
:10563000F1E0DE01119601900D928A95E1F7CE011D
:1056400001960E94E7251093E40C111122C00E94DC
:10565000CB258EEA9CE00E94509C8091B60C9091E4
:10566000B70CA091B80CB091B90C8093D40C909366
:10567000D50CA093D60CB093D70C0E94AE292C96D3
:105680000FB6F894DEBF0FBECDBFDF91CF911F9153
:1056900008958CEC9CE00E94509CEFCF80E00E942B
:1056A000FC2A1092F0031092EF031092EE03109276
:1056B000ED031092E6031092E5031092E4031092BA
:1056C000E303E1EFF3E025E534E080E090E0A0ECD7
:1056D000BFE780839183A283B38384839583A6836A
:1056E000B78380879187A287B38784879587A687AA
:1056F000B787808B918BA28BB38B74962E173F0745
:1057000041F708950F931F93CF938091600290917A
:1057100061020097E9F0FC018F01C1912C2F2F7DD0
:1057200081F0C53411F0C536B9F7F801108270E088
:1057300060E00E94FDE6F801C083CF911F910F91B8
:10574000089570E060E0CF911F910F910C94FDE6F9
:1057500060E070E0CB01F1CF2FEB280F2A3108F089
:1057600042C0E22FF0E08091EE029091EF02A09112
:10577000F002B091F10204C0B695A7959795879570
:105780002A95D2F780FD02C081700895EC52FD4F3A
:10579000E081EE2329F18091AC0C9091AD0CE80FE3
:1057A000F92FF11D808190ED980F9A3030F08E32F4
:1057B00051F4818180538A3098F4F0936102E09330
:1057C000600281E008958D3211F08B3249F48181BD
:1057D00090ED980F9A3088F38E3211F48281EACFDF
:1057E000F0E0E0E0EACF80E008950E94AC2B88234F
:1057F00041F081E02091600230916102232B09F495
:1058000080E00895CF92DF92EF92FF920F931F9363
:10581000CF93DF9337E7C32E31E0D32E43EDE42E51
:1058200043E0F42E0CEC1CE0D0E0C0E0F6018191E6
:105830006F010E94AC2B882309F458C00E94822B70
:10584000FE01E153FD4F2081211104C02091D302BC
:105850002223E1F1F80120813181428153810E94AC
:10586000A0EFF70160837183828393832196F4E034
:10587000EF0EF11C0C5F1F4FC430D105B9F686E462
:105880000E94F52B8823C9F00E94822B20E030E093
:10589000A9010E9467F1181684F40E94822B20E06F
:1058A00030E040E752E40E9428F060936201709378
:1058B00063018093640190936501DF91CF911F9103
:1058C0000F91FF90EF90DF90CF900895C33049F291
:1058D000FE01EE0FFF1FEE0FFF1FE454F34F208178
:1058E0003181428153810E949FEFBBCFF8018081BB
:1058F0009181A281B381F70180839183A283B383D5
:10590000B5CF8F929F92AF92BF92CF92DF92EF92DC
:10591000FF92CF93DF93EC018090E50C9090E60C22
:10592000A090E70CB090E80C20E030E0A901C501A0
:10593000B4010E9448EB882309F454C0C880D98080
:10594000EA80FB80A7019601C501B4010E9448EBE3
:1059500018160CF04CC02091DC0C3091DD0C4091FD
:10596000DE0C5091DF0CC701B6010E9448EB882382
:1059700031F1C092DC0CD092DD0CE092DE0CF092A2
:10598000DF0C2091E00C3091E10C4091E20C509141
:10599000E30C688179818A819B810E94AEEB9B0137
:1059A000AC0160E070E080E89FE30E949FEF6093AD
:1059B00000017093010180930201909303016091B3
:1059C0000001709101018091020190910301DF912A
:1059D000CF91FF90EF90DF90CF90BF90AF909F90CE
:1059E0008F90089560E070E080E89FE3F0CF60E082
:1059F00070E0CB01ECCF9091C00095FFFCCF80937D
:105A0000C60008957F928F929F92AF92BF92CF92DD
:105A1000DF92EF92FF920F931F93CF93DF931F922A
:105A2000CDB7DEB7E091E703E11133C059018C0136
:105A30007B016B01C40ED51EEC14FD0489F1F80145
:105A400080809180F70171907F017982C4010E946A
:105A500016EF781609F43AC0672DC4010E941EEFB4
:105A6000C4010E9416EF9981891781F100EB18E2B9
:105A7000F80184910F5F1F4F811121C008E01EE0E3
:105A8000F80184910F5F1F4F8823E1F00E94FB2CE7
:105A9000F7CFFC0120813181420F531F5183408396
:105AA0000F90DF91CF911F910F91FF90EF90DF90BA
:105AB000CF90BF90AF909F908F907F9008950E945D
:105AC000FB2CD6CF81E08093E703EACFBE016F5F66
:105AD0007F4FC5010E9470BCF801808191810196C1
