:100000000C9436170C9460170C9460170C946017BE
:100010000C9460170C9460170C9460170C94601784
:100020000C9460170C948DB00C9460170C946017AE
:100030000C9460170C9418350C9460170C9460178E
:100040000C9460170C9462330C94A1B30C94601759
:100050000C9484940C9460170C9460170C946017A3
:100060000C9460170C9460170C9460170C94601734
:100070000C9460170C9460170C9460170C94601724
:100080000C9460170C9460170C946017084AD73BC7
:100090003BCE016E84BCBFFDC12F3D6C74319ABD57
:1000A00056833DDA3D00C77F11BED9E4BB4C3E917B
:1000B0006BAAAABE000000803F05A84CCDB2D44E6A
:1000C000B93836A9020C50B9918688083CA6AAAA6C
:1000D0002ABE000000803F004E414E494E4954590F
:1000E000494E46CDCCCC3D0AD7233C17B7D1387703
:1000F000CC2B329595E6241FB14F0A000020410019
:1001000000C84200401C4620BCBE4CCA1B0E5AAE62
:10011000C59D74434F4D4D554E49434154494F4E33
:100120000044525952554E004552524F52530049C5
:100130004E464F004543484F00656E7175657565C5
:10014000696E672022004B494C4C45442E200053D9
:10015000544F505045442E20005072696E746572A1
:100160002073746F707065642064756520746F20EF
:100170006572726F72732E204669782074686520EC
:100180006572726F7220616E6420757365204D39DF
:10019000393920746F20726573746172742E20284F
:1001A00054656D7065726174757265206973207233
:1001B000657365742E2053657420697420616674BC
:1001C00065722072657374617274696E67290A00C2
:1001D0004E6F20436865636B73756D207769746833
:1001E000206C696E65206E756D6265722C204C61A5
:1001F0007374204C696E653A20004E6F2043686529
:10020000636B73756D2077697468206C696E652007
:100210006E756D6265722C204C617374204C696E32
:10022000653A2000636865636B73756D206D697353
:100230006D617463682C204C617374204C696E6529
:100240003A20004C696E65204E756D6265722069BA
:1002500073206E6F74204C617374204C696E65203E
:100260004E756D6265722B312C204C617374204C7D
:10027000696E653A20004D313130004D3331005305
:10028000442072656164206572726F720A00446F67
:100290006E65207072696E74696E672066696C6540
:1002A0000A0020496E76616C696420657874727505
:1002B00064657220000000000000000000000000E3
:1002C0000000006B4300006B4300007A4350726FE4
:1002D0007465637465642050696E0A0020573A00A3
:1002E0004520436F6F6C696E672E2E2E00452048A7
:1002F000656174696E672E2E2E0020573A004265A4
:100300006420636F6F6C696E672E2E2E00426564E9
:100310002068656174696E672E2E2E00205A3A009F
:1003200020593A0020436F756E7420583A002045DA
:100330003A00205A3A0020593A00583A003A00430D
:1003400061703A0023646566696E652044454641E4
:10035000554C545F4B64200023646566696E6520CC
:1003600044454641554C545F4B6920002364656603
:10037000696E652044454641554C545F4B702000E2
:10038000504944204175746F74756E652066696EBE
:100390006973686564212050757420746865206CE9
:1003A000617374204B702C204B6920616E64204B6C
:1003B0006420636F6E7374616E74732066726F6D08
:1003C0002062656C6F7720696E746F20436F6E6674
:1003D000696775726174696F6E2E680A00504944CE
:1003E000204175746F74756E65206661696C656413
:1003F000212074696D656F75740A00453120544879
:1004000045524D414C2052554E4157415900546878
:1004100065726D616C2052756E617761790045314E
:100420002048656174696E67206661696C65640067
:1004300048656174696E67206661696C6564005027
:100440004944204175746F74756E65206661696CEE
:100450006564212054656D706572617475726520E4
:10046000746F6F20686967680A00204B643A200047
:10047000204B693A2000204B703A20000A20436C40
:10048000617373696320504944200A002054753A0F
:100490002000204B753A2000206D61783A20002022
:1004A0006D696E3A200020643A2000206269617311
:1004B0003A2000504944204175746F74756E652070
:1004C00073746172740A00504944204175746F74EA
:1004D000756E65206661696C6564212054656D7078
:1004E0006572617475726520746F6F2068696768E2
:1004F0000A00504944204175746F74756E6520661A
:1005000061696C656421204261642065787472754C
:10051000646572206E756D6265720A00486F6D6564
:100520002025732573257320666972737400206615
:10053000697273740A005A0059005800486F6D655B
:1005400020004F666673657473206170706C696516
:1005500064004572723A20546F6F20666172210008
:10056000546F6F206661722066726F6D20726566CF
:100570006572656E636520706F696E740A00207421
:100580006F6F206C6F6E6720657874727573696F1A
:100590006E2070726576656E7465640A0020636F04
:1005A0006C6420657874727573696F6E2070726503
:1005B00076656E7465640A0047322F4733206261A6
:1005C0006420706172616D65746572730A00536CAA
:1005D0006565702E2E2E00436C69636B20746F204E
:1005E000726573756D652E2E2E004E6F206D6F76C1
:1005F000652E00456E642066696C65206C697374B5
:100600000A00426567696E2066696C65206C6973D3
:10061000740A00286E6F2066696C65290043757244
:1006200072656E742066696C653A200053442070D0
:1006300072696E74696E67206279746520004E6F0E
:1006400074205344207072696E74696E670A0044A6
:10065000656C6574696F6E206661696C65642C20D9
:1006600046696C653A200046696C652064656C6576
:100670007465643A002569730025696D20256973E6
:10068000002569682025696D202569730025696446
:10069000202569682025696D202569730025697901
:1006A00020256964202569682025696D20256973E6
:1006B000005072696E742074696D653A20006F662F
:1006C000660034012F0128012101130144454255E0
:1006D000473A004B494C4C45442E20004D313133B4
:1006E0002053006F6B00456E6465722D33204F669A
:1006F000662E002C20002C2000544845524D414CC1
:100700005F50524F54454354494F4E004155544F4A
:100710005245504F52545F53445F535441545553C4
:1007200000454D455247454E43595F504152534550
:100730005200434153455F4C494748545F42524938
:100740004748544E45535300544F47474C455F4C20
:10075000494748545300534F4654574152455F5000
:100760004F574552004255494C445F50455243450E
:100770004E54004C4556454C494E475F4441544108
:10078000005A5F50524F4245004155544F4C455618
:10079000454C005052494E545F4A4F420050524F10
:1007A0004752455353004155544F5245504F5254B0
:1007B0005F54454D5000564F4C554D45545249439A
:1007C00000454550524F4D0053455249414C5F58EA
:1007D0004F4E5F584F4646004649524D574152458D
:1007E0005F4E414D453A4D61726C696E206275678E
:1007F0006669782D312E312E782028476974687506
:10080000622920534F555243455F434F44455F553E
:10081000524C3A68747470733A2F2F676974687514
:10082000622E636F6D2F4D61726C696E4669726DD9
:10083000776172652F4D61726C696E2050524F5412
:100840004F434F4C5F56455253494F4E3A312E302D
:10085000204D414348494E455F545950453A456EF5
:100860006465722D332045585452554445525F43B8
:100870004F554E543A3120555549443A63656465A5
:10088000326132662D343161322D343734382D39AE
:100890006231322D633535633632663336376666FC
:1008A0000A002F2F20004D31343520533C696E64EF
:1008B00065783E206F7574206F662072616E676583
:1008C0002028302D31290A00205400205200416395
:1008D00063656C65726174696F6E3A205000205ACE
:1008E00000205900580020204D61783A2000205AFD
:1008F00000205900580020204D696E3A20004F6EAC
:1009000020004F666600536F667420656E647374D2
:100910006F70733A200020466C6F773A2000000118
:100920000F150E12FFFFFFFF16170E13FFFFFFFF3D
:1009300003021A14FFFFFFFFFFFFFF0C04FFFFFF7E
:1009400001000EFFFFFF0C190DFF18496E76616C58
:1009500069642065787472756465720A0020643A6F
:100960000020693A0020703A0043290A0061626C55
:10097000656420286D696E2074656D702000436F7A
:100980006C6420657874727564657320617265208B
:10099000004E6F2063617365206C696768740A009C
:1009A000454550524F4D204F4B0A004163746976C4
:1009B000652045787472756465723A2000496E76D8
:1009C000616C69642065787472756465720A00529E
:1009D0006573656E643A20006F6B00627573793AD7
:1009E0002070617573656420666F7220696E707522
:1009F000740A00627573793A2070617573656420BA
:100A0000666F7220757365720A00627573793A2099
:100A100070726F63657373696E670A004B494C4C63
:100A200045442E20004B494C4C206361757365642E
:100A300020627920746F6F206D75636820696E6124
:100A400063746976652074696D65202D2063757205
:100A500072656E7420636F6D6D616E643A20005034
:100A60006C65617365207265736574005052494E00
:100A70005445522048414C544544005072696E74AC
:100A800065722068616C7465642E206B696C6C28DB
:100A9000292063616C6C6564210A0000000000007D
:100AA000000000000000000000A0410000A0410084
:100AB000008040000000005761726E696E673A2046
:100AC000486F6D696E672042756D70204469766964
:100AD000736F72203C20310A000202040000A04023
:100AE0000000A0400000004000006B4300006B438A
:100AF00000007A43FFFFFF7C3C3E5E2B3D3F2F5BB7
:100B00005D3B2C2A225C004572726F7220777269FD
:100B100074696E6720746F20454550524F4D210A0D
:100B200000454550524F4D206461746173697A6588
:100B3000206572726F722E0A00290A002062797491
:100B400065733B20637263200053657474696E673C
:100B5000732053746F726564202800290A00206294
:100B6000797465733B2063726320002073746F7225
:100B700065642073657474696E677320726574723E
:100B80006965766564202800202863616C63756C54
:100B90006174656429210A0020213D2000454550EB
:100BA000524F4D20435243206D69736D61746368E9
:100BB000202D202873746F726564292000205369EA
:100BC0007A653A2000496E6465783A2000204D61CC
:100BD000726C696E3D563536290A002845455052DB
:100BE0004F4D3D00454550524F4D2076657273691B
:100BF0006F6E206D69736D61746368200048617267
:100C000064636F6465642044656661756C74205329
:100C1000657474696E6773204C6F616465640A0063
:100C2000F4010000F40100006400000088130000DB
:100C30000000FA430000FA430000A0400000C84151
:100C40000000A0420000A0420000C8430000BA42D9
:100C500020286D6D290020440020490020204D33BC
:100C600030312050005049442073657474696E67B8
:100C7000733A0A0020460020420020480020204D00
:100C80003134352053004D6174657269616C2068A0
:100C9000656174757020706172616D6574657273E1
:100CA0003A0A00205A0020590020204D32303620C8
:100CB0005800486F6D65206F66667365743A0A0068
:100CC000204500205A0020590020580020540020C0
:100CD000530020204D32303520510020453C6D61BD
:100CE000785F655F6A65726B3E0020583C6D617885
:100CF0005F785F6A65726B3E20593C6D61785F7901
:100D00005F6A65726B3E205A3C6D61785F7A5F6AFC
:100D100065726B3E00416476616E6365643A205192
:100D20003C6D696E5F7365676D656E745F74696D48
:100D3000655F75733E20533C6D696E5F66656564E3
:100D4000726174653E20543C6D696E5F74726176A9
:100D5000656C5F66656564726174653E0020540071
:100D600020520020204D3230342050004163636512
:100D70006C65726174696F6E2028756E6974732F6B
:100D80007332293A20503C7072696E745F616363FC
:100D9000656C3E20523C726574726163745F61637E
:100DA00063656C3E20543C74726176656C5F616370
:100DB00063656C3E0A00204500205A00205900203F
:100DC000204D3230312058004D6178696D756D20AD
:100DD000416363656C65726174696F6E2028756E1E
:100DE0006974732F7332293A0A00204500205A0093
:100DF00020590020204D3230332058004D61786951
:100E00006D756D2066656564726174657320287503
:100E10006E6974732F73293A0A00204500205A0026
:100E200020590020204D39322058005374657073CA
:100E30002070657220756E69743A0A0020204D3268
:100E400030302044300A0020204D32303020440021
:100E50002044697361626C65640A0046696C616D67
:100E6000656E742073657474696E67733A00202030
:100E70004D3134392043203B20556E69747320690D
:100E80006E2043656C736975730A00202047323108
:100E9000202020203B00486F6D696E6720666169E5
:100EA0006C656400545249474745524544006F7091
:100EB000656E003A20007A5F6D696E00795F6D693A
:100EC0006E00785F6D696E005265706F7274696E46
:100ED0006720656E6473746F7020737461747573CA
:100EE0000A0024F4D43050C38E20C2A24017828B53
:100EF0007011127A910D816CD90AA861E108C75866
:100F00006607615143061E4B5D05C145A7041A41A2
:100F10001104093D9803713931034036DB02653312
:100F20009102D4305402802E1D02632CEE01752AEA
:100F3000C501B028A001102781018F2564012B2451
:100F40004B01E0223401AC211F018D200D01801FD7
:100F5000FC00841EED00971DDF00B81CD200E61BCC
:100F6000C600201BBC00641AB200B219A8000A19FE
:100F7000A0006A189900D117910040178B00B51690
:100F8000840031167E00B31579003A157300C7143A
:100F90006F0058146A00EE1366008813630025136F
:100FA0005E00C7125B006C12570015125400C1118D
:100FB000510070114F0021114B00D61049008D10C7
:100FC00047004610440002104200C00F4000800F4E
:100FD0003E00420F3C00060F3B00CB0E3800930E44
:100FE00037005C0E3500270E3400F30D3200C10DC2
:100FF0003100900D3000600D2E00320D2D00050DDA
:101000002C00D90C2B00AE0C2900850C29005C0C9F
:101010002700350C27000E0C2600E80B2400C40B1B
:101020002400A00B23007D0B23005A0B2100390B59
:101030002100180B2000F80A1F00D90A1E00BB0A65
:101040001E009D0A1D00800A1D00630A1C00470A3D
:101050001B002C0A1B00110A1A00F7091A00DD09EF
:101060001900C4091900AB091900920917007B097E
:101070001800630917004C091600360916002009EC
:1010800016000A091500F5081500E0081400CC0840
:101090001400B8081400A4081400900813007D0878
:1010A00012006B081300580812004608120034089A
:1010B0001100230811001208110001081100F007A7
:1010C0001000E0071000D0071000C0071000B007A4
:1010D0000F00A107100091070E0083070F0074078F
:1010E0000F0065070E0057070E0049070E003B076B
:1010F0000D002E070E0020070D0013070D00060738
:101100000D00F9060C00ED060D00E0060C00D406FB
:101110000C00C8060C00BC060C00B0060C00A406AF
:101120000B0099060C008D060B0082060B0077065B
:101130000B006C060B0061060A0057060B004C06FC
:101140000A0042060A0038060A002E060A00240693
:101150000A001A060A001006090007060A00FD0523
:101160000900F4050900EB050900E2050900D905AD
:101170000900D0050900C7050900BE050900B5052D
:101180000800AD050800A50509009C0508009405A8
:1011900008008C050800840508007C05080074051B
:1011A00008006C050700650508005D050700560589
:1011B00008004E05070047050700400508003805F0
:1011C0000700310507002A050700230507001C0555
:1011D0000600160507000F050700080506000205B2
:1011E0000700FB040600F5040700EE040600E8040F
:1011F0000600E2040700DB040600D5040600CF0465
:101200000600C9040600C3040600BD040600B704B6
:101210000600B1040500AC040600A6040600A00404
:1012200005009B04060095040500900406008A044E
:10123000050085040500800406007A040500750495
:101240000500700405006B040500660405006104D8
:1012500005005C04050057040500520405004D0418
:10126000050048040500430405003E0404003A0458
:10127000050035040500300404002C040500270493
:101280000400230405001E0404001A0404001604CC
:101290000500110404000D04040009040500040401
:1012A000040000040400FC030400F8030400F40339
:1012B0000400F0030400EC030400E8030400E4036A
:1012C0000400E0030400DC030400D8030400D4039A
:1012D0000400D0030400CC030400C8030300C503CA
:1012E000030024F404D9201BC40C5C0E9804C40928
:1012F0005F0265077101F405F900FB04B3004804BF
:101300008700C10369005803550003034500BE026E
:101310003A008402310053022A0029022500040207
:101320002000E4011C00C8011900AF01170098015A
:1013300014008401130071011000610110005101BB
:101340000E0043010D0036010B002B010B002001A4
:101350000B00150109000C01090003010800FB0046
:101360000800F3000800EB000700E4000600DE00C0
:101370000600D8000600D2000600CC000500C70019
:101380000500C2000500BD000400B9000400B5005E
:101390000400B1000400AD000400A9000400A50091
:1013A0000300A20003009F0004009B0003009800BC
:1013B00003009500020093000300900003008D00DD
:1013C00002008B00030088000200860002008400F7
:1013D0000300810002007F0002007D0002007B000C
:1013E000020079000200770001007600020074001C
:1013F000020072000100710002006F0002006D0027
:1014000001006C0002006A00010069000200670030
:101410000100660001006500010064000200620036
:10142000010061000100600001005F0002005D003A
:1014300001005C0001005B0001005A00010059003E
:10144000010058000100570001005600010055003E
:10145000010054000100530000005300010052003D
:10146000010051000100500001004F0001004E003A
:1014700000004E0001004D0001004C0001004B0037
:1014800000004B0001004A00010049000100480033
:10149000000048000100470001004600000046002F
:1014A0000100450000004500010044000100430028
:1014B0000000430001004200000042000100410022
:1014C000000041000100400001003F0000003F001B
:1014D00001003E0000003E0001003D0000003D0014
:1014E00001003C0000003C0000003C0001003B000B
:1014F00000003B0001003A0000003A000100390002
:1015000000003900010038000000380000003800F9
:1015100001003700000037000100360000003600EF
:1015200000003600010035000000350000003500E5
:1015300001003400000034000000340001003300DA
:1015400000003300000033000100320000003200D0
:1015500000003200010031000000310000003100C5
:1015600001003000000030000000300001002F00BA
:1015700000002F0000002F0000002F0001002E00AF
:1015800000002E0000002E0001002D0000002D00A4
:1015900000002D0000002D0001002C0000002C0098
:1015A00000002C0000002C0001002B0000002B008C
:1015B00000002B0000002B0001002A0000002A0080
:1015C00000002A0000002A00010029000000290074
:1015D0000000290000002900000029000100280067
:1015E000000028000000280000002800000028005B
:1015F000010027000000270000002700000027004E
:101600000000270001002600000026000000260040
:101610000000260000002600010025000000250033
:101620000000250000002500000025000000250026
:101630000100240000002400000024000000240019
:10164000000024000100230000002300000023000C
:1016500000002300000023000000230000002300FE
:1016600001002200000022000000220000002200F1
:1016700000002200000022000100210000002100E3
:1016800000002100000021000000210000002100D6
:1016900000002100010020000000200000002000C8
:1016A00000002000000020000000200000002000BA
:1016B0000000200001001F0000001F0000001F00AC
:1016C00000001F0000001F0000001F0000001F009E
:1016D00001001E0000001E0000001E0000001E0091
:1016E0000000043700001E290000511B00005810A4
:1016F000000010090000CC04000078020000410145
:1017000000006265640A002C2073797374656D2093
:1017100073746F7070656421204865617465725FD1
:1017200049443A20004265642068656174696E67C7
:10173000206661696C65640048656174696E672044
:101740006661696C65640045312048656174696E45
:1017500067206661696C65640048656174696E67DD
:10176000206661696C65640070012C01900127019D
:10177000B0012201C0011D01F00118011002130186
:1017800030020E016002090190020401C002FF0054
:101790000003FA004003F5008003F000D003EB00E3
:1017A0002004E6007004E100E004DC004005D700FE
:1017B000C005D2004006CD00D006C8008007C30097
:1017C0003008BE00F008B900C009B400B00AAF008C
:1017D000B00BAA00D00CA500000EA000500F9B007B
:1017E000C01096005012910000148C00C0158700A4
:1017F000B0178200B0197D00D01B7800001E730066
:1018000040206E0090226900F024640040275F00B1
:1018100090295A00E02B5500102E500020304B002C
:1018200010324600E033410090353C00103737005D
:1018300070383200A0392D00B03A2800A03B2300B8
:10184000603C1E00103D1900903D1400103E0F003A
:10185000703E0A00C03E0500003F0000403FFBFF15
:10186000803FF6FFC03FF1FF453120544845524DBF
:10187000414C2052554E4157415900424544205455
:101880004845524D414C2052554E41574159005404
:101890006865726D616C2052756E61776179004583
:1018A00031204572723A204D415854454D50004503
:1018B00072723A204D415854454D502042454400E3
:1018C0004D415854454D5020747269676765726583
:1018D00064004531204572723A204D494E54454DC1
:1018E00050004572723A204D494E54454D502042A9
:1018F0004544004D494E54454D5020747269676708
:1019000065726564004D383420582059205A2045AE
:1019100000202F002042403A0020403A0025753A2E
:101920002530327500253032753A25303275002564
:10193000756420253032753A25303275002020201C
:10194000202020005A0059002020202000580009A3
:101950002000000000000000000000000000003F28
:10196000FFF0000000000000000000000000003850
:1019700000700000000000000000000000000030C7
:10198000FC3000000000000000000000000000200B
:10199000FC1000000000000000000000000000201B
:1019A000781000000000000000000000000000208F
:1019B0003010000000000000000000000000002CBB
:1019C00000D0F80180000C1FE00000082080002EED
:1019D00031D048008000123FF00000041040002F7A
:1019E0007BD043C38CD0023FF00000041040002F96
:1019F0007BD071249267CC3FF00000082080002E3D
:101A000031D041249E40021FE00000104100002C14
:101A100000D049249040121FE000002082000020E6
:101A20003010FBB3CEE00C3FF0000020820000201D
:101A3000781000000000003FF0000010410000207E
:101A4000FC1000000000003FF00000082080003083
:101A5000FC3000000000000FC00000000000003853
:101A60000070000000000007800000FFFFC0003F82
:101A7000FFF0000000000003000000FFFFC00000B6
:101A80000000000000000000000000000000003F17
:101A9000FFF000000000000000000000000000381F
:101AA0000070000000000000000000000000003393
:101AB0008730000000000000000000000000002748
:101AC0008790000000000000000000000000002FD0
:101AD00087D0000000000000000000000000002F80
:101AE00087D0000000000000000000000000002F70
:101AF00003D0F80180000C1FE000000820800020C7
:101B0000301048008000123FF00000041040002018
:101B1000781043C38CD0023FF00000041040002036
:101B2000781071249267CC3FF000000820800020DC
:101B3000301041249E40021FE00000104100002FA1
:101B400003D049249040121FE00000208200002FA3
:101B500087D0FBB3CEE00C3FF00000208200002FC6
:101B600087D000000000003FF00000104100002777
:101B7000879000000000003FF00000082080003344
:101B8000873000000000000FC00000000000003897
:101B90000070000000000007800000FFFFC0003F51
:101BA000FFF0000000000003000000FFFFC0000085
:101BB0000000456E6465722D332052656164792E94
:101BC000005072696E74696E672E2E2E0050726915
:101BD0006E7420706175736564005072696E742054
:101BE00061626F7274656400496E69742E2053449B
:101BF0002063617264004D3231004E6F20534420E7
:101C000063617264004368616E67652053442063BA
:101C1000617264004D3231005072696E74206672D8
:101C20006F6D2053440053746F70207072696E742E
:101C300000526573756D65207072696E7400416243
:101C40006F7574205072696E74657200506175739F
:101C500065207072696E7400436F6E74726F6C00F1
:101C6000507265706172650054756E6500496E66EC
:101C70006F2073637265656E00426162797374658B
:101C800070205A004261627973746570205A004670
:101C90006C6F7700466C6F770046616E20737065DD
:101CA00065640046616E207370656564004265641A
:101CB00000426564004E6F7A7A6C65004E6F7A7AE6
:101CC0006C65005370656564005370656564004D14
:101CD00061696E005072656865617420504C4120E6
:101CE000456E64005072656865617420504C4120F7
:101CF000426564005072656865617420504C410013
:101D0000507265706172650050726568656174201B
:101D100041425320456E64005072656865617420CD
:101D200041425320426564005072656865617420C9
:101D30004142530050726570617265004D34323813
:101D4000005072656865617420504C4100436F6FAC
:101D50006C646F776E0050726568656174204142F3
:101D6000530044697361626C6520737465707065BB
:101D70007273004D38340053657420686F6D6520B0
:101D80006F666673657473004175746F20686F6D5C
:101D90006500473238004D6F7665206178697300C1
:101DA0004D61696E004D6F76652058004D6F766508
:101DB0002059004D6F7665205A004578747275641D
:101DC0006572004D6F766520302E316D6D004D6F60
:101DD000766520316D6D004D6F76652031306D6D0B
:101DE000004D6F766520617869730045787472756F
:101DF000646572004D6F7665205A004D6F766520E0
:101E000059004D6F76652058004578747275646589
:101E100072004D6F7665205A004D6F76652059002F
:101E20004D6F76652058005072657061726500498B
:101E30006E697469616C697A6520454550524F4DF1
:101E400000436F6E74726F6C00526573746F7265CD
:101E5000206661696C73616665004C6F6164207314
:101E6000657474696E677300496E697469616C6941
:101E70007A6520454550524F4D0053746F7265206E
:101E800073657474696E67730046696C616D656E25
:101E900074004D6F74696F6E0054656D706572618A
:101EA00074757265004D61696E004D333033205595
:101EB00031204525692053256900507265686561A8
:101EC000742041425320636F6E66005072656865EE
:101ED000617420504C4120636F6E6600504944206D
:101EE0004175746F74756E65005049442041757476
:101EF0006F74756E65005049442D44005049442D5F
:101F000044005049442D49005049442D490050494E
:101F1000442D50005049442D500020082046616354
:101F2000740020082046616374002008204D617809
:101F3000002008204D6178002008204D696E0020A7
:101F400008204D696E004F6666004F6E2000417597
:101F5000746F74656D700046616E207370656564A2
:101F60000046616E207370656564004265640042DE
:101F70006564004E6F7A7A6C65004E6F7A7A6C6594
:101F800000436F6E74726F6C0053746F72652073D0
:101F9000657474696E67730042656400426564002D
:101FA0004E6F7A7A6C65004E6F7A7A6C6500466186
:101FB0006E2073706565640046616E2073706565A0
:101FC000640054656D706572617475726500565475
:101FD000726176206D696E005654726176206D696B
:101FE0006E00566D696E00566D696E00566D6178B3
:101FF000204500566D6178204500566D6178205A65
:1020000000566D6178205A00566D6178205900564F
:102010006D6178205900566D6178205800566D61C9
:10202000782058004D6F74696F6E00416D617820A3
:102030004500416D6178204500416D6178205A006E
:10204000416D6178205A00416D6178205900416DE1
:102050006178205900416D6178205800416D6178A8
:10206000205800412D74726176656C00412D7472A8
:102070006176656C00412D72657472616374004114
:102080002D7265747261637400416363656C004115
:102090006363656C004D6F74696F6E0056652D6AE1
:1020A00065726B0056652D6A65726B00567A2D6AF3
:1020B00065726B00567A2D6A65726B0056792D6ACF
:1020C00065726B0056792D6A65726B0056782D6AC1
:1020D00065726B0056782D6A65726B004D6F74697E
:1020E0006F6E004573746570732F6D6D004573746A
:1020F0006570732F6D6D005A73746570732F6D6DFD
:10210000005A73746570732F6D6D00597374657028
:10211000732F6D6D005973746570732F6D6D00585A
:1021200073746570732F6D6D005873746570732FC1
:102130006D6D004D6F74696F6E0053746570732F11
:102140006D6D004A65726B00416363656C65726119
:1021500074696F6E0056656C6F6369747900436FC4
:102160006E74726F6C0046696C2E204469612E009B
:1021700046696C2E204469612E004F6666004F6EE2
:1021800020004520696E206D6D3300436F6E7472C0
:102190006F6C0043616E6E6F7420656E74657220A3
:1021A0007375626469723A2000022E2E0001526536
:1021B0006672657368004D61696E004D61782054E8
:1021C000656D703A20313235004D696E2054656D71
:1021D000703A203500544265643A4550434F5320CD
:1021E0003130304B004D61782054656D703A2032AB
:1021F0003735004D696E2054656D703A20350054B6
:10220000303A204550434F53203130304B0050532B
:10221000553A2047656E657269630050726F746F3E
:10222000636F6C3A20312E3000426175643A203180
:102230003135323030004D656C7A69202843726543
:10224000616C69747929004578747275646572737C
:102250003A203100687474703A2F2F6D61726C6986
:102260006E66772E6F726700456E6465722D33005F
:10227000323031382D30372D333100627567666961
:10228000782D312E312E78004D61726C696E0054BC
:102290006865726D6973746F727300426F61726406
:1022A00020496E666F005072696E74657220496EC7
:1022B000666F004D61696E00000021002400270058
:1022C0002A0000002200250028002B00000020002A
:1022D0002300260029000202020202020202040474
:1022E00004040404040403030303030303030101BC
:1022F00001010101010101020408102040800102D6
:102300000408102040800102040810204080804012
:10231000201008040201000000010200090A000068
:102320000000040308070000000000000000000097
:1023300000000000000002FFFFFFFFEFFFFFFFFFB4
:10234000FFFFFFFFFFFFEFEFFFFFFFFFFFFFFFFFBD
:10235000FFE7DFFFFFFFFFFFFFFFFFFFE7DFFFFFFD
:10236000FFFFFFFFFFFFFFE3DFFFFFFFFFFFFFFFB9
:10237000FFFFF3CFFFFFFFFFFFFFFFFFE1E1CFFF15
:10238000FFFFFFFFFFFE78000003DDFFFFFFFFFE02
:10239000FF807E0001EEFFFFFFFFFE7DCFFC00000F
:1023A000F77FFFFFFFFF8E060000007BBFFFFFFFF0
:1023B000FFC0000000007DDFFFFFFFFFFC01FE000B
:1023C000003EE7FFFFFFFFFFFFFC00031F73FFFF5F
:1023D000FFFFFFFFF800018F81FFFFFFFFFFFFE01E
:1023E000000083F9FFFFFFFFFFFF00FC0000F0FF8C
:1023F000FFFFFFFFE00FFFC00000FFFFFFFFFE0336
:10240000FFFFC00000FFFFFFFFFFFFFFF90000001C
:10241000FFFFFFFFFFFFFFFC0007C0FFFFFFFFFF05
:10242000FFFFFF0007E0FFFFFFFFFFFFFFFFE007E9
:10243000F1FFFFFFFFFFFFFFFFFC07F9FFFFFFFFBB
:10244000FFFFFFFFFF03F9FFFFFFFFFFFFFFFFFF9E
:1024500083F9FFFFFFFFFFFFFFFFFFC3FFFFFFFF4A
:10246000FFFFFFFFFFFFE1FFFFFFFFFFFFFFFFFF9A
:10247000FFF0BFFFFFFFFFFFFFFFFFFBF83FFFFF86
:10248000FFFFFFFFFFFFF9F83FFFFFFFFFFFFFFF29
:10249000FF7EF0FFFFFFFFFFFFFFFFFF8E03FFFF49
:1024A000FFFFFFFFFFFFFFE01FFFFFFFFFFFFFFF3B
:1024B000FFFFFFFFFFFFFFFFFFFFFFFFFFFFFFFF2C
:1024C000FFFFFFFFFFFFFFFFFFFF7FFFFFFFFF009B
:1024D000007FFFFFF87FFFFFFFFF80007FFFFFE02F
:1024E0007FFFFFFFFFC3FCFFFFFFF8FFFFFFFFFFC2
:1024F000C3FCFFFFFFF8FFFFFFFFFF87FDFFFFFFAC
:10250000F1FFFFFFFFFF87FFFFFFFFF1FFFFFFFF6F
:10251000FF0FE7F30FFC23FC3FFFFFFF0FEF8007E8
:10252000F003F01E007FFE1FCF8187C787C70C0016
:102530007FFE001FC7C78FC79F0F0CFFFE001F87BE
:102540008F1F8F1F0F1FFFFC3F9F8F8F1F8E001E3F
:102550003FFFFC7F3F0F1E3F1E3FFE3FFFF87FFF08
:102560001F1C3F1C7FFC7FFFF8FFFF1E1C7E1C7F93
:10257000FC7FFFF0FFCE3E3C7E3C7FB8FFFFF0FFCC
:102580009E3C387C387E78FFFFE1FF3C7C787C788D
:102590003CF1FFFFE1F8387878101801F1FFFF00F7
:1025A0000060203C007C07807FFFFFFFFFFFFE1FD5
:1025B000FE1FFFFFFF1FFFFFFFFFFFFF6000000088
:1025C0000001FF400000000000FF8000000000004C
:1025D0007F83CF00000C303F87FF80000C301F86C8
:1025E0007980000C000F8C30C7838C30E78C30CFA3
:1025F000C7CC31F38C30DCECEC33B98C30D86C6C5C
:1026000033198C30D06C0C33198C30D86C0C3319D6
:102610008C30DC6C0E3B198C30CF7C079F198C30D2
:10262000C77C038F1940000000000002600000001A
:102630000000061FFFFFFFFFFFF82020506C616EB7
:102640006E657242756666657242797465733A208A
:10265000002046726565204D656D6F72793A2000E5
:10266000436F6D70696C65643A204170722031323D
:1026700020323032300A00207C20417574686F723D
:102680003A20287468697369736B65697468622C91
:1026900020456E6465722D33290A00323031382DA1
:1026A00030372D333100204C6173742055706461D4
:1026B0007465643A20006275676669782D312E3141
:1026C0002E780A004D61726C696E0020536F66743B
:1026D000776172652052657365740A0020576174D2
:1026E0006368646F672052657365740A00204272E4
:1026F0006F776E206F75742052657365740A0020C1
:1027000045787465726E616C2052657365740A0059
:10271000506F77657255700A0073746172740A00A5
:102720006175746F25692E67006572726F7220770C
:10273000726974696E6720746F2066696C650A003F
:10274000456E6473746F70732025632025632025A4
:102750006320256300205A3A0020593A0020583A55
:1027600000656E6473746F7073206869743A20003A
:10277000446F6E6520736176696E672066696C656B
:102780002E0A004D3239004D3234004D32332025AF
:102790007300556E6B6E6F776E20636F6D6D616E3B
:1027A000643A20220053442063617264206F6B0AF4
:1027B000006F70656E526F6F74206661696C65643E
:1027C0000A00766F6C756D652E696E69742066619E
:1027D000696C65640A00534420696E6974206661FF
:1027E000696C0A0020746F6F206C6F6E67206578CB
:1027F00074727573696F6E2070726576656E74653C
:10280000640A0020636F6C64206578747275736964
:102810006F6E2070726576656E7465640A0057721B
:102820006974696E6720746F2066696C653A200070
:102830006F70656E206661696C65642C2046696CFA
:10284000653A20006F70656E206661696C65642C66
:102850002046696C653A200046696C652073656C9A
:1028600065637465640A002053697A653A200046FE
:10287000696C65206F70656E65643A20002066693A
:102880006C653A2000646F696E67006672657368F4
:10289000004E6F772000454E4420535542524F550D
:1028A00054494E450A002220706F73002220706147
:1028B00072656E743A2200535542524F5554494E38
:1028C000452043414C4C207461726765743A220084
:1028D0004B494C4C45442E2000747279696E672038
:1028E000746F2063616C6C207375622D67636F6415
:1028F000652066696C6573207769746820746F6FF2
:10290000206D616E79206C6576656C732E204D416B
:1029100058206C6576656C2069733A004572726F59
:10292000723A006F70656E206661696C65642C2078
:1029300046696C653A200043616E6E6F74206F705B
:10294000656E2073756264697220006563686F3A12
:102950000000060900FE0701920321207FFF07FF08
:1029600007FF000000060000010707060200808044
:102970008080800080030202060105A0A0050707F1
:102980000600005050F850F85050050707060000A8
:102990002078A07028F020050707060000C0C810A6
:1029A000204098180507070600006090A040A890F6
:1029B00068020303060104C0408003070706010004
:1029C00020408080804020030707060100804020CF
:1029D0002020408005050506000120A870A82005DC
:1029E00005050600012020F820200203030602FF4F
:1029F000C04080050101060003F802020206020041
:102A0000C0C0050505060001081020408005070725
:102A10000600007088888888887003070706010010
:102A200040C040404040E0050707060000708808AD
:102A3000708080F8050707060000F81020100808CD
:102A4000F005070706000010305090F81010050739
:102A500007060000F880F0080888700507070600E0
:102A600000708080F0888870050707060000F8086D
:102A70001020202020050707060000708888708835
:102A800088700507070600007088887808087002BB
:102A90000505060200C0C000C0C00206060602FF0F
:102AA000C0C000C04080040707060000102040801E
:102AB000402010050303060002F800F8040707068B
:102AC00001008040201020408005070706000070AC
:102AD0008808102000200507070600007088086895
:102AE000A8A870050707060000708888F8888888FD
:102AF000050707060000F08888F08888F0050707BA
:102B00000600007088808080887005070706000036
:102B1000F08888888888F0050707060000F880801C
:102B2000F08080F8050707060000F88080F08080BC
:102B300080050707060000708880B8888870050740
:102B400007060000888888F8888888010707060239
:102B50000080808080808080050707060000381094
:102B600010101090600507070600008890A0C0A014
:102B70009088050707060000808080808080F80527
:102B8000070706000088D8A88888888805070706F0
:102B900000008888C8A89888880507070600007084
:102BA000888888888870050707060000F08888F004
:102BB00080808005070706000070888888A89068D4
:102BC000050707060000F08888F0A0908805070731
:102BD000060000788080700808F0050707060000EE
:102BE000F82020202020200507070600008888887C
:102BF00088888870050707060000888888888850BC
:102C0000200507070600008888888888A8500507DF
:102C100007060000888850205088880507070600AE
:102C20000088888850202020050707060000F80843
:102C300010204080F8030707060100E080808080B4
:102C400080E0050505060001804020100803070705
:102C5000060100E02020202020E0050303060004F8
:102C6000205088050101060000F802020206020554
:102C7000804005050506000070087888780507077C
:102C80000600008080B0C88888F0050505060000B1
:102C9000708080887005070706000008086898881B
:102CA00088780505050600007088F880700507071C
:102CB0000600003048E0404040400506060600FFA0
:102CC0007088887808700507070600008080B0C803
:102CD0008888880107070602008000808080808045
:102CE0000308080601FF200020202020A040040740
:102CF00007060000808090A0C0A09003070706018F
:102D000000C04040404040E0050505060000D0A856
:102D1000A8A8A8050505060000B0C888888805058C
:102D20000506000070888888700506060600FFF01A
:102D30008888F080800506060600FF788888780875
:102D400008050505060000B0C88080800505050659
:102D5000000070807008F00407070600004040E0A3
:102D600040404030050505060000888888986805C1
:102D70000505060000888888502005050506000026
:102D80008888A8A8500505050600008850205088AE
:102D90000506060600FF8888887808700505050680
:102DA0000000F8102040F80307070601002040400B
:102DB00080404020010707060200808080808080DC
:102DC0008003070706010080404020404080050244
:102DD00002060002689000000006000000060900DC
:102DE000FE000000000001090008FE0000050808C0
:102DF00006000040F0C8888898781005080806008A
:102E000000C0F88888888888F80505050600012034
:102E100030F830200508080600002070F820202037
:102E200020E00509090600FF2070A8A8B88888706E
:102E3000200509090600FFE080C0B0A82830282836
:102E40000509090600FFF8A88888888888A8F80579
:102E50000A0A0600FE205050505088A8A888700327
:102E6000030306000340A040C4DA8DDA11241FBE1C
:102E7000CFEFD0E4DEBFCDBF12E0A0E0B1E0E4ECE4
:102E8000F9ED01E00BBF02C007900D92A835B10724
:102E9000D9F723E1A8E5B2E001C01D92A131B20744
:102EA000E1F717E1C5E3D7E104C02197FE010E94D5
:102EB0003EECC433D107C9F70E94ABDB0C94D5ECD0
:102EC0000C9400006091160170911701072E000C00
:102ED000880B990B0E94BBE42AE037ED43E25CE3E8
:102EE0000E941AE52091C5043091C6044091C704A0
:102EF0005091C8040E941AE560934F0170935001ED
:102F000080935101909352010895119800000000A0
:102F100087FD52C0419800000000119A0000000097
:102F200011980000000086FD53C041980000000089
:102F3000119A0000000011980000000085FD46C0B5
:102F4000419800000000119A000000001198000054
:102F5000000084FD39C0419800000000119A000073
:102F6000000011980000000083FD2CC04198000073
:102F70000000119A0000000011980000000082FD7E
:102F80001FC0419800000000119A00000000119835
:102F90000000000081FD12C0419800000000119A5D
:102FA000000000001198000000004198000000009F
:102FB000119A000000000895419AADCF419AEDCFDB
:102FC000419AE0CF419AD3CF419AC6CF419AB9CF27
:102FD000419AACCF90916F00292F227091FF05C0CC
:102FE00090916F009D7F90936F0034E0839FC001AC
:102FF0001124FC01E95EFB4F4081518162817381A4
:10300000855F9B4FFC01408351836283738381E022
:1030100080930A04222329F080916F0082608093BC
:103020006F000895CF93DF9390916F00292F227046
:1030300091FF05C090916F009D7F90936F0094E089
:10304000899FA0011124FA01E95EFB4F6081718123
:1030500082819381222329F020916F0022602093A6
:103060006F00EA01CA5BD64F0E94BBE42881398118
:103070004A815B810E941AE5DF91CF910895CF923A
:10308000DF92EF92FF9280911405882309F457C0D4
:10309000C0901005D0901105E0901205F090130536
:1030A00020E030E0A901C701B6010E94B4E4882302
:1030B00009F445C020E030E040E05FE3C701B6011D
:1030C0000E941AE59B01AC010E941AE52BED3FE03E
:1030D00049E450E40E941AE59B01AC0160E070E015
:1030E00080E89FE30E94DFE96B017C01C092C50488
:1030F000D092C604E092C704F092C8046091160111
:1031000070911701072E000C880B990B0E94BBE4ED
:103110002AE037ED43E25CE30E941AE5A70196013D
:103120000E941AE560934F01709350018093510102
:1031300090935201FF90EF90DF90CF900895C12CB3
:10314000D12C80E8E82E8FE3F82ED0CF80916F004D
:10315000982F927081FF05C080916F008D7F8093C2
:103160006F0010923E0910923F0910924009109290
:103170004109992329F080916F00826080936F004C
:1031800008950F931F938091DE0E9091DF0E891B9F
:103190008F7009F449C09091DB0E992361F0833060
:1031A00040F48FEF890F29F08093DB0E90E080E0F0
:1031B00038C01092DB0E8091DF0E2DE4829FC0019B
:1031C00011248F59964FFC01208120FDEFCF4091B3
:1031D0003E0950913F096091400970914109E75BB8
:1031E000FF4F0081118122813381401B510B620B03
:1031F000730B40933E0950933F09609340097093CD
:1032000041092091DF0E2F5F2F702093DC0E30914B
:10321000DF0E2091DD0E321304C02091DC0E2093CE
:10322000DD0E1F910F9108950E94A618BFCFCF9376
:10323000DF938091C003329B4BC081608093C003B9
:103240008091C003339946C08D7F8093C0038091E5
:10325000C003349941C08B7F8093C003C091FB03AE
:10326000C0FF10C08091C10380FF0CC08091C003DB
:1032700080FF08C080915B05816080935B0580E0E2
:103280000E94EA17C1FF10C08091C10381FF0CC0EA
:103290008091C00381FF08C080915B0582608093AC
:1032A0005B0581E00E94EA17C2FF18C08091C1034C
:1032B00082FF14C08091C00382FF10C080915B0523
:1032C000846080935B0582E0DF91CF910C94EA17D4
:1032D0008E7FB4CF8260B9CF8460BECFDF91CF91B3
:1032E0000895CF92DF92EF92FF92CF93DF93EC019C
:1032F000C090D504D090D604E090D704F090D804C4
:10330000A7019601688179818A819B810E94B4E43A
:1033100087FF04C0C882D982EA82FB82C090D904A8
:10332000D090DA04E090DB04F090DC04A701960171
:103330006C817D818E819F810E94B4E487FF04C0EF
:10334000CC82DD82EE82FF82C0901A01D0901B01F8
:10335000E0901C01F0901D01A70196016881798120
:103360008A819B810E9445EB181624F4C882D98279
:10337000EA82FB82C0901E01D0901F01E0902001E4
:10338000F0902101A70196016C817D818E819F8142
:103390000E9445EB181624F4CC82DD82EE82FF8277
:1033A000C090DD04D090DE04E090DF04F090E004F3
:1033B000A7019601688579858A859B850E94B4E47A
:1033C00087FF04C0C886D986EA86FB86C0902201A2
:1033D000D0902301E0902401F0902501A7019601EF
:1033E000688579858A859B850E9445EB181624F4AB
:1033F000C886D986EA86FB86DF91CF91FF90EF9051
:10340000DF90CF9008955E9A809139058E7F8093EA
:1034100039055E9A809139058D7F80933905159A1B
:10342000809139058B7F809339055E9A0895CF93FB
:10343000DF9380E00E941218C0E8D3E068837983AC
:103440008A839B8381E00E9412186C837D838E8324
:103450009F8382E00E941218688779878A879B87FA
:10346000DF91CF9108950F931F93CF93DF9394E053
:10347000899FE00111248E0107531B4FFE01E65C7A
:10348000FA4FDE01AE55BC4F2D913D914D915C91AF
:1034900060817181828193810E94E5E8F8016083F7
:1034A000718382839383FE01EB54FD4F8591959147
:1034B000A591B491FE01EB52FB4F80839183A283CF
:1034C000B383FE01EF53FD4F85919591A591B49182
:1034D000C65EDE4F88839983AA83BB83DF91CF9139
:1034E0001F910F91089590915A05E92FF0E0EA5A43
:1034F000FA4F80839F5F943040F490935A058091F7
:10350000DD068F5F8093DD06089510925A05F7CF90
:103510002FEB280F2A3108F042C0E22FF0E0809113
:10352000F5029091F602A091F702B091F80204C062
:10353000B695A795979587952A95D2F780FD02C0F5
:1035400081700895E552FD4FE081EE2329F18091CD
:10355000F1069091F206E80FF92FF11D808190EDB0
:10356000980F9A3030F08E3251F4818180538A3036
:1035700098F4F0935902E093580281E008958D3257
:1035800011F08B3249F4818190ED980F9A3088F3D5
:103590008E3211F48281EACFF0E0E0E0EACF80E001
:1035A00008950E94881A882341F081E020915802F2
:1035B00030915902232B09F480E00895089590E09A
:1035C00080E0089580917E0390917F032FEF3FEF7D
:1035D000981751F0E92FF0E0E250FD4F208130E0E4
:1035E0009F5F9F7790937F03C9010895CF92DF92E9
:1035F000EF92FF92CF93C82F0E94F7B16B017C012D
:1036000024EA30E74DE75FE36091E1047091E20462
:103610008091E3049091E4040E94B4E487FD18C013
:103620008AEF90E0A0E0B0E08C0D9D1DAE1DBF1DA7
:1036300080931A0590931B05A0931C05B0931D055C
:10364000C0933D01CF91FF90EF90DF90CF90089510
:1036500080E090E0DC01E8CF0F931F938091BA04E3
:10366000813019F50E94F7B100912B0410912C04C0
:1036700020912D0430912E04601B710B820B930B53
:1036800028EE33E040E050E00E94A8E86091270473
:10369000709128048091290490912A04620F731F6D
:1036A000841F951F1F910F91089560912F047091B1
:1036B00030048091310490913204D6CF8091BA04C5
:1036C000813079F482E08093BA040E94F7B160936C
:1036D0002F0470933004809331049093320481E07E
:1036E000089580E008950C9403B20F931F93CF9335
:1036F000C62F8C01CC2349F0F80181918F018823DA
:1037000021F00E94C19FC150F5CFCF911F910F9121
:1037100008959F92AF92BF92CF92DF92EF92FF9265
:103720000F931F93CF93DF935B01E9014A3009F4B4
:10373000C4C0453109F067C0DB011296ED91FC91E0
:10374000F280C681D781139A88E290E00197F1F761
:10375000EF2CE29420EFE22230E1932E9F0C48E21E
:10376000C42ED12C88EF0E948517C6010197F1F76E
:10377000BFE1BF1508F488C08F2D807780680E9454
:1037800085178E2D0E948517C6010197F1F780E8F5
:103790000E94851780E00E948517C6010197F1F706
:1037A0008AEF0E948517C6010197F1F78E01005F2D
:1037B0001F4F8881807F0E94851789918295807F25
:1037C0000E948517C017D107A1F7C6010197F1F72D
:1037D000F394E0E1EE0EF910C5CF1398D5011296DF
:1037E0000D911C91C8010E9401B48111FEC1DF91AD
:1037F000CF911F910F91FF90EF90DF90CF90BF90EE
:10380000AF909F900895FB0102811381ECEEE40FCD
:10381000E43308F050C0F0E0E05FF34E0C943EEC6F
:103820009D1DF21B5B1CE51D5B1C5B1C5B1C5B1C7C
:103830005B1C5B1C5B1C5B1C5B1C5B1C5B1C5B1CD0
:103840005B1C5B1C5B1C5B1C5B1C5B1C5B1C5B1CC0
:103850005B1C5B1C5B1C5B1C5B1C5B1CDF1D5B1C2B
:103860005B1C5B1C5B1C5B1C5B1C5B1C5B1CB01D4A
:103870005B1C5B1C5B1C5B1C5B1C5B1C5B1C5B1C90
:103880005B1C5B1C021E571C80EE8F0D8068807FC6
:103890000E9485178F2D8295807F0E948517C60113
:1038A0000197F1F780E80E94851780E874CFD8016E
:1038B00011968C91888381E09ACF0B9A1398399A4C
:1038C0004198099A119A139A88E290E00197F1F7CA
:1038D00088E790E0CEE9DFE0FE013197F1F701974C
:1038E000D9F788EF0E94851708E210E0C801019718
:1038F000F1F780E20E94851780E00E948517C801D9
:103900000197F1F780E00E94851780E80E948517F3
:10391000C8010197F1F780E00E94851780E10E94BD
:103920008517C8010197F1F7CE010197F1F7CE0194
:103930000197F1F7CE010197F1F7CE010197F1F769
:10394000CE010197F1F7CE010197F1F7CE01019772
:10395000F1F7CE010197F1F7CE010197F1F7CE0112
:103960000197F1F7CE010197F1F7CE010197F1F739
:10397000CE010197F1F7CE010197F1F72197F1F709
:1039800080E20E94851780E40E948517C801019794
:10399000F1F780E20E94851780E60E948517C80132
:1039A0000197F1F700E010E0C8E2D0E0812F8077C6
:1039B00080680E948517802F0E948517CE0101978D
:1039C000F1F780E80E94851780E00E948517CE01FC
:1039D0000197F1F78AEF0E948517CE010197F1F761
:1039E00080E2119800000000419800000000119A48
:1039F0000000000011980000000041980000000045
:103A0000119A000000001198000000004198000089
:103A10000000119A00000000119800000000419879
:103A200000000000119A0000000011980000000042
:103A3000419800000000119A000000001198000059
:103A40000000419800000000119A00000000119849
:103A500000000000419800000000119A00000000E2
:103A6000119800000000419800000000119A000029
:103A70000000119800000000419800000000119A19
:103A800000000000119800000000419800000000B4
:103A9000119A0000000011980000000041980000F9
:103AA0000000119A000000001198000000004198E9
:103AB00000000000119A00000000119800000000B2
:103AC000419800000000119A0000000011980000C9
:103AD0000000419800000000119A000000001198B9
:103AE00000000000419800000000119A0000000052
:103AF000119800000000419800000000119A000099
:103B00000000FE013197F1F7815009F06ACF88EF8C
:103B10000E948517CE010197F1F71F5F005F1032F9
:103B200009F044CF80E00E94851780EC0E94851741
:103B30002197F1F7139881E05ACED80115964C9150
:103B4000159750E0440F551F70E060E016968D9178
:103B50009C910E946DECC8010E9417B481E047CE91
:103B600089812B81D80112966C91129713964C91F2
:103B7000213009F467C0233009F048C038EF380F0E
:103B8000582F91E0431708F490E041E0531708F0F4
:103B900040E031E0561708F430E0592F542B35231C
:103BA00019F4942309F487CEFA8030E0F901E25247
:103BB000FE4FD08026523E4FF901E08040C0B9014F
:103BC000C8010E94EBB381E012CE1882D801129690
:103BD0008C911297898315968C91159781508A83C1
:103BE00013968C918B8381E002CEF801458150E0E1
:103BF000440F551F70E060E0868197810E946DEC54
:103C000081E0F5CDF8018581888355CE481708F409
:103C100052CE861708F44FCEFA80E12CD12C2430F6
:103C200070F4C3CFBE01C8010E94EBB389819881B3
:103C30009D0D98838E0D8983FF0C09F43CCEF7FE11
:103C4000F6CFF0CF58E0580F382F9BCFDF92EF928E
:103C5000FF920F931F93CF93DF93EC01D62E1CADF1
:103C60000BAD7C0184E0E80EF11CE98DFA8DC701F3
:103C70000995412F480F2D2D602FC7010E9491B645
:103C80009BAD890F8BAF81E090E0DF91CF911F91C9
:103C90000F91FF90EF90DF9008958F929F92AF92D7
:103CA000BF92CF92DF92EF92FF920F93CF93DF9369
:103CB0001F92CDB7DEB76C017B0149018091BE0335
:103CC0005B01A40EB51E8823A1F0F60180819181CD
:103CD000480F591F518340830F90DF91CF910F916F
:103CE000FF90EF90DF90CF90BF90AF909F908F901C
:103CF0000895F601808191810E9482E889839091E4
:103D0000BF03992311F0002311F0F7018083BE0156
:103D10006F5F7F4FC4010E944DAEF601808191819B
:103D2000019691838083FFEFEF1AFF0AEA14FB04E8
:103D300001F7D2CF2F923F924F925F926F927F9274
:103D40008F929F92AF92BF92CF92DF92EF92FF92AB
:103D50000F931F93CF93DF9300D000D000D0CDB747
:103D6000DEB79A8389830E94F7B1A981BA8116963A
:103D7000CD90DD90ED90FC901997C114D104E10431
:103D8000F10409F07FC21C962C911C97222309F4A0
:103D90004DC01A96EC911A9721501C962C931C97A3
:103DA00021E02E0F1A962C931A971D963C911D9781
:103DB000231302C01A961C92F0E03196EE0FFF1FFB
:103DC000EE0FFF1F29813A81E20FF31FC284D384D3
:103DD000E484F584D9011296CD92DD92ED92FC92A5
:103DE00015976C0D7D1D811D911DF90166837783EB
:103DF0008087918784819581892BC1F0FFB7FD83EE
:103E0000F894A981BA8112962D903C9013972101C4
:103E1000712C612C14960D911C9180913E018B3177
:103E2000F1F08F3F09F497C0AD81AFBF26960FB672
:103E3000F894DEBF0FBECDBFDF91CF911F910F91E0
:103E4000FF90EF90DF90CF90BF90AF909F908F90BA
:103E50007F906F905F904F903F902F900895E6E392
:103E6000F3E2B491BE83B7FDDFCF61E08BE10E9446
:103E70001BB13E81332321F08E81823009F072C163
:103E80004801B12CA12C60E072E18AE790E0A50125
:103E900098010E941FEC29833A834B835C8369015C
:103EA0007A0191E0C91AD108E108F108AFEFCA160A
:103EB000D104E104F10409F00CF42BC160E472E4D4
:103EC0008FE090E0A50198010E941FEC69017A0142
:103ED000B1E0CB1AD108E108F108EE81E23009F037
:103EE000CCC082E0FFEFCF16D104E104F10409F069
:103EF0000CF425C260E970ED83E090E0A501980123
:103F00000E941FEC69017A0181E0C81AD108E1081A
:103F1000F10883E09FEFC916D104E104F10409F030
:103F20000CF40DC268E478EE81E090E0A501980100
:103F30000E941FEC69017A01A1E0CA1AD108E108C8
:103F4000F108BFEFCB16D104E104F10411F00CF03D
:103F5000B8C084E0F4C18BE180933E01E6E3F3E274
:103F600024912E832F3F09F45FCF213041F170F06F
:103F7000223009F442C0233009F461C0FE81F7FD0C
:103F800053CF61E08BE10E941BB176CF14BC15BC0E
:103F900084B5826084BD85B5816085BDE1EFF2E2C4
:103FA000E491F0E0EE0FFF1FEE53FD4D85919491EB
:103FB000E1E1F3E2E491E0935C021E8256CF1092BD
:103FC0008000109281008091810088608093810040
:103FD00080918100816080938100E1EFF2E2E491C1
:103FE000F0E0EE0FFF1FEE53FD4D85919491E1E15E
:103FF000F3E2E491E0935B0238CF1092B0001092AC
:10400000B1008091B00082608093B0008091B100D7
:1040100081608093B100E1EFF2E2E491F0E0EE0F15
:10402000FF1FEE53FD4D8591949190932A05809347
:104030002905E1E1F3E2E491E0932B0516CF10921C
:10404000900010929100809191008860809391007F
:1040500080919100816080939100E1EFF2E2E49120
:10406000F0E0EE0FFF1FEE53FD4D85919491E1E1DD
:10407000F3E2E491E0935A02F8CEAFEFCA16D1040E
:10408000E104F10409F00CF46BC068E478EE81E01F
:1040900090E0A50198010E941FEC69017A01B1E04E
:1040A000CB1AD108E108F108EE81EE2309F413C11F
:1040B0002FEFC216D104E104F10411F00CF014C189
:1040C00048CF64E274EF80E090E0A50194010E9483
:1040D0001FEC69017A01F1E0CF1AD108E108F1087B
:1040E00085E02FEFC216D104E104F10409F008F4D1
:1040F00026C162E17AE780E090E0A50194010E9488
:104100001FEC69017A01E1E0CE1AD108E108F1085B
:10411000FDC081E0AE81A11112C195B5987F892BB8
:1041200085BD2FEF3FEFA90145284628472809F014
:1041300051C08E81813009F483C00CF07BC08111A5
:1041400073CEC7BC2093650230936602409367022A
:104150005093680280916E00826080936E0064CEFE
:1041600082E0D8CFB12CA12C60E072E18AE790E028
:10417000A50198010E941FEC69017A01B1E0CB1AF8
:10418000D108E108F10891E0C114D104E1E0EE06A4
:10419000F10484F068E478EE81E090E0A5019801F4
:1041A0000E941FEC69017A01F1E0CF1AD108E10801
:1041B000F10893E02E812130D1F480918100887F35
:1041C000892B809381002FEF3FEFA90145284628D6
:1041D0004728B1F19801220F331FD1010E94D5E881
:1041E00028EE33E040E050E00E94A8E8A2CF3E81F4
:1041F000333009F096CF80919100887F892B80938E
:1042000091002FEF3FEFA90145284628472811F7D5
:10421000D0929900C092980020935D0230935E0284
:1042200040935F025093600280917100826080939E
:104230007100FACD9E819230A9F0933049F3F4CD0C
:10424000D0928900C092880020936102309362026C
:10425000409363025093640280916F008260809368
:104260006F00E2CDC092B30020932C0530932D0552
:1042700040932E0550932F058091700082608093AB
:104280007000D2CD6C197D098E099F0997FDCECDA6
:104290001498E981FA811682178210861186C6CD9C
:1042A00084E03FEFC316D104E104F10409F008F4FF
:1042B00034CFC980DA80EB80FC809AE0F594E794F3
:1042C000D794C7949A95D1F721E0C21AD108E10892
:1042D000F10885E022CF83E0FFEFCF16D104E1049F
:1042E000F10409F00CF419CF62E17AE780E090E084
:1042F000A50194010E941FEC69017A0181E0C81AAE
:10430000D108E108F1089E81992351F286E09FEFE0
:10431000C916D104E104F10491F088F0C980DA8073
:10432000EB80FC808AE0F594E794D794C7948A9553
:10433000D1F781E0C81AD108E108F10887E090912F
:10434000B100987F892B8093B100EBCECF92DF92A2
:10435000EF920F931F93CF93DF9300D000D0CDB790
:10436000DEB7E090190519821A821B821C82CE01E9
:1043700001966C0100E011E022E535E04EE455E0E5
:104380006AE475E086E495E00E9453A10F900F90D7
:104390000F900F90DF91CF911F910F91EF90DF90D1
:1043A000CF9008958091580290915902009731F072
:1043B0004AE050E070E060E00C94C7E160E070E03B
:1043C000CB0108950E94D22197FD0CC00E94D221FA
:1043D0006F3F71058105910509F034F40E94D221E7
:1043E000862F089580E008958FEF089580915802F8
:1043F00090915902892B41F00E94E22191E08111B4
:1044000001C090E0892F089591E0FCCF809158027F
:1044100090915902009731F04AE050E070E060E07E
:104420000C94F5E260E070E0CB0108950F931F93C8
:10443000CF9380915802909159020097E9F0FC01C6
:104440008F01C1912C2F2F7D81F0C53411F0C5361D
:10445000B9F7F801108270E060E00E9469E0F801AD
:10446000C083CF911F910F91089570E060E0CF91CC
:104470001F910F910C9469E060E070E0CB01F1CFE7
:1044800086E40E94881A8093F304882351F00E94E6
:10449000162260933101709332018093330190931F
:1044A000340183E50E94881A882351F00E94162265
:1044B0006093390170933A0180933B0190933C01E2
:1044C00082E40E94881A882351F00E941622609389
:1044D0003501709336018093370190933801089528
:1044E000CF92DF92EF92FF920F931F93CF93DF93C0
:1044F00032EDC32E31E0D32E4EEAE42E43E0F42E0B
:1045000006E415E0D0E0C0E0F60181916F010E9461
:10451000881A882309F458C00E941622FE01EA5224
:10452000FD4F2081211104C02091DA022223E1F104
:10453000F80120813181428153810E94E5E8F70131
:1045400060837183828393832196F4E0EF0EF11CE4
:104550000C5F1F4FC430D105B9F686E40E94D11A12
:104560008823C9F00E94162220E030E0A9010E94B1
:1045700045EB181684F40E94162220E030E040E754
:1045800052E40E94DFE9609300017093010180937F
:10459000020190930301DF91CF911F910F91FF9042
:1045A000EF90DF90CF900895C33049F2FE01EE0FF7
:1045B000FF1FEE0FFF1FE753FB4F20813181428128
:1045C00053810E94E4E8BBCFF80180819181A281F0
:1045D000B381F70180839183A283B383B5CFCF9357
:1045E000DF9300D000D0CDB7DEB7882349F00E941A
:1045F00083BA0F900F900F900F90DF91CF91089595
:1046000088EB91E09C838B8384E190E09A8389839B
:10461000BE016D5F7F4FCE0101960E941FA1E9CFC1
:104620008091BA048230B1F09091100F992359F023
:104630008091210F811104C084E19FE00C9424A09B
:1046400081E29FE0FBCF813041F082EB9BE16FEF95
:104650000C943AC78DEC9BE1FACF81EC9BE1F7CF4C
:10466000282F109224058091E0069091E106A091F8
:10467000E206B091E30681309048A105B10540F013
:104680001092E0061092E1061092E2061092E30604
:1046900080911F05882331F08091E00680931705F3
:1046A00010921605809115051816FCF4082E000CC2
:1046B000990B821B910920911705022E000C330BD8
:1046C0002817390794F097FF02C090E080E08093AC
:1046D0001705092E000CAA0BBB0B8093E0069093E4
:1046E000E106A093E206B093E306809117056623E6
:1046F000A9F090911805891714F48093180520915A
:104700001805022E000C330B2C5F3F4F482F082E4C
:10471000000C550B241735071CF4845080931805A2
:10472000089580919D048630D8F496E0899FF00129
:104730001124E758FB4F2091470130914801318304
:1047400020834091E0065091E1066091E20670916D
:10475000E30642835383648375838F5F80939D0454
:104760000895CF92DF92EF92FF920F931F93CF9312
:10477000DF93EC016A017B01809147019091480130
:104780008C179D0781F12EE4C731D207A9F5845219
:104790009D4271F40E94F7B16E517B4F8F4F9F4F36
:1047A00060937504709376048093770490937804F3
:1047B000D0934801C0934701C092E006D092E10631
:1047C000E092E206F092E306C452DD4221F4109238
:1047D0001E0510929D0482E08093550181E0809334
:1047E000160510922505DF91CF911F910F91FF9033
:1047F000EF90DF90CF9008952DE2C432D207C1F63A
:1048000087519E4419F0C4E2DDE2D2CF0E94F7B195
:10481000009175041091760420917704309178040A
:10482000601B710B820B930B97FFEDCF8091DE0E17
:104830009091DF0E891B8F7021F48091100F8823D7
:1048400011F3CAE4D4E2B4CF21E020931E056093B3
:10485000E1047093E2048093E3049093E40440E065
:1048600050E0BA018091E5049091E6040C94B123E4
:1048700060E070E080E291E40C94242460E070E059
:1048800080E89FE30C9424246DEC7CEC8CEC9DE39D
:104890000C94242440E050E0BA018DE29CE20E9496
:1048A000B1231092C1041092C2041092C30410925A
:1048B000C40481E080931E05089540E050E0BA01F1
:1048C00084E29DE20C94B123E0919D04EE2389F0F3
:1048D000E150E0939D0486E0E89FF0011124E75841
:1048E000FB4F4281538164817581808191810C9459
:1048F000B1230C945D24CF92DF92EF92FF920F933D
:104900001F93CF93DF93182F7093E6046093E50411
:1049100061E081E00E943023C091180585E0D82E27
:10492000DC0E81E004E00C1B93E0F92EFC1A92E00F
:10493000E92EEC1AC82ECC1ADC2FD195113009F4CF
:104940005BC058F1123009F482C0C111A9C088239C
:10495000D9F0809117051816BCF04091E0065091EF
:10496000E1066091E2067091E3064F5F5F4F6F4F83
:104970007F4F4093E0065093E1066093E206709308
:10498000E3068F5F8093170580915501882361F1BD
:1049900021E041E06BEE7DE156C0C11181C088236A
:1049A000D9F0809117051816BCF04091E00650919F
:1049B000E1066091E2067091E3064F5F5F4F6F4F33
:1049C0007F4F4093E0065093E1066093E2067093B8
:1049D000E3068F5F809317058091550121E041E048
:1049E00062E07EE181112FC080E0CF5FDC12A6CFB4
:1049F00085E08093150578C0C11152C08823D9F095
:104A0000809117051816BCF04091E0065091E10620
:104A10006091E2067091E3064F5F5F4F6F4F7F4FEB
:104A20004093E0065093E1066093E2067093E3063C
:104A30008F5F809317058091550121E041E06BEF76
:104A40007DE1882389F28D2F0E9454CACDCFC111F8
:104A500027C08823D9F0809117051816BCF0409123
:104A6000E0065091E1066091E2067091E3064F5F27
:104A70005F4F6F4F7F4F4093E0065093E106609386
:104A8000E2067093E3068F5F8093170580915501CE
:104A900021E041E064EF7DE1882309F4A5CFD3CF85
:104AA000C13059F580911705813091F08091550101
:104AB000882309F499CF81E090911705913009F08E
:104AC00080E024E041EE5DE16C2D0E94B3BA8CCF12
:104AD00080912605882351F3109226050E946424B4
:104AE00080911605882311F3DF91CF911F910F91CB
:104AF000FF90EF90DF90CF900895C23009F055C03D
:104B000080911705823081F080915501882309F446
:104B10006BCF81E090911705923009F080E023E09F
:104B200047ED5DE16E2DD1CF80912605882361F39D
:104B30001092260588E394E20E9425CC8091160508
:104B4000882311F3D1CF80911705833081F08091B4
:104B50005501882309F448CF81E0909117059330DF
:104B600009F080E023E04EEC5DE16F2DAECF809147
:104B70002605882361F3109226058EE394E20E94B5
:104B800025CC80911605882311F3AECF80912605A0
:104B90008823A1F01092260584E494E20E9425CC9B
:104BA00080911605882351F09FCFC33061F2C43045
:104BB00009F01ACF80911705843041F38091550197
:104BC000882309F411CF81E090911705943009F002
:104BD00080E023E043EC5DE1602F77CFEF92FF921E
:104BE0000F931F93CF93DF9361E081E00E94302306
:104BF000C091180585E0F82EFC0ED3E0DC1B12E016
:104C00001C1B01E00C1BEC2EE194C1112DC0809106
:104C100017058823B1F080915501882359F081E070
:104C200090911705911180E024E040E05DE16E2D48
:104C30000E94B3BACF5FFC12E8CF84E080931505E1
:104C40000CC080912605882331F3109226050E941E
:104C50006424809116058823F1F2DF91CF911F9192
:104C60000F91FF90EF900895C13061F58091170585
:104C7000813079F0809155018823E1F281E09091B3
:104C80001705913009F080E020E244EF5CE1602FED
:104C9000CFCF80912605882369F310922605409195
:104CA000FC045091FD046091F4047091F50480912E
:104CB000F8049091F9040E94C1C6809116058823DA
:104CC000C9F2CBCFC23009F042C0809117058230C3
:104CD00081F080915501882309F4ACCF81E0909157
:104CE0001705923009F080E020E244ED5CE1612F8D
:104CF0009FCF80912605882361F31092260540916D
:104D0000FC045091FD046FEF7FEF8091F8049091C7
:104D1000F9040E94C1C6809116058823D1F29DCF67
:104D2000809126058823D1F0109226054091FC043D
:104D30005091FD046091F4047091F50490E080E0DE
:104D40000E94C1C680911605882341F086CFC330EA
:104D500009F070CF80911705833011F380915501D0
:104D6000882309F467CF81E090911705933009F00B
:104D700080E020E244EE5CE16D2F5ACFEF92FF928B
:104D80000F931F93CF93DF9361E081E00E94302364
:104D9000C091180585E0F82EFC0ED3E0DC1B12E074
:104DA0001C1B01E00C1BEC2EE194C1112DC0809165
:104DB00017058823B1F080915501882359F081E0CF
:104DC00090911705911180E024E044E35DE16E2DA0
:104DD0000E94B3BACF5FFC12E8CF84E08093150540
:104DE0000CC080912605882331F3109226050E947D
:104DF0006424809116058823F1F2DF91CF911F91F1
:104E00000F91FF90EF900895C13061F580911705E3
:104E1000813079F0809155018823E1F281E0909111
:104E20001705913009F080E020E248E25DE1602F53
:104E3000CFCF80912605882369F3109226054091F3
:104E4000FE045091FF046091F6047091F704809184
:104E5000FA049091FB040E94C1C680911605882334
:104E6000C9F2CBCFC23009F042C080911705823021
:104E700081F080915501882309F4ACCF81E09091B5
:104E80001705923009F080E020E248E05DE1612FF3
:104E90009FCF80912605882361F3109226054091CB
:104EA000FE045091FF046FEF7FEF8091FA04909120
:104EB000FB040E94C1C6809116058823D1F29DCFC4
:104EC000809126058823D1F0109226054091FE049A
:104ED0005091FF046091F6047091F70490E080E037
:104EE0000E94C1C680911605882341F086CFC33049
:104EF00009F070CF80911705833011F3809155012F
:104F0000882309F467CF81E090911705933009F069
:104F100080E020E248E15DE16D2F5ACF2F923F9271
:104F20004F925F926F927F928F929F92AF92BF92B9
:104F3000CF92DF92EF92FF920F931F93CF93DF9365
:104F400061E081E00E943023C09118056C2E85E05D
:104F5000482E4C0E86E0F82EFC1AD1E09FE8C92EB0
:104F60009CE1D92E85E0E82EEC1A29E9A22E2CE14D
:104F7000B22E34E0532E352C3C1A4DEA842E4CE1EF
:104F8000942E82E0782E7C1A2D2E2C1AC11135C059
:104F900080911705882391F080915501882309F4A9
:104FA00058C0662D619581E090911705911180E0C0
:104FB00024E04FEC5CE10E94B3BA4BC0809126051F
:104FC000882351F3109226050E94642480911605CF
:104FD000882311F3DF91CF911F910F91FF90EF90F4
:104FE000DF90CF90BF90AF909F908F907F906F9009
:104FF0005F904F903F902F900895C13009F048C0C6
:1050000080911705813061F180915501882309F164
:1050100083E08F9387EE8F931F928AE08F9388E1CE
:1050200091E09F938F9383EC9CE19F938F932F92BA
:1050300081E090911705913009F080E08F930E94F4
:1050400019B98DB79EB70A960FB6F8949EBF0FBEDA
:105050008DBFCF5F4C129ACF87E080931505BACFF2
:1050600080912605882381F21092260510E000E049
:1050700027EE33E04AE050E068E171E089EC9CE122
:105080000E94D5AF80911605882309F4BDCFA2CF29
:10509000C23009F038C180911705823039F1809112
:1050A00055018823B1F283E79BE19F938F93DF93B0
:1050B0005F921F921F9285E99EE09F938F9385EBED
:1050C0009CE19F938F937F9281E09091170592309E
:1050D00009F080E08F930E9419B98DB79EB70C96A6
:1050E0000FB6F8949EBF0FBE8DBFB3CF809126053B
:1050F0008823A9F210922605D0932405109220054A
:1051000010922105109222051092230503E71BE15E
:1051100024E031E050E040E065E97EE08CEB9CE18A
:105120000E94D5AF80911605882309F4B8CF52CFDD
:1051300080911705833049F180915501882309F446
:1051400088CF82EE93E39F938F931F928EE68F9387
:105150001F921F9284EE96E09F938F939F928F925F
:1051600083E086198F9381E090911705933009F0C1
:1051700080E08F930E9419B98DB79EB70C960FB639
:10518000F8949EBF0FBE8DBF64CF80912605882303
:1051900099F210922605D0932405109220051092C2
:1051A0002105109222051092230502EE13E32EE64C
:1051B00030E050E040E064EE76E081EB9CE10E945C
:1051C000D5AF80911605882309F4B6CF03CF80911F
:1051D0001705843019F180915501882309F439CFDE
:1051E0001F928FEF8F931F921F928EE599E09F93EE
:1051F0008F93BF92AF923F9281E0909117059430C8
:1052000009F080E08F930E9419B98DB79EB70A9676
:105210000FB6F8949EBF0FBE8DBF1BCF80912605A1
:105220008823C9F210922605D093240510922005F8
:1052300010922105109222051092230510E000E043
:105240002FEF30E050E040E06EE579E083EA9CE14A
:105250000E94D5AF80911605882309F4BCCFBACE41
:1052600080911705853049F180915501882309F413
:10527000F0CE82E697E19F938F9383E08F9387EE42
:105280008F931F928AE08F9386E191E09F938F9393
:10529000DF92CF92EF9281E090911705953009F05F
:1052A00080E08F930E9419B98DB79EB70C960FB608
:1052B000F8949EBF0FBE8DBFCCCE8091260588236B
:1052C00099F21092260502E617E127EE33E04AE054
:1052D00050E066E171E084E99CE10E94D5AF8091E5
:1052E0001605882309F276CE809126058823D9F009
:1052F000109226058AE494E20E9425CC809116053E
:10530000882389F067CEC33009F412CFC43009F482
:105310005ECFC53009F4A4CFC63009F09ACE809193
:105320001705863009F380915501882309F491CE41
:1053300081E090911705963009F080E023E044E881
:105340005CE16F2D38CE9CE0899F802D112491E087
:10535000980F9093DE062CE0280F2093DF064091F3
:10536000D50E30E02E5F3F4F4217130609F0A4F42C
:105370002091D70E921780F4662341F08E5F0E9431
:10538000E0B58091DF068E5F0E94E0B58091DF0678
:105390001092D80E8093D90E0895CF93DF931F9269
:1053A000CDB7DEB78091DA0E811105C081E0809320
:1053B000DA0E0E945CB46091A30E7091A40E198263
:1053C0009E012F5F3F4F4FE081EA9EE00E941EB496
:1053D0000F90DF91CF9108959FEF980F993020F4AF
:1053E0000E949BC681E008950E94C19FFBCF9FEF62
:1053F000980F993010F40C949BC60C94C19FCF93D6
:10540000DF93EC01FE018491882321F00E94F729AB
:105410002196F8CFDF91CF910895CF93DF93EC01E0
:105420008991882319F00E94F729FACFDF91CF9153
:105430000895AF92BF92CF92DF92EF92FF920F93B7
:105440001F93CF93DF935C017B010E9446CAC82F54
:10545000C7010E94ABCB04E110E0081B1109DD2459
:10546000D394C017110619F014F082E0D82E809161
:10547000A20E90E06D2D70E06F5F7F4F0E940BECED
:10548000C62EC6E0C60F8091D50EC81788F12091B0
:10549000D70E4C2F4B50550B241715064CF110927C
:1054A000D80EC093D90EC5010E94C69FD1E0E11469
:1054B000F10499F08AE30E94C19F52E0D5121AC00C
:1054C000CC0D8091D50EC81740F02091D70E4C2FEF
:1054D0004B50550B241715067CF4DF91CF911F918B
:1054E0000F91FF90EF90DF90CF90BF90AF90089515
:1054F000D0E0DDCFDD2389F3802F880F800F880F68
:105500008093D80EC093D90E80E20E94C19FC7013C
:10551000DF91CF911F910F91FF90EF90DF90CF908F
:10552000BF90AF900C940D2A80912605109226050D
:10553000882321F010921E050C9464246091E006EB
:105540007091E1068091E2069091E3066115710584
:105550008105910561F10E94BBE42091E104309145
:10556000E2044091E3045091E4040E941AE5209182
:1055700052053091530540915405509155050E94B4
:10558000E5E860935205709353058093540590931A
:10559000550583E00E94F61A81E080935501109230
:1055A000E0061092E1061092E2061092E306809166
:1055B0005501882349F082E595E00E94B6B7BC0109
:1055C0008AEB9DE10C94192A08953F924F925F92C5
:1055D0006F927F928F929F92AF92BF92CF92DF9203
:1055E000EF92FF920F931F93CF93DF93CDB7DEB768
:1055F0002A970FB6F894DEBF0FBECDBF9A87898772
:10560000362E80912605109226058823E1F010920F
:105610001E050E9464242A960FB6F894DEBF0FBEC2
:10562000CDBFDF91CF911F910F91FF90EF90DF9051
:10563000CF90BF90AF909F908F907F906F905F9032
:105640004F903F9008958091E0069091E106A091DF
:10565000E206B091E3068D839E83AF83B887892BE2
:105660008A2B8B2B09F454C094E0699F800111248C
:10567000F801EA5BFA4F408051806280738080912C
:105680002601811184C020E030E04AE754E4C301E0
:10569000B2010E94E4E84B015C0120E030E04AE7FF
:1056A00054E4C301B2010E94E5E86B017C016D8105
:1056B0007E818F8198850E94BBE42091E104309126
:1056C000E2044091E3045091E4040E941AE5A3012E
:1056D00092010E94E5E82B013C018D819E81AF8102
:1056E000B885B7FF95C0A5019401C301B2010E941E
:1056F000B4E487FD85C0F801EA5BFA4F408251822D
:1057000062827382832D0E94F61A81E08093550194
:105710001092E0061092E1061092E2061092E30663
:1057200080915501882309F476CFA4E03A9EC00108
:105730001124FC01EA5BFA4F87539B4FDC012D914A
:105740003D914D915C9160817181828193810E9434
:10575000E5E869837A838B839C832DEC3CEC4CECED
:105760005DE36091E1047091E2048091E304909123
:10577000E4040E9445EB87FD5CC0CE0101960E94C7
:10578000B6B7BC0189859A850E94192A44CFA1E049
:105790006A17A1F0B2E06B1711F18090D5049090D8
:1057A000D604A090D704B090D804C0901A01D0902D
:1057B0001B01E0901C01F0901D0179CF8090D9046D
:1057C0009090DA04A090DB04B090DC04C0901E013D
:1057D000D0901F01E0902001F090210168CF8090CF
:1057E000DD049090DE04A090DF04B090E004C0904F
:1057F0002201D0902301E0902401F090250157CFA1
:10580000F801EA5BFA4F80829182A282B3827ACF5A
:10581000A7019601C301B2010E9445EB18160CF0D6
:105820006ACFF801EA5BFA4FC082D182E282F3824A
:1058300069CFCE0101960E947FAEA3CF62E083EBD9
:105840009DE10C94E52A61E08CEA9DE10C94E52A47
:1058500060E085EA9DE10C94E52ACF93DF9300D0C8
:1058600000D0CDB7DEB7809126051092260588239B
:1058700059F010921E050E9464240F900F900F9013
:105880000F90DF91CF9108958091E0069091E1060D
:10589000A091E206B091E3060097A105B10589F158
:1058A0001092E0061092E1061092E2061092E306D2
:1058B00021E0209355012091390522FF0AC0209153
:1058C000BF043091C004280F391F3093C0042093C7
:1058D000BF04092E000CAA0BBB0B4091C1045091D0
:1058E000C2046091C3047091C404840F951FA61F65
:1058F000B71F8093C1049093C204A093C304B093D4
:10590000C40480915501882309F4B7CF6091C10484
:105910007091C2048091C3049091C4040E94BBE4BE
:1059200020914E0930914F094091500950915109F1
:105930000E941AE569837A838B839C83CE0101964A
:105940000E947FAEBC0189E79CE10E94192A95CF95
:10595000CF92DF92EF92FF920F93CF93DF93982F26
:10596000862F6A017901692F0E94A3299091D50E93
:105970008091DF06891708F445C09091D70E809179
:10598000DE06981708F43EC0C701002381F00E948C
:1059900046CAC82FD4E1D81BF6018491882351F060
:1059A0000E94EC29D81BFFEFCF1ADF0AF5CF0E9427
:1059B000ABCBEFCF8AE30E94C19FD15010F080E2C1
:1059C000FACF8091DF069C2F990F990FC91BCC0F3E
:1059D000C058C093D80E8093D90EC701002349F058
:1059E000DF91CF910F91FF90EF90DF90CF900C94CB
:1059F000FF29DF91CF910F91FF90EF90DF90CF9033
:105A00000C940D2ADF91CF910F91FF90EF90DF90D2
:105A1000CF900895CF93C82F823079F024F481304D
:105A200049F0CF910895833011F08430D1F781E5AA
:105A300099E205C0CF910C94A9C68CED9DE20E941D
:105A4000DD9FC0932805EDCF3F924F925F926F92FA
:105A50007F928F929F92AF92BF92CF92DF92EF92FE
:105A6000FF920F931F93CF93DF93CDB7DEB72A97A3
:105A70000FB6F894DEBF0FBECDBF10922405809103
:105A8000260510922605882309F10E94CD2940E0C1
:105A900050E0BA0187E19EE40E94B1232A960FB636
:105AA000F894DEBF0FBECDBFDF91CF911F910F9154
:105AB000FF90EF90DF90CF90BF90AF909F908F902E
:105AC0007F906F905F904F903F9008954091E006D7
:105AD0005091E1066091E2067091E3062091180171
