:100000000C9493180C94BD180C94BD180C94BD1846
:100010000C94BD180C94BD180C94BD180C94BD180C
:100020000C94BD180C94E2BE0C94BD180C94BD1831
:100030000C94BD180C948E3E0C94BD180C94BD18F5
:100040000C94BD180C94B92D0C94F6C10C94BD18E9
:100050000C94ECB00C94BD180C94BD180C94BD1805
:100060000C94BD180C94BD180C94BD180C94BD18BC
:100070000C94BD180C94BD180C94BD180C94BD18AC
:100080000C94BD180C94BD180C94BD184E414E49EB
:100090004E495459494E46CDCCCC3D0AD7233C1746
:1000A000B7D13877CC2B329595E6241FB14F0A0093
:1000B0000020410000C84200401C4620BCBE4CCA83
:1000C0001B0E5AAEC59D74454550524F4D2064617C
:1000D000746173697A65206572726F722E0A0029E5
:1000E0000A002062797465733B20637263200053B9
:1000F000657474696E67732053746F726564202829
:1001000000290A002062797465733B2063726320C2
:10011000002073746F7265642073657474696E6710
:1001200073207265747269657665642028002028E2
:1001300063616C63756C6174656429210A00202118
:100140003D2000454550524F4D20435243206D699C
:10015000736D61746368202D202873746F726564F9
:100160002920002053697A653A2000496E64657839
:100170003A2000204D61726C696E3D563536290A71
:100180000028454550524F4D3D00454550524F4D7A
:100190002076657273696F6E206D69736D6174632B
:1001A00068200048617264636F646564204465661A
:1001B00061756C742053657474696E6773204C6F3D
:1001C000616465640A00F4010000F4010000640049
:1001D0000000881300000000FA430000FA4300000A
:1001E000A0400000C8410000A0420000A042000062
:1001F000C8430000BA4220286D6D29002044002029
:10020000490020204D3330312050005049442073A4
:10021000657474696E67733A0A00204600204200D4
:1002200020480020204D3134352053004D61746545
:100230007269616C206865617475702070617261AB
:100240006D65746572733A0A00205A0020590020C7
:1002500020473239205333205800205A0020204DA7
:100260003432302053004D65736820426564204C61
:100270006576656C696E673A0A00205A002059005D
:1002800020204D323036205800486F6D65206F6653
:10029000667365743A0A00204500205A0020590010
:1002A00020580020540020530020204D32303520AB
:1002B000510020453C6D61785F655F6A65726B3EF9
:1002C0000020583C6D61785F785F6A65726B3E20F4
:1002D000593C6D61785F795F6A65726B3E205A3C6C
:1002E0006D61785F7A5F6A65726B3E00416476612A
:1002F0006E6365643A20513C6D696E5F7365676D2E
:10030000656E745F74696D655F75733E20533C6DF7
:10031000696E5F66656564726174653E20543C6D0C
:10032000696E5F74726176656C5F66656564726143
:1003300074653E0020540020520020204D3230349D
:10034000205000416363656C65726174696F6E2053
:1003500028756E6974732F7332293A20503C70727D
:10036000696E745F616363656C3E20523C726574B4
:10037000726163745F616363656C3E20543C7472A8
:100380006176656C5F616363656C3E0A00204500C1
:10039000205A0020590020204D3230312058004D85
:1003A0006178696D756D20416363656C6572617418
:1003B000696F6E2028756E6974732F7332293A0A3B
:1003C00000204500205A0020590020204D323033B3
:1003D0002058004D6178696D756D206665656472A1
:1003E000617465732028756E6974732F73293A0AD6
:1003F00000204500205A0020590020204D3932208D
:10040000580053746570732070657220756E69743E
:100410003A0A0020204D3230302044300A0020209B
:100420004D3230302044002044697361626C656451
:100430000A0046696C616D656E7420736574746939
:100440006E67733A0020204D3134392043203B2021
:10045000556E69747320696E2043656C736975739A
:100460000A002020473231202020203B00486F6DB9
:10047000696E67206661696C65640054524947473C
:1004800045524544006F70656E003A20007A5F6DFA
:10049000696E00795F6D696E00785F6D696E0052FC
:1004A00065706F7274696E6720656E6473746F70C7
:1004B000207374617475730A000A4D6561737572F7
:1004C000656420706F696E74733A0A005A206F6613
:1004D000667365743A20004E756D20582C593A2089
:1004E000332C330A0020746F6F206C6F6E672065A9
:1004F0007874727573696F6E2070726576656E744C
:1005000065640A0020636F6C64206578747275738B
:10051000696F6E2070726576656E7465640A00247A
:10052000F4D43050C38E20C2A24017828B701112B7
:100530007A910D816CD90AA861E108C758660761F4
:100540005143061E4B5D05C145A7041A411104091C
:100550003D9803713931034036DB0265339102D493
:10056000305402802E1D02632CEE01752AC501B0A5
:1005700028A001102781018F2564012B244B01E065
:10058000223401AC211F018D200D01801FFC00844D
:100590001EED00971DDF00B81CD200E61BC6002030
:1005A0001BBC00641AB200B219A8000A19A0006AA4
:1005B000189900D117910040178B00B516840031AF
:1005C000167E00B31579003A157300C7146F0058F2
:1005D000146A00EE1366008813630025135E00C7DB
:1005E000125B006C12570015125400C111510070BB
:1005F000114F0021114B00D61049008D10470046C5
:1006000010440002104200C00F4000800F3E004224
:100610000F3C00060F3B00CB0E3800930E37005CFA
:100620000E3500270E3400F30D3200C10D3100905D
:100630000D3000600D2E00320D2D00050D2C00D95F
:100640000C2B00AE0C2900850C29005C0C27003512
:100650000C27000E0C2600E80B2400C40B2400A07D
:100660000B23007D0B23005A0B2100390B210018AE
:100670000B2000F80A1F00D90A1E00BB0A1E009DAD
:100680000A1D00800A1D00630A1C00470A1B002C7B
:100690000A1B00110A1A00F7091A00DD091900C423
:1006A000091900AB091900920917007B09180063AA
:1006B0000917004C09160036091600200916000A11
:1006C000091500F5081500E0081400CC081400B85E
:1006D000081400A4081400900813007D0812006B91
:1006E00008130058081200460812003408110023AD
:1006F0000811001208110001081100F0071000E0B5
:10070000071000D0071000C0071000B0070F00A1AD
:1007100007100091070E0083070F0074070F006594
:10072000070E0057070E0049070E003B070D002E6D
:10073000070E0020070D0013070D0006070D00F936
:10074000060C00ED060D00E0060C00D4060C00C8F7
:10075000060C00BC060C00B0060C00A4060B0099A9
:10076000060C008D060B0082060B0077060B006C52
:10077000060B0061060A0057060B004C060A0042F1
:10078000060A0038060A002E060A0024060A001A85
:10079000060A001006090007060A00FD050900F414
:1007A000050900EB050900E2050900D9050900D09B
:1007B000050900C7050900BE050900B5050800AD1B
:1007C000050800A50509009C050800940508008C93
:1007D000050800840508007C050800740508006C05
:1007E000050700650508005D050700560508004E71
:1007F00005070047050700400508003805070031D8
:100800000507002A050700230507001C050600163A
:100810000507000F0507000805060002050700FB95
:10082000040600F5040700EE040600E8040600E2F2
:10083000040700DB040600D5040600CF040600C947
:10084000040600C3040600BD040600B7040600B198
:10085000040500AC040600A6040600A00405009BE5
:1008600004060095040500900406008A040500852E
:10087000040500800406007A040500750405007074
:100880000405006B04050066040500610405005CB6
:1008900004050057040500520405004D04050048F6
:1008A000040500430405003E0404003A0405003535
:1008B000040500300404002C040500270404002370
:1008C0000405001E0404001A0404001604050011A7
:1008D0000404000D040400090405000404040000DD
:1008E000040400FC030400F8030400F4030400F013
:1008F000030400EC030400E8030400E4030400E044
:10090000030400DC030400D8030400D4030400D073
:10091000030400CC030400C8030300C50303002440
:10092000F404D9201BC40C5C0E9804C4095F026552
:10093000077101F405F900FB04B30048048700C106
:100940000369005803550003034500BE023A0084C2
:1009500002310053022A002902250004022000E48B
:10096000011C00C8011900AF011700980114008490
:10097000011300710110006101100051010E0043CC
:10098000010D0036010B002B010B0020010B00159F
:100990000109000C01090003010800FB000800F335
:1009A000000800EB000700E4000600DE000600D8A7
:1009B000000600D2000600CC000500C7000500C2FA
:1009C000000500BD000400B9000400B5000400B13A
:1009D000000400AD000400A9000400A5000300A26B
:1009E0000003009F0004009B000300980003009593
:1009F00000020093000300900003008D0002008BB2
:100A000000030088000200860002008400030081C9
:100A10000002007F0002007D0002007B00020079DE
:100A200000020077000100760002007400020072EC
:100A3000000100710002006F0002006D0001006CF7
:100A40000002006A00010069000200670001006600
:100A50000001006500010064000200620001006105
:100A6000000100600001005F0002005D0001005C09
:100A70000001005B0001005A00010059000100580C
:100A8000000100570001005600010055000100540C
:100A9000000100530000005300010052000100510A
:100AA000000100500001004F0001004E0000004E08
:100AB0000001004D0001004C0001004B0000004B04
:100AC0000001004A00010049000100480000004800
:100AD00000010047000100460000004600010045FB
:100AE00000000045000100440001004300000043F5
:100AF00000010042000000420001004100000041EE
:100B0000000100400001003F0000003F0001003EE6
:100B10000000003E0001003D0000003D0001003CDF
:100B20000000003C0000003C0001003B0000003BD6
:100B30000001003A0000003A0001003900000039CD
:100B400000010038000000380000003800010037C4
:100B500000000037000100360000003600000036BB
:100B600000010035000000350000003500010034B0
:100B700000000034000000340001003300000033A6
:100B8000000000330001003200000032000000329B
:100B90000001003100000031000000310001003090
:100BA00000000030000000300001002F0000002F86
:100BB0000000002F0000002F0001002E0000002E7A
:100BC0000000002E0001002D0000002D0000002D6F
:100BD0000000002D0001002C0000002C0000002C63
:100BE0000000002C0001002B0000002B0000002B57
:100BF0000000002B0001002A0000002A0000002A4B
:100C00000000002A0001002900000029000000293E
:100C10000000002900000029000100280000002831
:100C20000000002800000028000000280001002724
:100C30000000002700000027000000270000002718
:100C4000000100260000002600000026000000260B
:100C500000000026000100250000002500000025FE
:100C600000000025000000250000002500010024F0
:100C700000000024000000240000002400000024E4
:100C800000010023000000230000002300000023D7
:100C900000000023000000230000002300010022C8
:100CA00000000022000000220000002200000022BC
:100CB00000000022000100210000002100000021AE
:100CC00000000021000000210000002100000021A0
:100CD0000001002000000020000000200000002093
:100CE0000000002000000020000000200000002084
:100CF0000001001F0000001F0000001F0000001F77
:100D00000000001F0000001F0000001F0001001E67
:100D10000000001E0000001E0000001E0000000475
:100D20003700001E290000511B0000581000001061
:100D3000090000CC040000780200004101000062BC
:100D400065640A002C2073797374656D2073746F69
:100D50007070656421204865617465725F49443A2A
:100D600020004265642068656174696E6720666171
:100D7000696C65640048656174696E6720666169C5
:100D80006C65640045312048656174696E67206652
:100D900061696C65640048656174696E67206661AD
:100DA000696C65640070012C0190012701B001227B
:100DB00001C0011D01F00118011002130130020EE3
:100DC000016002090190020401C002FF000003FA61
:100DD000004003F5008003F000D003EB002004E6A0
:100DE000007004E100E004DC004005D700C005D23B
:100DF000004006CD00D006C8008007C3003008BE02
:100E000000F008B900C009B400B00AAF00B00BAAE6
:100E100000D00CA500000EA000500F9B00C0109643
:100E2000005012910000148C00C0158700B017828A
:100E300000B0197D00D01B7800001E730040206EAA
:100E40000090226900F024640040275F0090295A36
:100E500000E02B5500102E500020304B0010324681
:100E600000E033410090353C0010373700703832D5
:100E700000A0392D00B03A2800A03B2300603C1EA2
:100E800000103D1900903D1400103E0F00703E0A06
:100E900000C03E0500003F0000403FFBFF803FF6E2
:100EA000FFC03FF1FF453120544845524D414C2091
:100EB00052554E41574159004245442054484552ED
:100EC0004D414C2052554E4157415900546865726E
:100ED0006D616C2052756E617761790045312045F6
:100EE00072723A204D415854454D50004572723A45
:100EF000204D415854454D5020424544004D4158E5
:100F000054454D5020747269676765726564004589
:100F100031204572723A204D494E54454D5000459E
:100F200072723A204D494E54454D5020424544007E
:100F30004D494E54454D502074726967676572651E
:100F400064004D383420582059205A204500202F65
:100F5000002042403A0020403A0025753A253032C0
:100F60007500253032753A253032750025756420BC
:100F7000253032753A25303275002020202020207F
:100F8000005A0059002020202000580009200000AD
:100F90000000000000000000000000003FFFF00023
:100FA0000000000000000000000000003800700099
:100FB00000000000000000000000000030FC3000D5
:100FC00000000000000000000000000020FC1000F5
:100FD0000000000000000000000000002078100069
:100FE00000000000000000000000000020301000A1
:100FF0000000000000000000000000002C00D0F8FD
:101000000180000C1FE00000082080002E31D04835
:10101000008000123FF00000041040002F7BD043FE
:10102000C38CD0023FF00000041040002F7BD07131
:10103000249267CC3FF00000082080002E31D04180
:10104000249E40021FE00000104100002C00D04907
:10105000249040121FE0000020820000203010FB8E
:10106000B3CEE00C3FF0000020820000207810009A
:10107000000000003FF000001041000020FC1000C4
:10108000000000003FF000000820800030FC30002D
:10109000000000000FC000000000000038007000D9
:1010A0000000000007800000FFFFC0003FFFF000CD
:1010B0000000000003000000FFFFC000000000006F
:1010C0000000000000000000000000003FFFF000F2
:1010D0000000000000000000000000003800700068
:1010E0000000000000000000000000003387300016
:1010F00000000000000000000000000027879000B2
:101100000000000000000000000000002F87D00059
:101110000000000000000000000000002F87D00049
:101120000000000000000000000000002F03D0F8C5
:101130000180000C1FE000000820800020301048D3
:10114000008000123FF0000004104000207810439F
:10115000C38CD0023FF000000410400020781071D2
:10116000249267CC3FF0000008208000203010411E
:10117000249E40021FE00000104100002F03D049D0
:10118000249040121FE00000208200002F87D0FB37
:10119000B3CEE00C3FF00000208200002F87D0008B
:1011A000000000003FF00000104100002787900081
:1011B000000000003FF0000008208000338730006E
:1011C000000000000FC000000000000038007000A8
:1011D0000000000007800000FFFFC0003FFFF0009C
:1011E0000000000003000000FFFFC00000000045F9
:1011F0006E6465722D332052656164792E005072E1
:10120000696E74696E672E2E2E005072696E74209E
:10121000706175736564005072696E742061626FED
:101220007274656400496E69742E205344206361B2
:101230007264004D3231004E6F205344206361725E
:1012400064004368616E6765205344206361726483
:10125000004D3231005072696E742066726F6D20DD
:1012600053440053746F70207072696E740052653D
:1012700073756D65207072696E740041626F75746C
:10128000205072696E7465720050617573652070CC
:1012900072696E7400436F6E74726F6C0050726589
:1012A000706172650054756E6500496E666F2073DB
:1012B000637265656E004261627973746570205A6D
:1012C000004261627973746570205A00466C6F77D2
:1012D00000466C6F770046616E2073706565640030
:1012E00046616E2073706565640042656400426506
:1012F00064004E6F7A7A6C65004E6F7A7A6C650086
:101300004661646520486569676874004661646584
:101310002048656967687400426564205A00426528
:1013200064205A00537065656400537065656400FD
:101330004D61696E005072656865617420504C4162
:1013400020456E64005072656865617420504C41A0
:1013500020426564005072656865617420504C419C
:1013600000507265706172650050726568656174E5
:101370002041425320456E64005072656865617477
:101380002041425320426564005072656865617473
:10139000204142530050726570617265004C657661
:1013A000656C696E6720446F6E6521004D6F7665D0
:1013B000205A00473239205332004E65787420504D
:1013C0006F696E74002569202F202575004732391A
:1013D0002053310047323920533200436C69636B2C
:1013E00020746F20426567696E00486F6D696E6793
:1013F0002058595A004732380053746F7265207371
:10140000657474696E6773004C6F616420736574F2
:1014100074696E677300426564205A0042656420F7
:101420005A004661646520486569676874004661D2
:10143000646520486569676874004F6666004F6E92
:101440002000426564204C6576656C696E67004CCF
:101450006576656C206265640050726570617265C6
:10146000004D343238005072656865617420504C0C
:101470004100436F6F6C646F776E005072656865F2
:101480006174204142530044697361626C6520734A
:1014900074657070657273004D3834005365742044
:1014A000686F6D65206F666673657473004265646E
:1014B000204C6576656C696E67004175746F2068B5
:1014C0006F6D6500473238004D6F76652061786931
:1014D00073004D61696E004D6F76652058004D6F49
:1014E00076652059004D6F7665205A0045787472F4
:1014F00075646572004D6F766520302E316D6D001C
:101500004D6F766520316D6D004D6F766520313001
:101510006D6D004D6F766520617869730045787454
:101520007275646572004D6F7665205A004D6F7656
:10153000652059004D6F7665205800434F4D4D553D
:101540004E49434154494F4E0044525952554E0062
:101550004552524F525300494E464F004543484F63
:1015600000656E7175657565696E672022004B496F
:101570004C4C45442E200053544F505045442E208F
:10158000005072696E7465722073746F7070656458
:101590002064756520746F206572726F72732E20DF
:1015A00046697820746865206572726F7220616E7A
:1015B0006420757365204D39393920746F20726548
:1015C00073746172742E202854656D706572617435
:1015D0007572652069732072657365742E2053657A
:1015E0007420697420616674657220726573746119
:1015F0007274696E67290A004E6F20436865636BD9
:1016000073756D2077697468206C696E65206E75DE
:101610006D6265722C204C617374204C696E653A62
:1016200020004E6F20436865636B73756D2077698A
:101630007468206C696E65206E756D6265722C2011
:101640004C617374204C696E653A20006368656371
:101650006B73756D206D69736D617463682C204CBC
:10166000617374204C696E653A20004C696E652088
:101670004E756D626572206973206E6F74204C61C7
:101680007374204C696E65204E756D6265722B31E6
:101690002C204C617374204C696E653A20004D31EA
:1016A0003130004D33310053442072656164206550
:1016B00072726F720A00446F6E65207072696E7488
:1016C000696E672066696C650A0020496E76616CF8
:1016D000696420657874727564657220000000008A
:1016E00000000000000000000000006B4300006BE1
:1016F0004300007A43206E6F7420656E74657265D6
:10170000642E0A0050726F746563746564205069BA
:101710006E0A0020573A004520436F6F6C696E6770
:101720002E2E2E00452048656174696E672E2E2E80
:101730000020573A0042656420636F6F6C696E67E2
:101740002E2E2E004265642068656174696E672ED6
:101750002E2E00205A3A0020593A0020436F756E11
:101760007420583A0020453A00205A3A0020593A4D
:1017700000583A003A004361703A00236465666994
:101780006E652044454641554C545F4B6420002310
:10179000646566696E652044454641554C545F4B0F
:1017A00069200023646566696E652044454641559D
:1017B0004C545F4B702000504944204175746F7445
:1017C000756E652066696E69736865642120507561
:1017D0007420746865206C617374204B702C204BEE
:1017E0006920616E64204B6420636F6E7374616E58
:1017F00074732066726F6D2062656C6F7720696EFE
:10180000746F20436F6E66696775726174696F6E7D
:101810002E680A00504944204175746F74756E65D6
:10182000206661696C6564212074696D656F7574EB
:101830000A00453120544845524D414C2052554EE6
:101840004157415900546865726D616C2052756E44
:10185000617761790045312048656174696E672060
:101860006661696C65640048656174696E672066CD
:1018700061696C656400504944204175746F7475EA
:101880006E65206661696C6564212054656D7065C4
:1018900072617475726520746F6F20686967680A79
:1018A00000204B643A2000204B693A2000204B7006
:1018B0003A20000A20436C617373696320504944E5
:1018C000200A002054753A2000204B753A20002051
:1018D0006D61783A2000206D696E3A200020643AEC
:1018E000200020626961733A20005049442041750C
:1018F000746F74756E652073746172740A00504958
:1019000044204175746F74756E65206661696C65FD
:1019100064212054656D7065726174757265207400
:101920006F6F20686967680A0050494420417574E8
:101930006F74756E65206661696C65642120426113
:1019400064206578747275646572206E756D626569
:10195000720A004F66660A00466164652048656940
:101960006768742000426564204C6576656C696E1A
:101970006720004661696C656420746F20656E6144
:10198000626C6520426564204C6576656C696E67A3
:101990000A004D65736820426564204C6576656C6D
:1019A00020646174613A0A00486F6D6520257325D3
:1019B000732573206669727374002066697273748C
:1019C0000A005A0059005800486F6D6520004F66A4
:1019D0006673657473206170706C6965640045722C
:1019E000723A20546F6F206661722100546F6F202D
:1019F0006661722066726F6D207265666572656ED3
:101A0000636520706F696E740A00536C6565702E93
:101A10002E2E00206F6620004D424C204732392088
:101A2000706F696E742000290A0059206F75742048
:101A30006F662072616E67652028312D00290A00CB
:101A400058206F7574206F662072616E676520285C
:101A5000312D004D6573682070726F62696E67206A
:101A6000646F6E652E0A005374617274206D657325
:101A7000682070726F62696E6720776974682022CF
:101A8000473239205331222066697273742E0A005E
:101A90004732380A473239205332004D6573682087
:101AA000626564206C6576656C696E672068617339
:101AB000206E6F20646174612E0A00537461746536
:101AC0003A200053206F7574206F662072616E6734
:101AD000652028302D35292E0A004D657368207049
:101AE0006F696E742063616E6E6F74206265207220
:101AF00065736F6C7665640A00436C69636B207470
:101B00006F20726573756D652E2E2E004E6F206DE1
:101B10006F76652E00456E642066696C65206C6981
:101B200073740A00426567696E2066696C65206C93
:101B30006973740A00286E6F2066696C652900431A
:101B4000757272656E742066696C653A2000534444
:101B5000207072696E74696E672062797465200006
:101B60004E6F74205344207072696E74696E670AF8
:101B70000044656C6574696F6E206661696C6564AC
:101B80002C2046696C653A200046696C65206465C6
:101B90006C657465643A002569730025696D2025BC
:101BA0006973002569682025696D20256973002502
:101BB0006964202569682025696D202569730025E1
:101BC000697920256964202569682025696D2025AB
:101BD0006973005072696E742074696D653A2000F3
:101BE0006F6666005C155715501549153B15444541
:101BF0004255473A004B494C4C45442E20004D314C
:101C000031332053006F6B00456E6465722D3320B5
:101C10004F66662E002C20002C2000544845524D63
:101C2000414C5F50524F54454354494F4E0041552B
:101C3000544F5245504F52545F53445F5354415494
:101C4000555300454D455247454E43595F5041520B
:101C500053455200434153455F4C494748545F4206
:101C600052494748544E45535300544F47474C45FB
:101C70005F4C494748545300534F465457415245CF
:101C80005F504F574552004255494C445F504552B2
:101C900043454E54004C4556454C494E475F4441E0
:101CA0005441005A5F50524F4245004155544F4CE9
:101CB0004556454C005052494E545F4A4F420050E1
:101CC000524F4752455353004155544F5245504F80
:101CD00052545F54454D5000564F4C554D4554524B
:101CE000494300454550524F4D0053455249414CE0
:101CF0005F584F4E5F584F4646004649524D574138
:101D000052455F4E414D453A4D61726C696E20629D
:101D100075676669782D312E312E782028476974D1
:101D20006875622920534F555243455F434F4445E0
:101D30005F55524C3A68747470733A2F2F67697408
:101D40006875622E636F6D2F4D61726C696E4669A6
:101D5000726D776172652F4D61726C696E205052A1
:101D60004F544F434F4C5F56455253494F4E3A31B3
:101D70002E30204D414348494E455F545950453A15
:101D8000456E6465722D3320455854525544455272
:101D90005F434F554E543A3120555549443A636597
:101DA0006465326132662D343161322D3437343816
:101DB0002D396231322D633535633632663336372D
:101DC00066660A002F2F20004D31343520533C69C0
:101DD0006E6465783E206F7574206F662072616E48
:101DE00067652028302D31290A0020540020520038
:101DF000416363656C65726174696F6E3A2050006F
:101E00005741524E494E4721204C6F77205A204A65
:101E100065726B206D6179206C65616420746F2040
:101E2000756E77616E746564207061757365732E6D
:101E30000A00205A00205900580020204D61783AAD
:101E40002000205A00205900580020204D696E3A89
:101E500020004F6E20004F666600536F6674206549
:101E60006E6473746F70733A200020466C6F773A1B
:101E7000200000010F150E12FFFFFFFF16170E13B3
:101E8000FFFFFFFF03021A14FFFFFFFFFFFFFF0C1E
:101E900004FFFFFF01000EFFFFFF0C190DFF1849A3
:101EA0006E76616C69642065787472756465720A17
:101EB0000020643A0020693A0020703A0043290A61
:101EC0000061626C656420286D696E2074656D70B8
:101ED0002000436F6C6420657874727564657320AC
:101EE00061726520004E6F2063617365206C6967C5
:101EF00068740A004D65736820706F696E742063A2
:101F0000616E6E6F74206265207265736F6C7665AA
:101F1000640A004D34323120696E636F72726563FA
:101F20007420706172616D6574657220757361678C
:101F3000650A00454550524F4D204F4B0A00416302
:101F4000746976652045787472756465723A20000C
:101F5000496E76616C696420657874727564657227
:101F60000A00526573656E643A20006F6B0020743E
:101F70006F6F206C6F6E6720657874727573696F10
:101F80006E2070726576656E7465640A0020636FFA
:101F90006C6420657874727573696F6E20707265F9
:101FA00076656E7465640A00627573793A207061B3
:101FB0007573656420666F7220696E7075740A00AF
:101FC000627573793A2070617573656420666F720B
:101FD00020757365720A00627573793A2070726FAA
:101FE00063657373696E670A004B494C4C45442E18
:101FF00020004B494C4C2063617573656420627905
:1020000020746F6F206D75636820696E61637469F9
:1020100076652074696D65202D2063757272656E1A
:102020007420636F6D6D616E643A2000506C656161
:102030007365207265736574005052494E54455261
:102040002048414C544544005072696E74657220BA
:1020500068616C7465642E206B696C6C2829206340
:10206000616C6C6564210A00000000000000000043
:10207000000000000000A0410000A04100008040DE
:10208000000000005761726E696E673A20486F6DFC
:10209000696E672042756D702044697669736F724E
:1020A000203C20310A000202040000A0400000A0F1
:1020B000400000004000006B4300006B4300007ACA
:1020C00043FFFFFF7C3C3E5E2B3D3F2F5B5D3B2C87
:1020D0002A225C004572726F722077726974696E91
:1020E0006720746F20454550524F4D210A004578B6
:1020F000747275646572004D6F7665205A004D6F7D
:1021000076652059004D6F766520580050726570D5
:1021100061726500496E697469616C697A65204510
:102120004550524F4D00436F6E74726F6C00526594
:1021300073746F7265206661696C73616665004CCB
:102140006F61642073657474696E677300496E69AA
:102150007469616C697A6520454550524F4D005352
:10216000746F72652073657474696E677300466975
:102170006C616D656E74004D6F74696F6E005465AF
:102180006D7065726174757265004D61696E004DA8
:1021900033303320553120452569205325690050BF
:1021A0007265686561742041425320636F6E6600FA
:1021B0005072656865617420504C4120636F6E6693
:1021C00000504944204175746F74756E6500504924
:1021D00044204175746F74756E65005049442D44F8
:1021E000005049442D44005049442D490050494471
:1021F0002D49005049442D50005049442D50002095
:102200000820466163740020082046616374002042
:1022100008204D6178002008204D617800200820BA
:102220004D696E002008204D696E004F6666004FB4
:102230006E20004175746F74656D700046616E208C
:1022400073706565640046616E2073706565640037
:1022500042656400426564004E6F7A7A6C65004E98
:102260006F7A7A6C6500436F6E74726F6C00537492
:102270006F72652073657474696E6773004265647C
:1022800000426564004E6F7A7A6C65004E6F7A7A10
:102290006C650046616E2073706565640046616E12
:1022A0002073706565640054656D70657261747546
:1022B0007265005654726176206D696E00565472D4
:1022C0006176206D696E00566D696E00566D696E9F
:1022D00000566D6178204500566D617820450056A6
:1022E0006D6178205A00566D6178205A00566D61F4
:1022F00078205900566D6178205900566D6178201C
:102300005800566D61782058004D6F74696F6E00EB
:10231000416D6178204500416D6178204500416D37
:102320006178205A00416D6178205A00416D6178D2
:10233000205900416D6178205900416D6178205825
:1023400000416D6178205800412D74726176656C92
:1023500000412D74726176656C00412D7265747256
:1023600061637400412D726574726163740041632E
:1023700063656C00416363656C004D6F74696F6EDB
:102380000056652D6A65726B0056652D6A65726B25
:1023900000567A2D6A65726B00567A2D6A65726BEB
:1023A0000056792D6A65726B0056792D6A65726BDD
:1023B0000056782D6A65726B0056782D6A65726BCF
:1023C000004D6F74696F6E004573746570732F6D87
:1023D0006D004573746570732F6D6D005A7374656D
:1023E00070732F6D6D005A73746570732F6D6D006F
:1023F0005973746570732F6D6D00597374657073C4
:102400002F6D6D005873746570732F6D6D00587368
:10241000746570732F6D6D004D6F74696F6E00532E
:10242000746570732F6D6D004A65726B0041636354
:10243000656C65726174696F6E0056656C6F636977
:10244000747900436F6E74726F6C0046696C2E2055
:102450004469612E0046696C2E204469612E004F4C
:102460006666004F6E20004520696E206D6D33005A
:10247000436F6E74726F6C0043616E6E6F74206593
:102480006E746572207375626469723A2000022E60
:102490002E000152656672657368004D61696E00B9
:1024A0004D61782054656D703A20313235004D69A8
:1024B0006E2054656D703A203500544265643A458B
:1024C00050434F53203130304B004D6178205465DC
:1024D0006D703A20323735004D696E2054656D704D
:1024E0003A20350054303A204550434F5320313084
:1024F000304B005053553A2047656E657269630052
:1025000050726F746F636F6C3A20312E30004261ED
:1025100075643A20313135323030004D656C7A695E
:102520002028437265616C69747929004D65736870
:10253000204C6576656C696E6700457874727564C9
:102540006572733A203100687474703A2F2F6D6190
:10255000726C696E66772E6F726700456E64657285
:102560002D3300323031382D30372D333100627544
:10257000676669782D312E312E78004D61726C6955
:102580006E00546865726D6973746F727300426F88
:1025900061726420496E666F005072696E74657274
:1025A00020496E666F004D61696E000000210024B5
:1025B0000027002A0000002200250028002B000030
:1025C000002000230026002900020202020202026B
:1025D00002040404040404040403030303030303C4
:1025E0000301010101010101010102040810204061
:1025F00080010204081020408001020408102040DD
:10260000808040201008040201000000010200093F
:102610000A0000000004030807000000000000009A
:1026200000000000000000000002FFFFFFFFEFFFBE
:10263000FFFFFFFFFFFFFFFFFFEFEFFFFFFFFFFFCA
:10264000FFFFFFFFE7DFFFFFFFFFFFFFFFFFFFE7EA
:10265000DFFFFFFFFFFFFFFFFFFFE3DFFFFFFFFFE6
:10266000FFFFFFFFFFF3CFFFFFFFFFFFFFFFFFE1D4
:10267000E1CFFFFFFFFFFFFFFE78000003DDFFFF5C
:10268000FFFFFEFF807E0001EEFFFFFFFFFE7DCF1C
:10269000FC0000F77FFFFFFFFF8E060000007BBFFE
:1026A000FFFFFFFFC0000000007DDFFFFFFFFFFC1A
:1026B00001FE00003EE7FFFFFFFFFFFFFC00031FDE
:1026C00073FFFFFFFFFFFFF800018F81FFFFFFFF98
:1026D000FFFFE0000083F9FFFFFFFFFFFF00FC00AA
:1026E00000F0FFFFFFFFFFE00FFFC00000FFFFFF54
:1026F000FFFE03FFFFC00000FFFFFFFFFFFFFFF92A
:10270000000000FFFFFFFFFFFFFFFC0007C0FFFF0F
:10271000FFFFFFFFFFFF0007E0FFFFFFFFFFFFFFDF
:10272000FFE007F1FFFFFFFFFFFFFFFFFC07F9FFDF
:10273000FFFFFFFFFFFFFFFF03F9FFFFFFFFFFFFAB
:10274000FFFFFF83F9FFFFFFFFFFFFFFFFFFC3FF57
:10275000FFFFFFFFFFFFFFFFFFE1FFFFFFFFFFFFA7
:10276000FFFFFFFFF0BFFFFFFFFFFFFFFFFFFBF8D3
:102770003FFFFFFFFFFFFFFFFFF9F83FFFFFFFFFF6
:10278000FFFFFFFF7EF0FFFFFFFFFFFFFFFFFF8E5A
:1027900003FFFFFFFFFFFFFFFFFFE01FFFFFFFFF44
:1027A000FFFFFFFFFFFFFFFFFFFFFFFFFFFFFFFF39
:1027B000FFFFFFFFFFFFFFFFFFFFFFFFFF7FFFFFA9
:1027C000FFFF00007FFFFFF87FFFFFFFFF80007F1C
:1027D000FFFFE07FFFFFFFFFC3FCFFFFFFF8FFFFEE
:1027E000FFFFFFC3FCFFFFFFF8FFFFFFFFFF87FDB9
:1027F000FFFFFFF1FFFFFFFFFF87FFFFFFFFF1FF7D
:10280000FFFFFFFF0FE7F30FFC23FC3FFFFFFF0F6E
:10281000EF8007F003F01E007FFE1FCF8187C78780
:10282000C70C007FFE001FC7C78FC79F0F0CFFFE9E
:10283000001F878F1F8F1F0F1FFFFC3F9F8F8F1F52
:102840008E001E3FFFFC7F3F0F1E3F1E3FFE3FFFDF
:10285000F87FFF1F1C3F1C7FFC7FFFF8FFFF1E1C43
:102860007E1C7FFC7FFFF0FFCE3E3C7E3C7FB8FFAE
:10287000FFF0FF9E3C387C387E78FFFFE1FF3C7C18
:10288000787C783CF1FFFFE1F8387878101801F196
:10289000FFFF000060203C007C07807FFFFFFFFF00
:1028A000FFFE1FFE1FFFFFFF1FFFFFFFFFFFFF6079
:1028B0000000000001FF400000000000FF80000059
:1028C0000000007F83CF00000C303F87FF80000CAA
:1028D000301F867980000C000F8C30C7838C30E766
:1028E0008C30CFC7CC31F38C30DCECEC33B98C308E
:1028F000D86C6C33198C30D06C0C33198C30D86C8C
:102900000C33198C30DC6C0E3B198C30CF7C079F5C
:10291000198C30C77C038F19400000000000026052
:102920000000000000061FFFFFFFFFFFF8202050FF
:102930006C616E6E65724275666665724279746529
:10294000733A20002046726565204D656D6F72797F
:102950003A2000436F6D70696C65643A2041707273
:1029600020313220323032300A00207C2041757410
:10297000686F723A20287379636F35343634352C9A
:1029800020456E6465722D332D70726F290A0032F6
:102990003031382D30372D333100204C61737420A5
:1029A000557064617465643A200062756766697881
:1029B0002D312E312E780A004D61726C696E002027
:1029C000536F6674776172652052657365740A008F
:1029D000205761746368646F672052657365740A79
:1029E000002042726F776E206F7574205265736598
:1029F000740A002045787465726E616C20526573AC
:102A000065740A00506F77657255700A00737461BF
:102A100072740A006175746F25692E6700657272A1
:102A20006F722077726974696E6720746F206669AF
:102A30006C650A00456E6473746F707320256320A3
:102A4000256320256320256300205A3A0020593A47
:102A50000020583A00656E6473746F707320686963
:102A6000743A2000446F6E6520736176696E67204A
:102A700066696C652E0A004D3239004D3234004DC6
:102A8000323320257300556E6B6E6F776E20636F47
:102A90006D6D616E643A202200534420636172645C
:102AA000206F6B0A006F70656E526F6F74206661E5
:102AB000696C65640A00766F6C756D652E696E6968
:102AC00074206661696C65640A00534420696E690C
:102AD00074206661696C0A0057726974696E6720B8
:102AE000746F2066696C653A20006F70656E2066B1
:102AF00061696C65642C2046696C653A20006F70D2
:102B0000656E206661696C65642C2046696C653A67
:102B1000200046696C652073656C65637465640AA2
:102B2000002053697A653A200046696C65206F7011
:102B3000656E65643A20002066696C653A20006421
:102B40006F696E67006672657368004E6F7720006C
:102B5000454E4420535542524F5554494E450A0064
:102B60002220706F73002220706172656E743A22A9
:102B700000535542524F5554494E452043414C4C09
:102B8000207461726765743A22004B494C4C45448D
:102B90002E2000747279696E6720746F2063616CF7
:102BA0006C207375622D67636F64652066696C6560
:102BB00073207769746820746F6F206D616E79205F
:102BC0006C6576656C732E204D4158206C6576657A
:102BD0006C2069733A004572726F723A006F7065CB
:102BE0006E206661696C65642C2046696C653A20CC
:102BF0000043616E6E6F74206F70656E2073756236
:102C000064697220006563686F3A0000060900FE7F
:102C10000701920321207FFF07FF07FF0000000646
:102C2000000001070706020080808080800080038A
:102C30000202060105A0A00507070600005050F893
:102C400050F850500507070600002078A07028F0C3
:102C500020050707060000C0C81020409818050787
:102C6000070600006090A040A890680203030601D8
:102C700004C0408003070706010020408080804098
:102C80002003070706010080402020204080050522
:102C90000506000120A870A82005050506000120F2
:102CA00020F820200203030602FFC0408005010136
:102CB000060003F8020202060200C0C00505050670
:102CC0000001081020408005070706000070888872
:102CD0008888887003070706010040C040404040D4
:102CE000E0050707060000708808708080F8050777
:102CF00007060000F81020100808F0050707060076
:102D00000010305090F81010050707060000F880FA
:102D1000F008088870050707060000708080F088BA
:102D20008870050707060000F808102020202005FD
:102D300007070600007088887088887005070706F6
:102D4000000070888878080870020505060200C037
:102D5000C000C0C00206060602FFC0C000C040801E
:102D600004070706000010204080402010050303E0
:102D7000060002F800F80407070601008040201052
:102D800020408005070706000070880810200020FA
:102D900005070706000070880868A8A870050707DF
:102DA000060000708888F8888888050707060000F4
:102DB000F08888F08888F005070706000070888092
:102DC00080808870050707060000F088888888885A
:102DD000F0050707060000F88080F08080F80507FE
:102DE00007060000F88080F0808080050707060055
:102DF00000708880B88888700507070600008888FA
:102E000088F8888888010707060200808080808013
:102E1000808005070706000038101010109060052C
:102E200007070600008890A0C0A090880507070645
:102E30000000808080808080F805070706000088F9
:102E4000D8A8888888880507070600008888C8A849
:102E50009888880507070600007088888888887029
:102E6000050707060000F08888F0808080050707C6
:102E700006000070888888A890680507070600008B
:102E8000F08888F0A0908805070706000078808009
:102E9000700808F0050707060000F8202020202011
:102EA000200507070600008888888888887005073D
:102EB00007060000888888888850200507070600D4
:102EC000008888888888A850050707060000888839
:102ED0005020508888050707060000888888502001
:102EE0002020050707060000F80810204080F8039E
:102EF0000707060100E08080808080E00505050668
:102F000000018040201008030707060100E0202090
:102F1000202020E00503030600042050880501015D
:102F2000060000F8020202060205804005050506BB
:102F3000000070087888780507070600008080B0D8
:102F4000C88888F005050506000070808088700537
:102F500007070600000808689888887805050506B0
:102F600000007088F880700507070600003048E010
:102F7000404040400506060600FF708888780870CB
:102F80000507070600008080B0C888888801070709
:102F9000060200800080808080800308080601FF10
:102FA000200020202020A040040707060000808089
:102FB00090A0C0A090030707060100C04040404019
:102FC00040E0050505060000D0A8A8A8A80505054D
:102FD000060000B0C88888880505050600007088CE
:102FE0008888700506060600FFF08888F080800556
:102FF00006060600FF78888878080805050506009B
:1030000000B0C8808080050505060000708070084B
:10301000F00407070600004040E04040403005054E
:103020000506000088888898680505050600008860
:10303000888850200505050600008888A8A8500546
:10304000050506000088502050880506060600FF8A
:10305000888888780870050505060000F81020406B
:10306000F803070706010020404080404020010788
:1030700007060200808080808080800307070601A9
:103080000080404020404080050202060002689017
:1030900000000006000000060900FE00000000001D
:1030A00001090008FE000005080806000040F0C8FD
:1030B0008888987810050808060000C0F888888875
:1030C0008888F80505050600012030F8302005083D
:1030D000080600002070F820202020E005090906DD
:1030E00000FF2070A8A8B88888702005090906008C
:1030F000FFE080C0B0A8283028280509090600FF95
:10310000F8A88888888888A8F8050A0A0600FE209A
:103110005050505088A8A88870030303060003404D
:10312000A04092EA5BEA11241FBECFEFD0E4DEBFDD
:10313000CDBF12E0A0E0B1E0EEE0F8EF01E00BBFA0
:1031400002C007900D92A636B107D9F723E1A6E693
:10315000B2E001C01D92A338B207E1F718E1C2E95D
:10316000D8E104C02197FE010E9457FBC139D10765
:10317000C9F70E94BBEB0C94FAFB0C940000609121
:10318000170170911801072E000C880B990B0E94F3
:10319000CBF42AE037ED43E25CE30E942AF520916C
:1031A000A2073091A3074091A4075091A5070E9460
:1031B0002AF5609313017093140180931501909385
:1031C0001601089511980000000087FD52C0419833
:1031D00000000000119A000000001198000000009B
:1031E00086FD53C0419800000000119A00000000C5
:1031F00011980000000085FD46C0419800000000C5
:10320000119A0000000011980000000084FD39C0F0
:10321000419800000000119A000000001198000081
:10322000000083FD2CC0419800000000119A0000AE
:10323000000011980000000082FD1FC041980000AE
:103240000000119A0000000011980000000081FDAC
:1032500012C0419800000000119A0000000011986F
:1032600000000000419800000000119A00000000DA
:103270000895419AADCF419AEDCF419AE0CF419A5E
:10328000D3CF419AC6CF419AB9CF419AACCF909152
:103290006F00292F227091FF05C090916F009D7FD4
:1032A00090936F0034E0839FC0011124FC01E1582A
:1032B000F84F4081518162817381895E974FFC0193
:1032C000408351836283738381E080937E0722234E
:1032D00029F080916F00826080936F000895BC0197
:1032E0002091150830911608409115085091160844
:1032F0002417350731F481E02617370709F080E0FD
:1033000008959A01F1CFCF92DF92EF92FF928091D0
:10331000B20A882309F457C0C090AE0AD090AF0A11
:10332000E090B00AF090B10A20E030E0A901C701B6
:10333000B6010E94C4F4882309F445C020E030E0BF
:1033400040E05FE3C701B6010E942AF59B01AC0192
:103350000E942AF52BED3FE049E450E40E942AF553
:103360009B01AC0160E070E080E89FE30E9478F987
:103370006B017C01C092A207D092A307E092A40740
:10338000F092A5076091170170911801072E000CAB
:10339000880B990B0E94CBF42AE037ED43E25CE303
:1033A0000E942AF5A70196010E942AF56093130155
:1033B000709314018093150190931601FF90EF9084
:1033C000DF90CF900895C12CD12C80E8E82E8FE3B8
:1033D000F82ED0CF2F923F924F925F926F927F92B2
:1033E0008F929F92AF92BF92CF92DF92EF92FF9215
:1033F0000F931F93CF93DF93CDB7DEB762970FB6CE
:10340000F894DEBF0FBECDBF588B4F87DC01CD9047
:10341000DD90ED90FC90DB018D919D910D90BC9124
:10342000A02D89839A83AB83BC8320E030E040E207
:1034300051E4C701B6010E94F4F82AE13FE149E1F5
:103440005CE30E942AF50E94EAF916160CF023C1EB
:1034500061E0E62F660FFF0BFE83ED838F010F5FA8
:103460001F4F20E030E040E251E469817A818B8196
:103470009C810E94F4F82AE13FE149E15CE30E946B
:103480002AF50E94EAF916160CF009C161E0262E11
:10349000660F3308ED81FE81EE0FFF1FEE0FFF1F59
:1034A000E358F04F80809180A280B3806D817E814F
:1034B000660F771F8D819E81860F971F9E838D8358
:1034C000FC01E20DF31DEE0FFF1FEE0FFF1FEC5886
:1034D000FD4F4080518062807380F801EE0FFF1F26
:1034E000EE0FFF1FE358F04FA50194016081718139
:1034F000828193810E94F4F86F83788789879A8705
:10350000A5019401C701B6010E94F4F86B877C877E
:103510008D879E87C801880F991F080F191FF80112
:10352000E20DF31DEE0FFF1FEE0FFF1FEC58FD4FD6
:10353000A301920160817181828193810E94F4F8DC
:103540002F81388549855A850E9478F92B853C85DD
:103550004D855E850E942AF5A30192010E94F5F82F
:103560006B017C01D1011196BA8BA98BED81FE8193
:10357000EA0FFB1FEE0FFF1FEE0FFF1FEC58FD4F72
:103580004080518062807380F101EE0FFF1FEE0FCB
:10359000FF1FEF58F04F80809180A280B3800A0F08
:1035A0001B1FF801EE0FFF1FEE0FFF1FEC58FD4F22
:1035B000A301920160817181828193810E94F4F85C
:1035C0002F81388549855A850E9478F92B853C855D
:1035D0004D855E850E942AF5A30192010E94F5F8AF
:1035E000A70196010E94F4F82B013C01E989FA89B0
:1035F000EE0FFF1FEE0FFF1FEF58F04FA5019401D4
:1036000060817181828193810E94F4F89B01AC01F9
:10361000C301B2010E9478F92B013C01A50194017C
:1036200069817A818B819C810E94F4F89B01AC01B5
:10363000C301B2010E942AF5A70196010E94F5F884
:10364000AF85B8892D913D914D915C910E942AF5ED
:103650002091A8073091A9074091AA075091AB0784
:103660000E94F5F862960FB6F894DEBF0FBECDBF8C
:10367000DF91CF911F910F91FF90EF90DF90CF904E
:10368000BF90AF909F908F907F906F905F904F9082
:103690003F902F90089567FFDCCE60E0DACE67FFA1
:1036A000F6CE60E0F4CE8F929F92AF92BF92CF920F
:1036B000DF92EF92FF92CF93DF93EC01809094071B
:1036C00090909507A0909607B090970720E030E083
:1036D000A901C501B4010E94C4F4882309F454C0AF
:1036E000C880D980EA80FB80A7019601C501B4019A
:1036F0000E94C4F418160CF04CC020917002309156
:1037000071024091720250917302C701B6010E948A
:10371000C4F4882331F1C0927002D0927102E09219
:103720007202F092730220916C0230916D0240910E
:103730006E0250916F02688179818A819B810E941B
:103740002AF59B01AC0160E070E080E89FE30E94F5
:10375000F4F860930001709301018093020190934B
:10376000030160910001709101018091020190912B
:103770000301DF91CF91FF90EF90DF90CF90BF904A
:10378000AF909F908F90089560E070E080E89FE395
:10379000F0CF60E070E0CB01ECCFCF93DF9380916E
:1037A000C507329B4BC081608093C5078091C507D8
:1037B000339946C08D7F8093C5078091C5073499A2
:1037C00041C08B7F8093C507C0910808C0FF10C01F
:1037D0008091CE0780FF0CC08091C50780FF08C094
:1037E0008091F50A81608093F50A80E00E94471974
:1037F000C1FF10C08091CE0781FF0CC08091C5072A
:1038000081FF08C08091F50A82608093F50A81E00B
:103810000E944719C2FF18C08091CE0782FF14C0D2
:103820008091C50782FF10C08091F50A8460809363
:10383000F50A82E0DF91CF910C9447198E7FB4CFC7
:103840008260B9CF8460BECFDF91CF910895CF92CF
:10385000DF92EF92FF92CF93C82F0E944CC06B0172
:103860007C0124EA30E74DE75FE36091C80870917E
:10387000C9088091CA089091CB080E94C4F487FDC2
:1038800018C08AEF90E0A0E0B0E08C0D9D1DAE1D49
:10389000BF1D8093B80A9093B90AA093BA0AB09357
:1038A000BB0AC0934901CF91FF90EF90DF90CF907A
:1038B000089580E090E0DC01E8CF6091C408709149
:1038C000C5088091C6089091C70841E00C946094A7
:1038D0000C9458C09F92AF92BF92CF92DF92EF921A
:1038E000FF920F931F93CF93DF935B01E9014A305F
:1038F00009F4C4C0453109F067C0DB011296ED91AF
:10390000FC91F280C681D781139A88E290E00197FA
:10391000F1F7EF2CE29420EFE22230E1932E9F0C9E
:1039200048E2C42ED12C88EF0E94E218C60101970C
:10393000F1F7BFE1BF1508F488C08F2D807780684C
:103940000E94E2188E2D0E94E218C6010197F1F73D
:1039500080E80E94E21880E00E94E218C601019708
:10396000F1F78AEF0E94E218C6010197F1F78E0184
:10397000005F1F4F8881807F0E94E21889918295A5
:10398000807F0E94E218C017D107A1F7C6010197F6
:10399000F1F7F394E0E1EE0EF910C5CF1398D501DD
:1039A00012960D911C91C8010E9456C28111FEC150
:1039B000DF91CF911F910F91FF90EF90DF90CF900B
:1039C000BF90AF909F900895FB0102811381ECEEB0
:1039D000E40FE43308F050C0F0E0EF50F34E0C94E5
:1039E00057FB7E1ED31C3C1DC61E3C1D3C1D3C1DB2
:1039F0003C1D3C1D3C1D3C1D3C1D3C1D3C1D3C1DFF
:103A00003C1D3C1D3C1D3C1D3C1D3C1D3C1D3C1DEE
:103A10003C1D3C1D3C1D3C1D3C1D3C1D3C1DC01E59
:103A20003C1D3C1D3C1D3C1D3C1D3C1D3C1D3C1DCE
:103A3000911E3C1D3C1D3C1D3C1D3C1D3C1D3C1D68
:103A40003C1D3C1D3C1DE31E381D80EE8F0D806823
:103A5000807F0E94E2188F2D8295807F0E94E2185D
:103A6000C6010197F1F780E80E94E21880E874CF60
:103A7000D80111968C91888381E09ACF0B9A139884
:103A8000399A4198099A119A139A88E290E001971D
:103A9000F1F788E790E0CEE9DFE0FE013197F1F73A
:103AA0000197D9F788EF0E94E21808E210E0C801F8
:103AB0000197F1F780E20E94E21880E00E94E2188C
:103AC000C8010197F1F780E00E94E21880E80E94A7
:103AD000E218C8010197F1F780E00E94E21880E146
:103AE0000E94E218C8010197F1F7CE010197F1F7A2
:103AF000CE010197F1F7CE010197F1F7CE010197C1
:103B0000F1F7CE010197F1F7CE010197F1F7CE0160
:103B10000197F1F7CE010197F1F7CE010197F1F787
:103B2000CE010197F1F7CE010197F1F7CE01019790
:103B3000F1F7CE010197F1F7CE010197F1F7219747
:103B4000F1F780E20E94E21880E40E94E218C801C6
:103B50000197F1F780E20E94E21880E60E94E218E5
:103B6000C8010197F1F700E010E0C8E2D0E0812F32
:103B7000807780680E94E218802F0E94E218CE01B0
:103B80000197F1F780E80E94E21880E00E94E218B5
:103B9000CE010197F1F78AEF0E94E218CE0101975A
:103BA000F1F780E211980000000041980000000049
:103BB000119A0000000011980000000041980000D8
:103BC0000000119A000000001198000000004198C8
:103BD00000000000119A0000000011980000000091
:103BE000419800000000119A0000000011980000A8
:103BF0000000419800000000119A00000000119898
:103C000000000000419800000000119A0000000030
:103C1000119800000000419800000000119A000077
:103C20000000119800000000419800000000119A67
:103C30000000000011980000000041980000000002
:103C4000119A000000001198000000004198000047
:103C50000000119A00000000119800000000419837
:103C600000000000119A0000000011980000000000
:103C7000419800000000119A000000001198000017
:103C80000000419800000000119A00000000119807
:103C900000000000419800000000119A00000000A0
:103CA000119800000000419800000000119A0000E7
:103CB0000000119800000000419800000000119AD7
:103CC00000000000FE013197F1F7815009F06ACF42
:103CD00088EF0E94E218CE010197F1F71F5F005FA5
:103CE000103209F044CF80E00E94E21880EC0E947C
:103CF000E2182197F1F7139881E05ACED801159672
:103D00004C91159750E0440F551F70E060E01696F7
:103D10008D919C910E9492FBC8010E946CC281E02F
:103D200047CE89812B81D80112966C9112971396F8
:103D30004C91213009F467C0233009F048C038EFB6
:103D4000380F582F91E0431708F490E041E05317E3
:103D500008F040E031E0561708F430E0592F542BBA
:103D6000352319F4942309F487CEFA8030E0F90161
:103D7000E052FE4FD08024523E4FF901E08040C017
:103D8000B901C8010E9440C281E012CE1882D80158
:103D900012968C911297898315968C911597815064
:103DA0008A8313968C918B8381E002CEF801458142
:103DB00050E0440F551F70E060E0868197810E94BB
:103DC00092FB81E0F5CDF8018581888355CE4817B7
:103DD00008F452CE861708F44FCEFA80E12CD12C8D
:103DE000243070F4C3CFBE01C8010E9440C2898153
:103DF00098819D0D98838E0D8983FF0C09F43CCE2C
:103E0000F7FEF6CFF0CF58E0580F382F9BCFDF9258
:103E1000EF92FF920F931F93CF93DF93EC01D62E77
:103E20001CAD0BAD7C0184E0E80EF11CE98DFA8D30
:103E3000C7010995412F480F2D2D602FC7010E9402
:103E4000E6C49BAD890F8BAF81E090E0DF91CF910D
:103E50001F910F91FF90EF90DF9008951F93CF93E4
:103E6000DF93182FEB01FE018491219681110AC086
:103E7000CAE8D4E0FE0184912196882331F00E94A3
:103E80003B7EF8CF0E943B7EEECFC5E8D4E0112305
:103E900011F0CBE7D4E0FE0184912196882319F03C
:103EA0000E943B7EF8CF8AE0DF91CF911F910C9466
:103EB0003B7ECF93DF9380399240A1F0C6EDDBE2E9
:103EC000FE018491219681110AC0C7ECD0E0FE0169
:103ED00084912196882351F00E943B7EF8CF0E9466
:103EE0003B7EEECF80E0DF91CF91089581E0FBCF64
:103EF0004F925F926F927F928F929F92AF92BF92FA
:103F0000CF92DF92EF92FF92CF93DF93CDB7DEB7E0
:103F10006A970FB6F894DEBF0FBECDBF9A8F898F18
:103F20005B014A01DC01D7966D917D918D919C9149
:103F3000DA970E94C9F46B017C01F501208131817F
:103F4000428153810E942AF50E9461F90E94F1F991
:103F50003B015C01D4012D913D914D915C91C701D4
:103F6000B6010E942AF50E9461F90E94F1F96D8262
:103F70007E82AF82B8862D813E814F815885283759
:103F800031054105510540F428E730E040E050E0BC
:103F90002D833E834F83588769837A838B839C83E9
:103FA00089819A81AB81BC8188379105A105B105D2
:103FB00040F428E730E040E050E029833A834B8327
:103FC0005C83E98DFA8DED5BFF4F80819181A28149
:103FD000B38189879A87AB87BC87BC01CD010E94DA
:103FE000CBF42B013C016D817E818F8198850E94ED
:103FF000C9F4698B7A8B8B8B9C8B20E030E0A90114
:10400000C301B2010E94C4F4882309F43BC1A70193
:104010009601C701B6010E942AF54B015C0129896E
:104020003A894B895C89CA01B9010E942AF59B0132
:10403000AC01C501B4010E94F4F84B015C01A3017D
:104040009201C301B2010E94F5F89B01AC01C501C8
:10405000B4010E9478F90E9461F90E94F1F96D871C
:104060007E878F87988B69857A858B859C859095CF
:104070008095709561957F4F8F4F9F4F0E94CBF435
:104080004B015C0169817A818B819C810E94C9F41A
:1040900069877A878B879C8720E030E0A901C5017A
:1040A000B4010E94C4F4882309F4F0C029853A853C
:1040B0004B855C85CA01B9010E942AF56D8B7E8B08
:1040C0008F8B988FA7019601C701B6010E942AF530
:1040D0009B01AC016D897E898F89988D0E94F4F8CF
:1040E0006B017C01A5019401C501B4010E94F5F8A2
:1040F0009B01AC01C701B6010E9478F90E9420FA29
:10410000A98DBA8D95968D909D90AD90BC90989705
:10411000750164012D853E854F855889C21AD30AE1
:10412000E40AF50A0E94F1F9C61AD70AE80AF90A60
:10413000F7FE6EC020E030E0A901C301B2010E9489
:10414000C4F4882309F4A6C0C501B4010E94C9F4CF
:104150006B017C01A3019201C301B2010E94F5F839
:104160009B01AC01C701B6010E942AF56B017C01DD
:1041700029893A894B895C89CA01B9010E942AF5CB
:104180009B01AC01C701B6010E94F4F86B017C01F0
:1041900029853A854B855C85CA01B9010E942AF5BB
:1041A0009B01AC01C701B6010E94F5F86B017C01CF
:1041B00020E030E040E850E4C301B2010E942AF55B
:1041C0009B01AC01C701B6010E9478F90E9461F918
:1041D0006B017C0120E030E0A9010E9478FA1816FA
:1041E0001CF0C12CD12C7601C701B6010E94F1F957
:1041F0006D877E878F87988B86169706A806B906E7
:1042000020F48D869E86AF86B88AC12CD12C76018B
:104210008D859E85AF85B889E98DFA8D82A793A794
:10422000A4A7B5A7C80ED91EEA1EFB1EDF01C6A6AD
:10423000D7A6E0AAF1AA2D813E814F81588523AFF0
:1042400034AF45AF56AFDF9629813A814B815C810F
:104250002D933D934D935C9313976A960FB6F89404
:10426000DEBF0FBECDBFDF91CF91FF90EF90DF900B
:10427000CF90BF90AF909F908F907F906F905F9006
:104280004F90089560E070E0CB01E5CE60E070E013
:10429000CB0134CF60E070E0CB0198CFCF93DF93B8
:1042A00000D000D0CDB7DEB7882349F00E9430CAD5
:1042B0000F900F900F900F90DF91CF91089588EBA2
:1042C00091E09C838B8384E190E09A838983BE0193
:1042D0006D5F7F4FCE0101960E9416BDE9CF8091A0
:1042E000AE088230B1F09091A90F992359F08091D6
:1042F000BA0F811104C08DEA9FE00C941BBC8AEBBD
:104300009FE0FBCF813041F08FEE91E16FEF0C9495
:10431000C5D68AE092E1FACF8EEF91E1F7CF282F50
:104320001092C60A80917A0C90917B0CA0917C0C23
:10433000B0917D0C81309048A105B10540F01092FC
:104340007A0C10927B0C10927C0C10927D0C809158
:10435000C10A882331F080917A0C8093B50A1092BB
:10436000B40A8091B30A1816FCF4082E000C990BBD
:10437000821B91092091B50A022E000C330B2817DD
:10438000390794F097FF02C090E080E08093B50A6F
:10439000092E000CAA0BBB0B80937A0C90937B0C1C
:1043A000A0937C0CB0937D0C8091B50A6623A9F094
:1043B0009091B60A891714F48093B60A2091B60A30
:1043C000022E000C330B2C5F3F4F482F082E000CA1
:1043D000550B241735071CF484508093B60A0895B2
:1043E000809196088630D8F496E0899FF0011124D8
:1043F000EE58F74F209153013091540131832083BF
:1044000040917A0C50917B0C60917C0C70917D0CEA
:1044100042835383648375838F5F809396080895E6
:10442000CF92DF92EF92FF920F931F93CF93DF9380
:10443000EC016A017B0180915301909154018C172A
:104440009D0709F440C040919407509195076091F1
:104450009607709197074093C4085093C5086093DE
:10446000C6087093C70825E3CF31D207A9F58C5150
:104470009F4271F40E944CC06E517B4F8F4F9F4FF3
:1044800060936E0870936F08809370089093710822
:10449000D0935401C0935301C0927A0CD0927B0CFC
:1044A000E0927C0CF0927D0CCC51DF4221F4109212
:1044B000C00A1092960882E080935B0181E08093AD
:1044C000B40A1092C70ADF91CF911F910F91FF900C
:1044D000EF90DF90CF9008952FE2CC31D207C1F654
:1044E0008F51954319F0CCE1DFE2D2CF0E944CC04E
:1044F00000916E0810916F0820917008309171083A
:10450000601B710B820B930B97FFEDCF80914B0FCC
:1045100090914C0F891B8F7021F48091A90F8823F3
:1045200011F3C7EED2E2B4CF21E02093C00A60932A
:10453000C8087093C9088093CA089093CB0840E0DC
:1045400050E0BA018091CC089091CD080C941022D3
:1045500060E070E080E291E40C94942260E070E00E
:1045600080E89FE30C9494226DEC7CEC8CEC9DE352
:104570000C94942281E08093C00A1092A70740E037
:1045800050E0BA0183EE98E20E94102285EF93E199
:104590009093920C8093910C0C94588040E050E0E2
:1045A000BA0182E199E20E94102281E08093A6077D
:1045B0008091C308811108C08DEC93E19093920C17
:1045C0008093910C0C94588084ED93E1F7CF40E0F8
:1045D00050E0BA0189E599E20E9410221092BF08CA
:1045E0001092C0081092C1081092C20881E0809316
:1045F000C00A089540E050E0BA018CE19FE20C94BB
:104600001022E0919608EE2389F0E150E09396089D
:1046100086E0E89FF0011124EE58F74F4281538164
:1046200064817581808191810C9410220C94FA220E
:10463000CF92DF92EF92FF920F931F93CF93DF936E
:10464000182F7093CD086093CC0861E081E00E9440
:104650008F21C091B60A85E0D82EDC0E81E004E0FF
:104660000C1B93E0F92EFC1A92E0E92EEC1AC82EEE
:10467000CC1ADC2FD195113009F45BC058F11230FF
:1046800009F482C0C111A9C08823D9F08091B50A6C
:104690001816BCF040917A0C50917B0C60917C0C08
:1046A00070917D0C4F5F5F4F6F4F7F4F40937A0C3F
:1046B00050937B0C60937C0C70937D0C8F5F809388
:1046C000B50A80915B01882361F121E041E06DE151
:1046D00075E156C0C11181C08823D9F08091B50A17
:1046E0001816BCF040917A0C50917B0C60917C0CB8
:1046F00070917D0C4F5F5F4F6F4F7F4F40937A0CEF
:1047000050937B0C60937C0C70937D0C8F5F809337
:10471000B50A80915B0121E041E064E375E181111C
:104720002FC080E0CF5FDC12A6CF85E08093B30A74
:1047300078C0C11152C08823D9F08091B50A1816EB
:10474000BCF040917A0C50917B0C60917C0C709184
:104750007D0C4F5F5F4F6F4F7F4F40937A0C5093AC
:104760007B0C60937C0C70937D0C8F5F8093B50AFB
:1047700080915B0121E041E06DE275E1882389F2DF
:104780008D2F0E940FDACDCFC11127C08823D9F019
:104790008091B50A1816BCF040917A0C50917B0CB0
:1047A00060917C0C70917D0C4F5F5F4F6F4F7F4F1E
:1047B00040937A0C50937B0C60937C0C70937D0C2F
:1047C0008F5F8093B50A80915B0121E041E066E252
:1047D00075E1882309F4A5CFD3CFC13059F5809175
:1047E000B50A813091F080915B01882309F499CF5B
:1047F00081E09091B50A913009F080E024E043E136
:1048000055E16C2D0E9460CA8CCF8091C80A882324
:1048100051F31092C80A0E9401238091B40A8823A0
:1048200011F3DF91CF911F910F91FF90EF90DF90E7
:10483000CF900895C23009F055C08091B50A8230FA
:1048400081F080915B01882309F46BCF81E0909126
:10485000B50A923009F080E023E049E055E16E2D81
:10486000D1CF8091C80A882361F31092C80A88EAE0
:1048700092E20E94EDDB8091B40A882311F3D1CF3C
:104880008091B50A833081F080915B01882309F41F
:1048900048CF81E09091B50A933009F080E023E0A1
:1048A00040E055E16F2DAECF8091C80A882361F3B7
:1048B0001092C80A8EEA92E20E94EDDB8091B40A5F
:1048C000882311F3AECF8091C80A8823A1F01092FB
:1048D000C80A84EB92E20E94EDDB8091B40A88233F
:1048E00051F09FCFC33061F2C43009F01ACF8091EC
:1048F000B50A843041F380915B01882309F411CF1C
:1049000081E09091B50A943009F080E023E045EF12
:1049100054E1602F77CFEF92FF920F931F93CF93C5
:10492000DF9361E081E00E948F21C091B60A85E0AB
:10493000F82EFC0ED3E0DC1B12E01C1B01E00C1B6C
:10494000EC2EE194C1112DC08091B50A8823B1F0FD
:1049500080915B01882359F081E09091B50A911113
:1049600080E024E041E653E16E2D0E9460CACF5FF3
:10497000FC12E8CF84E08093B30A0CC08091C80A8F
:10498000882331F31092C80A0E9401238091B40A4F
:104990008823F1F2DF91CF911F910F91FF90EF905B
:1049A0000895C13061F58091B50A813079F0809128
:1049B0005B018823E1F281E09091B50A913009F022
:1049C00080E020E245E553E1602FCFCF8091C80A17
:1049D000882369F31092C80A4091560A5091570AE9
:1049E00060914E0A70914F0A8091520A9091530A39
:1049F0000E944CD68091B40A8823C9F2CBCFC23032
:104A000009F042C08091B50A823081F080915B014B
:104A1000882309F4ACCF81E09091B50A923009F077
:104A200080E020E245E353E1612F9FCF8091C80AE7
:104A3000882361F31092C80A4091560A5091570A90
:104A40006FEF7FEF8091520A9091530A0E944CD6EB
:104A50008091B40A8823D1F29DCF8091C80A88231F
:104A6000D1F01092C80A4091560A5091570A6091AD
:104A70004E0A70914F0A90E080E00E944CD68091DF
:104A8000B40A882341F086CFC33009F070CF8091FB
:104A9000B50A833011F380915B01882309F467CF55
:104AA00081E09091B50A933009F080E020E245E47E
:104AB00053E16D2F5ACFEF92FF920F931F93CF9335
:104AC000DF9361E081E00E948F21C091B60A85E00A
:104AD000F82EFC0ED3E0DC1B12E01C1B01E00C1BCB
:104AE000EC2EE194C1112DC08091B50A8823B1F05C
:104AF00080915B01882359F081E09091B50A911172
:104B000080E024E045E953E16E2D0E9460CACF5F4A
:104B1000FC12E8CF84E08093B30A0CC08091C80AED
:104B2000882331F31092C80A0E9401238091B40AAD
:104B30008823F1F2DF91CF911F910F91FF90EF90B9
:104B40000895C13061F58091B50A813079F0809186
:104B50005B018823E1F281E09091B50A913009F080
:104B600080E020E249E853E1602FCFCF8091C80A6E
:104B7000882369F31092C80A4091580A5091590A43
:104B80006091500A7091510A8091540A9091550A8F
:104B90000E944CD68091B40A8823C9F2CBCFC23090
:104BA00009F042C08091B50A823081F080915B01AA
:104BB000882309F4ACCF81E09091B50A923009F0D6
:104BC00080E020E249E653E1612F9FCF8091C80A3F
:104BD000882361F31092C80A4091580A5091590AEB
:104BE0006FEF7FEF8091540A9091550A0E944CD646
:104BF0008091B40A8823D1F29DCF8091C80A88237E
:104C0000D1F01092C80A4091580A5091590A609107
:104C1000500A7091510A90E080E00E944CD6809139
:104C2000B40A882341F086CFC33009F070CF809159
:104C3000B50A833011F380915B01882309F467CFB3
:104C400081E09091B50A933009F080E020E249E7D5
:104C500053E16D2F5ACF8091A607811106C01092A3
:104C6000C00A0E9401230E9430CA80915B01882300
:104C700039F020E041E06DE973E181E00E940FDA54
:104C800082E080935B0108959CE0899F802D112430
:104C900091E0980F9093780C2CE0280F2093790CDA
:104CA0004091420F30E02E5F3F4F4217130609F04C
:104CB000A4F42091440F921780F4662341F08E5F94
:104CC0000E9435C48091790C8E5F0E9435C480911A
:104CD000790C1092450F8093460F0895CF93DF9380
:104CE0001F92CDB7DEB78091470F811105C081E0DB
:104CF0008093470F0E94B1C26091100F7091110F05
:104D000019829E012F5F3F4F4FE08EE09FE00E948F
:104D100073C20F90DF91CF9108950F931F93CF939C
:104D2000C62F8C01CC2349F0F80181918F01882393
:104D300021F00E94B8BBC150F5CFCF911F910F91C8
:104D400008959FEF980F993020F40E9426D681E0B5
:104D500008950E94B8BBFBCF9FEF980F993010F4D5
:104D60000C9426D60C94B8BBCF93DF93EC01FE01D4
:104D70008491882321F00E94AC262196F8CFDF9100
:104D8000CF910895CF93DF93EC018991882319F097
:104D90000E94AC26FACFDF91CF910895AF92BF92D7
:104DA000CF92DF92EF92FF920F931F93CF93DF93F7
:104DB0005C017B010E9401DAC82FC7010E9473DBEE
:104DC00004E110E0081B1109DD24D394C01711067B
:104DD00019F014F082E0D82E80910F0F90E06D2D25
:104DE00070E06F5F7F4F0E9424FBC62EC6E0C60FA7
:104DF0008091420FC81788F12091440F4C2F4B50DF
:104E0000550B241715064CF11092450FC093460F11
:104E1000C5010E94BDBBD1E0E114F10499F08AE321
:104E20000E94B8BB52E0D5121AC0CC0D8091420F3F
:104E3000C81740F02091440F4C2F4B50550B2417AE
:104E400015067CF4DF91CF911F910F91FF90EF90A9
:104E5000DF90CF90BF90AF900895D0E0DDCFDD23FD
:104E600089F3802F880F800F880F8093450FC093A0
:104E7000460F80E20E94B8BBC701DF91CF911F911E
:104E80000F91FF90EF90DF90CF90BF90AF900C9478
:104E9000C2268091C80A1092C80A882321F0109275
:104EA000C00A0C94012360917A0C70917B0C809164
:104EB0007C0C90917D0C611571058105910561F166
:104EC0000E94CBF42091C8083091C9084091CA08CB
:104ED0005091CB080E942AF52091AD0E3091AE0E74
:104EE0004091AF0E5091B00E0E94F5F86093AD0E58
:104EF0007093AE0E8093AF0E9093B00E83E00E943D
:104F0000271C81E080935B0110927A0C10927B0C3D
:104F100010927C0C10927D0C80915B01882349F0EB
:104F20008DEA9EE00E9463C7BC018CEE94E10C9474
:104F3000CE2608953F924F925F926F927F928F920A
:104F40009F92AF92BF92CF92DF92EF92FF920F9318
:104F50001F93CF93DF93CDB7DEB72A970FB6F894A0
:104F6000DEBF0FBECDBF9A878987362E8091C80AD3
:104F70001092C80A8823E1F01092C00A0E9401230F
:104F80002A960FB6F894DEBF0FBECDBFDF91CF914A
:104F90001F910F91FF90EF90DF90CF90BF90AF9057
:104FA0009F908F907F906F905F904F903F9008956B
:104FB00080917A0C90917B0CA0917C0CB0917D0C2F
:104FC0008D839E83AF83B887892B8A2B8B2B09F423
:104FD00054C094E0699F80011124F801EF55F14F0E
:104FE000408051806280738080912701811184C04C
:104FF00020E030E04AE754E4C301B2010E94F4F833
:105000004B015C0120E030E04AE754E4C301B20107
:105010000E94F5F86B017C016D817E818F819885FE
:105020000E94CBF42091C8083091C9084091CA0869
:105030005091CB080E942AF5A30192010E94F5F835
:105040002B013C018D819E81AF81B885B7FF95C052
:10505000A5019401C301B2010E94C4F487FD85C07B
:10506000F801EF55F14F4082518262827382832DA5
:105070000E94271C81E080935B0110927A0C1092B1
:105080007B0C10927C0C10927D0C80915B0188232C
:1050900009F476CFA4E03A9EC0011124FC01EF553B
:1050A000F14F8355984FDC012D913D914D915C91CD
:1050B00060817181828193810E94F5F869837A838E
:1050C0008B839C832DEC3CEC4CEC5DE36091C80839
:1050D0007091C9088091CA089091CB080E9478FA13
:1050E00087FD5CC0CE0101960E9463C7BC01898523
:1050F0009A850E94CE2644CFA1E06A17A1F0B2E0C3
:105100006B1711F18090B9079090BA07A090BB0778
:10511000B090BC07C0901B01D0901C01E0901D0115
:10512000F0901E0179CF8090BD079090BE07A090AF
:10513000BF07B090C007C0901F01D0902001E09041
:105140002101F090220168CF8090C1079090C207A2
:10515000A090C307B090C407C0902301D090240151
:10516000E0902501F090260157CFF801EF55F14F5F
:1051700080829182A282B3827ACFA7019601C30175
:10518000B2010E9478FA18160CF06ACFF801EF55B8
:10519000F14FC082D182E282F38269CF60E2CE0118
:1051A00001960E940BC6A2CF62E085EE94E10C94BA
:1051B0009A2761E08EED94E10C949A2760E087EDE8
:1051C00094E10C949A2780915B01882331F070E080
:1051D00060E08AEE93E10E94CE2684E080935B013A
:1051E0008091A7078770873039F440E050E0BA011A
:1051F0008DEF98E20C941022089580915B01882332
:1052000031F070E060E08BED93E10E94CE2680915A
:10521000C80A1092C80A882321F01092C3080C947F
:10522000CE2208950F931F93CF93DF93CDB7DEB7B0
:105230002A970FB6F894DEBF0FBECDBF80915B01F9
:105240008823F1F01F9289E08F938091C30890E04A
:1052500001969F938F9385EC93E19F938F938E019B
:105260000F5F1F4F1F930F930E945BF4B8018AEBEF
:1052700093E10E94CE260FB6F894DEBF0FBECDBFDD
:1052800084E080935B018091A607811107C040E014
:1052900050E0BA0188EA9FE40E9410222A960FB6D5
:1052A000F894DEBF0FBECDBFDF91CF911F910F915C
:1052B0000895CF93DF9300D000D0CDB7DEB78091B3
:1052C000C80A1092C80A882359F01092C00A0E9496
:1052D00001230F900F900F900F90DF91CF910895C1
:1052E00080917A0C90917B0CA0917C0CB0917D0CFC
:1052F0000097A105B10589F110927A0C10927B0CF0
:1053000010927C0C10927D0C21E020935B01209187
:10531000E30A22FF0AC02091A0073091A107280FBD
:10532000391F3093A1072093A007092E000CAA0B68
:10533000BB0B4091BF085091C0086091C1087091AB
:10534000C208840F951FA61FB71F8093BF089093B4
:10535000C008A093C108B093C20880915B01882364
:1053600009F4B7CF6091BF087091C0088091C1085F
:105370009091C2080E94CBF42091B7083091B808F0
:105380004091B9085091BA080E942AF569837A833E
:105390008B839C8360E2CE0101960E940BC6BC0108
:1053A00086EB92E10E94CE2694CFCF92DF92EF92CD
:1053B000FF920F93CF93DF93982F862F6A01790185
:1053C000692F0E9444269091420F8091790C891791
:1053D00008F445C09091440F8091780C981708F418
:1053E0003EC0C701002381F00E9401DAC82FD4E13A
:1053F000D81BF6018491882351F00E94A126D81B66
:10540000FFEFCF1ADF0AF5CF0E9473DBEFCF8AE3FD
:105410000E94B8BBD15010F080E2FACF8091790C95
:105420009C2F990F990FC91BCC0FC058C093450FE3
:105430008093460FC701002349F0DF91CF910F9170
:10544000FF90EF90DF90CF900C94B426DF91CF9136
:105450000F91FF90EF90DF90CF900C94C226DF91D8
:10546000CF910F91FF90EF90DF90CF9008952F9202
:105470003F924F925F926F927F928F929F92AF92E4
:10548000BF92CF92DF92EF92FF920F931F93CF9331
:10549000DF9300D000D000D01F92CDB7DEB761E01F
:1054A00081E00E948F212091B60A2E832F83822FC4
:1054B0008B5F898388E0922F821B8A8387E0821B1F
:1054C0008B8386E0821B8C8385E0821B8D8324E0A6
:1054D000322E232C291A38E1832E3CEF932EAA2456
:1054E000AA94BA2C40ED442E47E0542E612C712C26
:1054F0002E8121113BC08091B50A882391F08091C3
:105500005B01882309F491C06F81619581E09091DE
:10551000B50A911180E024E040E353E10E9460CAA3
:1055200084C08091C80A882351F31092C80A0E944F
:1055300001238091B40A882311F327960FB6F894BB
:10554000DEBF0FBECDBFDF91CF911F910F91FF90B6
:10555000EF90DF90CF90BF90AF909F908F907F9013
:105560006F905F904F903F902F9008958E81813083
:10557000D9F58091B50A813001F180915B018823D2
:1055800009F453C083E08F9387EE8F931F928AE0D4
:105590008F9389E191E09F938F9384E293E19F93AE
:1055A0008F9381E09F81891B8F9381E09091B50A51
:1055B000913009F49DC180E09BC18091C80A882385
:1055C000E1F21092C80A10E000E027EE33E04AE072
:1055D00050E069E171E08AE293E10E94B6BD8091FA
:1055E000B40A882351F2A9CF9E81923009F0F1C10B
:1055F0008091B50A823019F180915B018823A9F06E
:1056000011E08091B50A823009F010E060E288EA8A
:1056100097E00E940BC662E02F81621B00E09C01B4
:1056200048E153E1812F0E94D5299E819F5F9E838F
:10563000298129135DCF89E08093B30A7ECF8091C1
:10564000C80A8823C9F21092C80A0E94F02183E098
:1056500080935B018EE193E19093890C8093880C99
:1056600088EA97E09093870C8093860C8092820C56
:105670009092830CA092840CB092850C40927E0C88
:1056800050927F0C6092800C7092810C20E030E090
:105690004AE754E46091A8077091A9078091AA078E
:1056A0009091AB070E942AF520E030E04AE754E4ED
:1056B0000E94F5F80E94F1F960937A0C70937B0CCC
:1056C00080937C0C90937D0C81EA96EC909354012E
:1056D0008093530110928C0C10928B0C10928A0CB8
:1056E0008091B40A882309F487CF27CF8091B50A27
:1056F000833049F180915B01882309F496CF8DE5D1
:105700009CE19F938F931F9284E68F931F921F9229
:1057100084EC98E09F938F9380E093E19F938F9325
:1057200083E09F81891B8F9381E09091B50A93302C
:1057300009F080E08F930E948DC80FB6F894DEBF09
:105740000FBECDBF72CF8091C80A882399F2109204
:10575000C80A81E08093C60A1092C20A1092C30A56
:105760001092C40A1092C50A8DE5C82E8CE1D82E7D
:10577000E12CF12C08EC12E420E030E0A90164EC0B
:1057800078E08CE093E10E9417BE8091B40A8823F0
:1057900009F4B0CFD2CE8091B50A8430F9F080916F
:1057A0005B01882309F441CF88E69CE19F938F93A6
:1057B00081E08F933F921F921F9282E09FE09F9320
:1057C0008F9382EF92E19F938F932F9281E090913C
:1057D000B50A943009F447C080E045C08091C80AFA
:1057E0008823E9F21092C80A81E08093C60A1092D9
:1057F000C20A1092C30A1092C40A1092C50A08E69F
:105800001CE124E031E050E040E062E07FE089EF1D
:1058100092E10E94B6BD8091B40A882309F4BFCFFB
:105820008CCE8091B50A853011F180915B0188237F
:1058300009F4FBCE89E39EE29F938F931F928EE63D
:105840008F931F921F928DE89CE09F938F938AEE17
:1058500092E19F938F939D819F9381E09091B50AF0
:10586000953009F0B9CF8F930E94C6C866CF80915A
:10587000C80A8823D1F21092C80A81E08093C60A30
:105880001092C20A1092C30A1092C40A1092C50A5A
:1058900009E31EE22EE630E050E040E06DE87CE0F7
:1058A0008EEE92E10E94B6BD8091B40A882309F47D
:1058B000BCCF43CE8091B50A8630F1F080915B0178
:1058C000882309F4B2CE1F928FEF8F931F921F92FD
:1058D0008FE89CE09F938F9386ED92E19F938F9347
:1058E0009C819F9381E09091B50A963009F063CE38
:1058F0008F930E94C6C821CF8091C80A8823F1F2F5
:105900001092C80A81E08093C60A1092C20A1092CF
:10591000C30A1092C40A1092C50A10E000E02FEFEB
:1059200030E050E040E06FE87CE080EE92E10E94E1
:10593000B6BD8091B40A882309F2FFCD8091B50AE3
:10594000873009F180915B01882309F46ECE8FEBDB
:1059500098E19F938F9383E08F9387EE8F931F92AD
:105960008AE08F9387E191E09F938F938CEC92E193
:105970009F938F938B818F9381E09091B50A97309D
:1059800009F02ACF70CF8091C80A8823D9F21092EB
:10599000C80A0FEB18E127EE33E04AE050E067E178
:1059A00071E081ED92E10E94B6BD8091B40A882336
:1059B00049F2C3CD8091C80A882311F11092C80A18
:1059C00087EE92E20E94EDDB8091B40A8823C1F059
:1059D000B4CD8E81833009F489CE843009F4DBCED6
:1059E000853009F41ECF863009F464CF873009F47E
:1059F000A5CF883009F019CE8091B50A8830D1F250
:105A000080915B01882309F410CE81E09091B50A62
:105A1000983009F080E023E041EC52E16A817ECDCC
:105A2000CF93C82F823079F024F4813049F0CF91A0
:105A30000895833011F08430D1F78BE09CE205C0EB
:105A4000CF910C9434D686E990E30E94D4BBC093E6
:105A5000CA0AEDCF8F929F92AF92BF92CF92DF9200
:105A6000EF92FF920F931F93CF93DF93B0E4A0E0E8
:105A70006A2F70E0AB014B0F511D559547954A17A2
:105A800011F0B41319C0E3EAFEE065917491072E9A
:105A9000000C880B990B0E94CBF4DF91CF911F91E2
:105AA0000F91FF90EF90DF90CF90BF90AF909F90BD
:105AB0008F900895B42FDECF9A0121503109220F23
:105AC000331F220F331FF901EB55F24FE590F4908D
:105AD000F901E755F24FC591D4918E159F0554F306
